:020000021000EC
:108000000040002065080200A1080200A308020049
:108010000000000000000000000000000000000060
:10802000000000000000000000000000A5080200A1
:108030000000000000000000A7080200A9080200DC
:10804000AB08020025AD010011050200AB080200DB
:10805000AB0802000000000065060200AB08020049
:10806000AB08020079000200D5050200AB0802004F
:10807000AB080200AB080200AB080200AB0802002C
:10808000AB080200AB080200AB080200AB0802001C
:10809000AB08020099FC010025FE0100AB080200BC
:1080A000AB080200AB080200000000000000000066
:1080B00000000000000000000000000000000000C0
:1080C00010B5064C2378002B07D1054B002B02D0AE
:1080D000044800E000BF0123237010BDB020002041
:1080E00000000000C0770200044B10B5002B03D045
:1080F0000349044800E000BF10BDC0460000000076
:10810000B4200020C0770200164B002B00D1144B86
:108110009D46402292029A1A924600218B460F46B3
:108120001348144A121A0EF031F90F4B002B00D0ED
:1081300098470E4B002B00D09847002000210400E8
:108140000D000D48002802D00C4800E000BF0AF0E6
:10815000E5FA200029000DF09FFE0AF0C9FAC0469A
:1081600000000800004000200000000000000000A7
:10817000A8200020E82800200000000000000000E7
:1081800010B50400034B036040300BF00CF82000E6
:1081900010BDC0463C6502008022F0B55D4C520027
:1081A000A54400900C000AA85B490EF0D3F8802289
:1081B0005A4952004AA80EF0CDF8E020584B594ACF
:1081C000E6001A60584B594A59491A60594B5A4AA5
:1081D0005A4D1A605A4A5B4B40001A60721C1300D9
:1081E0000B4002D5013B2B430133834201D00132C6
:1081F000F5E70725D3172B409B18DB10180001214A
:10820000403004930AF036FF2200009907000EF078
:10821000A1F880233B55049B0422F81809A909966C
:108220000EF098F8464B3F4A0393434B029200935B
:108230003E4B0795019300239C46049A944553DADC
:108240000020029B039E009C019D05930F2830D8BF
:108250002200030072402A4072409B00FB180693E4
:108260004AA983005958634652180699C958059B74
:108270005218D21881000AABC95820235B1ADA4180
:1082800001305219059640280FD1029B9B19029389
:10829000019B9B180193009B5B190093039B1B1987
:1082A000039340239C443F3BC7E726002C00150066
:1082B000CCE71F2809D805232A00434362403240F7
:1082C000624001330F210B40C7E72F2806D8032354
:1082D0002A004343624072400533F3E7F243079BB1
:1082E0002A4362404343EDE7002B0BD00C4B029A2C
:1082F0001A600D4B019A1A600E4B009A1A60114BCE
:10830000039A1A60380000F015FF8B239B009D44F0
:10831000F0BDC046D4FDFFFF446502004466020084
:10832000DC20002001234567E020002089ABCDEF51
:10833000FF010080E4200020FEDCBA9800FEFFFF71
:1083400076543210E8200020F0B53E48A3B000F08B
:1083500097F903213C48FFF71FFF3C493C4C086854
:108360004B780A780290C87806AF01908978380077
:10837000009121000AF044FA364908AE08684B78AB
:108380000A780290C8780AAD01908978300000918F
:1083900021000AF035FA304908684B780A780290D3
:1083A000C878019089782800009121000AF028FA05
:1083B0002A4908684B780A780290C8780190897831
:1083C0000CA8009121000AF01BFA00230EA9FA5C08
:1083D0005A540133082BFAD10023F05CCA18013338
:1083E0001072082BF9D10023E85CCA18013310740D
:1083F000082BF9D10023684630240019C05CCA1844
:1084000001331076082BF6D105A800F085FF7822FD
:1084100005A9134802F0A6F805A80AF0C4FEC53461
:10842000FF34104D0121280002F096FB200000F0DF
:1084300041FD0021280002F08FFB200000F03AFDF2
:10844000EFE7C046EC200020B4710200DC200020E1
:10845000B8710200E0200020E4200020E820002085
:10846000DC210020CC20002070B50B4C200000F057
:1084700049F80A4D0A492A0020000DF02DFF094C49
:10848000032302220821200002F01AFB2A000649D9
:1084900020000DF021FF70BDEC2000200020002006
:1084A000AD840100CC2000205D2D0200D623144AAB
:1084B0009B0010B5C2501C330400C0180AF073FEB4
:1084C000DC239B00E0180AF06EFE20009130FF30A4
:1084D00001F016FB20006930FF3001F011FB200095
:1084E000F03001F085FE2000D03002F0D3F92000FA
:1084F000643007F0C7FC201DFFF742FE200010BDCE
:10850000C86B02001423F0B5040097B00093192241
:108510001821043002F056FC2200250026006432A7
:10852000B435132110001492B83607F0B7FC2800B8
:108530000CF05BF800221E2130000BF0E3FC200061
:10854000D03002F0C7F92200F03215920621494AD4
:10855000159801F071FE20000027012369301A00F0
:1085600000971121FF3001F0D7FA200091300097D9
:10857000012302221A21FF3001F0CEFA2000B93087
:108580001A2301210222FF3002F062FA300001F0CA
:10859000D5F8E4225200A050300001F011FBE62390
:1085A0005B00E0500100E42220005200D130159B16
:1085B000A2580095FF3001F04FFD2000E130290066
:1085C0001C22FF3002F096FD232320001293013B72
:1085D0001193013B1093083B0F93013B0E93013B1A
:1085E0000D93013B0C93013B0B93013B0A93013B21
:1085F0000993013B0893013B0793013B0693013B21
:108600000593013B0493013B0393013B0293013B20
:108610000193F930013B082200930721013BFF3011
:108620000BF091FCD6239B00E018290003F078FDA5
:10863000DF239B00E0181D2102F010FBE9239B00C3
:10864000E7501498277003210DF056FB23002200F9
:10865000200009499C33A0321C6011605760074A12
:1086600080305A610221012208F0AEF8200017B0D4
:10867000F0BDC04644670200932D02007D2D02002C
:108680000123F0B506788FB004001E4000D082E0D0
:108690000300D0331800039300F0EEFA00F0E6F97F
:1086A00028200DF024FE050010300AF00DFE6C4B62
:1086B00018202B600DF01BFE07006A4B0460082297
:1086C00031000C300C930D960DF060FE0CA9381D96
:1086D00008220DF03FFE644BAF607B611223EE6019
:1086E000AB802E626E622900039802F067F80028C2
:1086F00005D028000AF00DFD28000DF0F4FD01233F
:1087000022785A49134323702300B4331800059389
:108710000BF071FF5649049005980BF06CFF002593
:108720000690642000F0C6FB2F002E002300693362
:10873000FF33180007930AF0D9FF00282DD1049BBE
:10874000002B33D1069B002B30D1E92549494A48FB
:10875000AD0000F08FFC6359002B1CD100F09AF89B
:1087600001000AA800F0D8FD0BA80AF085FBD6236B
:108770009B00E018069B0BAA0AA90093039B03F039
:1087800025FD0BA80AF00FFD0AA80AF00CFDD8235E
:108790009B00E35863510FB0F0BD20009130FF30D3
:1087A0000AF0A4FF0028CAD0182EC8DC20006530CB
:1087B00039B22AB2FF23FF30013700F02BFEFFB29F
:1087C000322000F077FB0136052F02D1002701355A
:1087D000EDB2049B192E06D0002BA7D02349059893
:1087E00002F01CFC01E0002BF8D104980DF07BFD99
:1087F00006980DF078FD1F491F4800F03BFCD6237A
:108800009B00E3180893E9239B00E3580993002B8E
:108810001ED100F03FF801000AA800F07DFD0BA872
:108820000AF02AFB01230BAA0AA900930898039BCC
:1088300003F0CCFC0BA80AF0B6FC0AA80AF0B3FCC3
:10884000D8239B00E3580993E923099A9B00E2503F
:108850002100079AF031089803F0B2FE66E7C0469F
:10886000FD030000052E0200C52D02000372020068
:108870000E72020000200020001C0020BFF34F8F6A
:10888000024B034ADA60BFF34F8FFEE700ED00E0D2
:108890000400FA05F0B58DB005AF1922154938006E
:1088A0000DF058FD0022144B05245A718022520508
:1088B000566E012225000194029203930199300023
:1088C00008F074F90800029908F0EAF8019B03998E
:1088D0006B430193029B361A6B430293631E2C1B5E
:1088E0006C433C19225C1C1ECA54E7D108000DB031
:1088F000F0BDC0461E72020016280020F0B597B0E9
:1089000018220021060010A80DF040FD132110A828
:108910000DF031FB032110A80DF0FCFB4C4B1B6844
:10892000002B00D10133DBB202934A4A012300211C
:108930000BA807F083FE484B9E4200D9002672B672
:10894000464B64211D68464B30000793052408F010
:1089500031F960435030281808900A21300008F09F
:1089600029F90A2108F00CFA61435031691809917C
:1089700030000A2108F004FA8023614300245031BA
:1089800069189B010A910193029B002B5DD0002581
:1089900000272E1F07AB9B190593032C03D18023BF
:1089A00000249B01019307AB5B592E4A039363009C
:1089B000D31804930023190006205843049A16186C
:1089C0007678B4466246039EB25C10269446049ABA
:1089D000105C62460641164202D0012098400143D5
:1089E0000133092BE8D1C9431F4B059A09011940EE
:1089F0001268039B934225D1312F23DC00210BA861
:108A00000DF049FCFA23159A1199DB001068014218
:108A10001BD0013B002BF9D1019B01345B0001937A
:108A2000FA230137E4B25B009F42B6D10435102D22
:108A3000AED1074B1B68002BA6D0029F013FFBB2B3
:108A40000293A1E7019B1943D9E7FFF717FFC0463F
:108A500098240020F0FF0000E7030000042000201D
:108A60006D72020037720200F01F0000F8B500239B
:108A7000124C23600AF021FA002808D004212000BB
:108A80000AF017FA002801D00D4B2360F8BD01222F
:108A9000A12704250B4B0C491A602268FF0048608F
:108AA0004E68002EFCD0DE591202013D3243002DEB
:108AB000F5D1226001225A60E8E7C04694240020E4
:108AC000ED5EBC0B00D00040FCD00040F0B585B09E
:108AD0001F000AAB1B880600029115000393002FAC
:108AE0001BD028200DF003FC6B4604001989039B62
:108AF000AAB200933B000AF0F5FA336821005B68E4
:108B000030009847002806D020000AF002FB200021
:108B10000DF0E9FB024805B0F0BD0248FBE7C04696
:108B200016FCFFFF17FCFFFF0B4B70B51C68002CF9
:108B300010D0656D00F0ACFBA36C002901D183421D
:108B400006D820000AF0ECF9044920000AF0D6F912
:108B50002C00ECE770BDC046A0240020C0240020FB
:108B6000F0B593B007932A4B04AC1E6804900591AE
:108B70000692002E4AD0274B258867881C68002360
:108B80000293002C2ED0636D23480393A36C9AB2FA
:108B9000A36C1B0C99B2854214D12048824211D19A
:108BA000002B01D0B9420BD1029B002B08D1200031
:108BB0000AF0B6F91A4920000AF0A0F9012302933D
:108BC000039CDEE7002A01D09542F9D1002B01D0A9
:108BD000B942F5D120000AF0A3F9114920000AF0AA
:108BE0008DF9EDE70F4BEB18012B0FD910233A004D
:108BF000009329000C4B08A80AF074FA336808A9FE
:108C00009B683000984708A80AF083FA13B0F0BDBB
:108C10009C240020CC240020FE030000FF03000061
:108C2000C024002002FCFFFF618B010010B572B66A
:108C30000B4B1C68002C08D020000AF071F90023AF
:108C4000E364084B2000E36310BD62B65C200DF0C6
:108C50004EFB5C22002104000DF098FBEFE7C046BC
:108C6000C424002000400020024B18780123184043
:108C70007047C0461C280020F7B50600FFF7F4FF38
:108C8000051E33D11A4C2660FFF7D0FF194B1A4945
:108C900018600AF033F9FFF7C9FF184B1860184B3A
:108CA0004363184B8363206800280ED0C027164EFC
:108CB0002A00330015490097FFF708FF009733009B
:108CC0002A0013492068FFF701FF0C200DF00FFB6D
:108CD0000023838083710F4B03600F4B836000F090
:108CE000EFFA01230D4A11780B431370F7BDC0460C
:108CF0009C240020D0240020C0240020C824002070
:108D0000FC3F0020E72F0200618B0100FF03000001
:108D1000FE03000064670200298B01001C2800206C
:108D2000F7B506000D0017000193002802D10024BA
:108D30002000FEBD0029FAD0FFF778FF041EF6D010
:108D4000074B019A4363066045608760054B002A24
:108D500000D0054BA363054920000AF0CFF8E7E7F0
:108D6000FC3F0020B12F0200CF2F0200C0240020C2
:108D7000024B1868434258417047C046C024002047
:108D8000002310B504499C006258002A01D0013329
:108D9000F9E76050100010BDA8240020002310B592
:108DA000044A99008C58844201D00133F9E700202D
:108DB000885010BDA824002010B50024084BA20044
:108DC000D058002802D003685B6898470134062C0D
:108DD000F4D1044B1B68002B00D120BF10BDC0464E
:108DE000A8240020C0240020F8B5FFF73DFF00288C
:108DF0001CD02A4D2C68E36CDA0718D502273B43B8
:108E0000E364274B1E680423F26C30001343F364C1
:108E1000636BF3630AF0AAF83000716C03F0C5FFCE
:108E20002868C36C3B4201D003F0F9FFF8BD1D4F29
:108E30001D4E3A683168002A1ED129602A68914285
:108E400008D11B0706D52C60FFF7B6FF3B68002B47
:108E5000FAD02B6029688C42E8D03368994214D14B
:108E6000124B4B63124B8B6320000AF07FF829688A
:108E7000626C4B6C20000DE0206DB84203D1606D38
:108E8000002800D002002A60D8E79C42ECD10022E2
:108E900010004B6C03F048FFC8E7C046D024002008
:108EA000A4240020C0240020C8240020FC3F00206F
:108EB000E72F020070B50500FFF7D6FE002803D1AA
:108EC00028000DF01BF970BD0C4B1C68E36CDB0730
:108ED00006D5FFF7ABFE0A4B1860002800D004004F
:108EE00000F0D6F92D18A56420000AF019F80549FC
:108EF00020000AF003F8FFF777FFE4E7D024002012
:108F0000A4240020A0240020F0B51E4B1E4F1C6896
:108F10003B6885B006000391002B30D0FFF7A4FE1C
:108F200000282CD0E36CDB070ED5FFF77FFE174B34
:108F3000051E186008D009F0F3FF1549280009F054
:108F4000DDFF2C00FFF750FF039B20001B04334381
:108F5000A36409F0E5FF20000E4909F0CFFF0E4B96
:108F60000024F318012B07D9C0230093039A0B4B5D
:108F700031003868FFF7AAFD200005B0F0BD084CAD
:108F8000FAE7C046D02400209C240020A42400201E
:108F9000C0240020CC24002002FCFFFF618B0100D4
:108FA00016FCFFFF10B5FFF75FFE002809D0054C47
:108FB000206809F0B5FF0449206809F09FFFFFF71A
:108FC00013FF10BDD0240020C4240020F7B50700F3
:108FD0000D0000282ED0FFF747FE00282CD00724D4
:108FE000164E3068C36C1C4007D0154A2900380063
:108FF00009F0ADFF00242000FEBD03F0F8FE0221C1
:109000003268D36C1940019103D003218B43D364A0
:10901000F1E701242343D3642800B8473268D36CB6
:109020001900A143D164019C5B07E4D5280009F035
:10903000C6FFE0E7034CDEE7034CDCE7D02400206A
:10904000BF2F020017FCFFFF16FCFFFF020010B548
:10905000014B12CB12C210BDD4240020034B1A685E
:10906000034B1A607E225A607047C04604200020DD
:10907000D424002070B5114E3278022A1AD08142D1
:109080001AD90C1A072C17D90D00032305432B40BE
:1090900012D172B60A4DD2005051AA1851608022E6
:1090A000A40812061443046032780132327062B6AA
:1090B000180070BD0348FCE70348FAE71E280020AB
:1090C000DC24002013FCFFFF17FCFFFF70B5134CDE
:1090D00006002378124D002B0CD1124912482B7038
:1090E000FFF7C8FF114B984202D11E20FFF706FC84
:1090F0000123237000242B78A34209DD0C49E300EF
:10910000C918300009F075FF002805D10134F2E7D5
:109110001420FFF7F3FB002070BDC0461D2800207F
:109120001E28002000380020E828002017FCFFFF40
:10913000DC24002070B5002819D0104B10491C7891
:1091400000239C4216DDDA005558854210D28A1859
:10915000526882420CD9041F2368002B02DC1E20B7
:10916000FFF7CCFB802322681B061343236070BDEE
:109170000133E6E71E20FFF7C1FBF8E71E280020B9
:10918000DC24002070B5051E14DD0B4E0B4C33683B
:10919000002B02D020680CF02CFEFA21206800245D
:1091A000074B89008361C462694335600CF029FE76
:1091B000200070BD0348FCE7EC2400201C250020A3
:1091C0006D92010017FCFFFFF8B5114F06003D68D6
:1091D000002D0AD130200DF08AF8040006F082FE3E
:1091E0000C4BA5612360E5623C600B4D2B68002BA6
:1091F00009D110200DF07BF804000CF0C3FD200015
:109200002C600CF099FD3000FFF7BCFFF8BDC046A4
:109210001C250020646F020018250020014B1868EF
:109220007047C046EC24002070B50D4C2368002B1D
:1092300003D00C4B1B68002B02D10620FFF7C4FFA4
:1092400020680CF090FD02000749C3170D684E68B6
:109250005219734120680A604B600CF08AFD70BDA2
:10926000182500201C250020A820002010B5FFF79D
:10927000DBFF0024054BA200D058002802D0036871
:109280001B68984701340A2CF4D110BDF02400204B
:1092900010B5FFF7C9FFFA22034B9200186859680E
:1092A000002307F0ADFD10BDA820002010B5FFF78A
:1092B000BBFF024B1868596810BDC046A8200020AB
:1092C0000B4B10B51B680400002B03D0094B1B6827
:1092D000002B02D10620FFF777FF0023064A9900F2
:1092E0008858002801D00133F9E78C5010BDC046E2
:1092F000182500201C250020F0240020002310B594
:10930000044A99008C58844201D00133F9E70020C7
:10931000885010BDF024002010B50400002902D0B0
:109320000B78002B03D1034B2360200010BD09F004
:1093300041FFFAE774670200F8B504000E0015005B
:1093400000290AD00B78002B07D0002A05D008008E
:1093500097B20DF05BF8874203D90B4B23602000D6
:10936000F8BD681DFFF7B2FE20600AF0C7F8236859
:109370002A005F8023683100181D0CF0EBFF236882
:109380005D1900232B71EAE774670200014B03604B
:109390007047C0467467020010B50548054C206050
:1093A0000AF0AFF8044A054920000CF095FF10BD03
:1093B000746702002025002000200020A731020051
:1093C000084B73B51C680500002C0AD00100266804
:1093D0000831082268460CF0BDFF0CCD3168200032
:1093E000884773BD24250020014B03607047C046A9
:1093F0007C67020010B50400002903D1044B036010
:10940000200010BD016008000AF07BF8F8E7C046B4
:109410007C67020030B500684488A1420CDA858878
:10942000AA4209DA002907DB002A05DB5443401869
:1094300000198371002030BD0048FCE717FCFFFFD6
:10944000F0B5070085B00E001D00002921DD002ABF
:109450001FDD002B1DD00468638803938B4200DD61
:109460000391A3880293934200DD02920023063405
:109470000193019B029A93420EDA29002000039A7D
:109480000CF068FF3B68AD195B88E418019B013361
:10949000EEE7024805B0F0BD0020FBE717FCFFFF38
:1094A000F8B504000D0016001F00002901DB002A9A
:1094B00002DA0E4B2360F8BD100048430630FFF778
:1094C00005FE20600AF01AF823685D8023689E80FC
:1094D000002F06D03B00320029002000FFF7B0FF2C
:1094E000E9E7200009F041FFE5E7C0467C6702009C
:1094F000F7B506000D1E03D1244B03603000FEBDFE
:1095000000200F000400010001903B78002B1AD0CE
:109510003022524294469C446246092A11D90A2BB1
:109520000AD1019B241801330193A14200DA2100E2
:10953000002004000137E8E70028FBD001340020B8
:10954000F8E70120F6E76A460127928809B212B2CD
:1095500030007F42FFF7A4FF39000A2033689A1DCC
:109560002C78002CCAD02300303B092B08D8FB43B1
:10957000DB173B4043431B19303B1F000135EFE72E
:10958000002FFBDB177001320F00F7E77C6702004A
:10959000F0B5040089B006A80E0002921D00FFF786
:1095A00055FD236802995A88914235DA9B889D427D
:1095B00032DA1F2E30D9079B01939E422CDC052303
:1095C000002273430393069B0493039B04999B1807
:1095D000A03BCB5C00210593AE18029BCF182368FB
:1095E0005888019087420EDA9888B0420BDDDB196B
:1095F00010270F41019870431B1805980740781EEB
:1096000087417F429F7101310529E6D10132052A48
:10961000DBD1002009B0F0BD0048FBE717FCFFFFDD
:10962000F7B50468070063880E1E01931EDD99429A
:1096300018DA0023063400933B68009A9B889A420C
:1096400012DA019BA1199D1B2A0020000CF082FE5A
:109650006019310009F06CFE3B685B88E418009BE0
:109660000133E8E709F081FE002000E00048FEBD7C
:1096700017FCFFFF10B50548054C206009F041FFBD
:10968000044A054920000CF027FE10BD7C6702004B
:1096900028250020002000202333020010B5054CAF
:1096A0000121200009F021FF034A044920000CF0A9
:1096B00013FE10BD2C25002000200020A73402003E
:1096C0000388074A10B50120934208D0834202D094
:1096D0000020DB0703D41E20FFF710F9002010BD87
:1096E000FFFF00000048704716FCFFFF10B5124C4A
:1096F00000230834828004604162022414220100A5
:109700008371847203638386028136310A78C36071
:10971000A243F1342240036143618361C361036268
:109720000A70020040321370021DD3870133438751
:109730008387C38710BDC0469C670200F0B5514FB8
:1097400097B03B6806000593002B3FD106AC0B3366
:109750001C222121200001F0B3F90EAD0B231D22A4
:1097600022210AA801F0ACF90B231B222321280097
:1097700001F0A6F908200CF0BAFD0122059B1100AA
:1097800004900BF063FA3A2130000AF0B9FF002888
:1097900027D0A38812ADAB80A3795C20AB713A4B84
:1097A0001293A3681493237B2B73637B6B73A37B4C
:1097B000AB730CF09CFD04230193363300932A0015
:1097C000049B3100040001F099FF3C602F4B2D4CAD
:1097D0001868002802D0216809F0F6FF206817B049
:1097E000F0BD322130000AF0B9FF00281CD0A38858
:1097F00012ADAB80A3795C20AB71234B1293A368AD
:109800001493237B2B73637B6B73A37BAB730CF081
:109810006EFD042301932E3300932A00049B310034
:10982000040002F009F9D0E73C2130000AF051FFB2
:10983000002822D0AB8812ACA380AB79A420A371FE
:10984000114B1293AB6814932B7B23736B7B637365
:10985000AB7BA3730CF04BFD052305000293013B8A
:109860000193383300932200049B310001F064FE21
:10987000064B3D6044351D60A8E73220FFF73EF8F7
:10988000A4E7C046302500208C6702003425002064
:10989000F0B56149C56885B08D4254DA03000222F3
:1098A00036331B78134059D104698C4264DA0200C4
:1098B00036321278520768D4426901920200019E42
:1098C00040328E426FDA010036310978090774D4CC
:1098D000002B7DD113780293002B16D006000127B0
:1098E000011DCB8F363601339BB2CB87039636787A
:1098F000BC46374000D188E01D2B06D963469E4305
:10990000039B1E700023CB87137009F03DFE434A72
:109910000723904276D94249043B8D4272DBC8222C
:109920000133920095426DDC023B8C426ADB013BC5
:10993000944267DC01980433884263DB0133904230
:1099400060DC00235EE0C822002352009542ABDDBC
:10995000030036331A7800239207A5D401230600AA
:109960001F00363632785408A7433C0002279C403B
:10997000BA432243327097E7C822520094429BDDDB
:10998000020036321278520796D40600012236368B
:1099900033789F08BA439700042293431A003A434E
:1099A0003270012388E7C821019E49008E428FDD75
:1099B00001003631097809078AD4010001263631C1
:1099C0000B78DF08BE430827F600BB4333430B7018
:1099D0001378032B00D97DE70133DBB21370012B21
:1099E00003D10021031DD98774E7042B00D071E750
:1099F000020036321178033B0B431370002304300E
:109A0000C3870B33180005B0F0BD092B00D87CE7E5
:109A1000029BCF87013B77E770FEFFFFFF700200DC
:109A2000E0FCFFFF70B5C369C1681A68451D8AB0C4
:109A30000400EB7F114255D0002B58D1EB7F082B4F
:109A40000DD90122A379134209D11343A371A1882F
:109A5000130006A809F042FCFFF71AFC2062EB7F16
:109A6000012B23D80123A2791A421FD00025A188F7
:109A7000A571022202A809F031FCA31DDE7F012E90
:109A800014D1FFF705FC2B00226A801A994100903F
:109A90000191019BA188AB4203D1174B009A9A42D6
:109AA00027D90123042206A809F018FC0322A37970
:109AB0001340012B14D1FFF7EBFB0023226A801A1D
:109AC0009941994202D10D4B984209D90223A279BA
:109AD000A1881343A3710522012306A809F0FEFB08
:109AE0000AB070BD0B2BA9D80133EB77A6E7013B79
:109AF000FBE733000322D6E7E7030000DB050000A5
:109B000010B50400034B08330360FFF7F7FB200098
:109B100010BDC046D0670200F0B5070000250E005A
:109B200085B002930AAB1B7808370393104B0400EF
:109B3000083303600192858085712900182238005E
:109B40000CF024FC039A310038000CF019FA6B4633
:109B50006A469B88127AA380A31DE671DA77631D9B
:109B600025622000DD77FFF7ABFB200005B0F0BDDC
:109B7000D06702000048704716FCFFFF002310B5B5
:109B80000400838083710D482164083020608020A8
:109B9000C000A061E0612062E36020002361636196
:109BA0006362A362E36223636363A363E363636447
:109BB000110009F0E1FD200010BDC046E867020079
:109BC000F0B5504F97B03B6806000593002B3FD18E
:109BD0000B331C22212106A80AAC00F071FF0EAD48
:109BE0000B231D222221200000F06AFF0B231B22E1
:109BF0002321280000F064FF08200CF078FB0122EC
:109C0000059B110004900BF021F81D2130000AF093
:109C10008EFD002825D0A38812ADAB80A3796020EB
:109C2000AB71394B1293A3681493237B2B73637B23
:109C30006B73A37BAB730CF05AFB052301931833B2
:109C400000932A00049B3100040001F02BFE3C60CD
:109C50002E4B2C4A1B681068002B00D0436417B0B1
:109C6000F0BD3C2130000AF090FD00281CD0A388F4
:109C700012ADAB80A3796020AB71234B1293A36824
:109C80001493237B2B73637B6B73A37BAB730CF0FD
:109C90002EFB05230193373300932A00049B3100E8
:109CA000040001F06BFFD2E73C2130000AF011FD07
:109CB000002822D0AB8812ACA380AB79A420A3717A
:109CC000114B1293AB6814932B7B23736B7B6373E1
:109CD000AB7BA3730CF00BFB052305000293013B48
:109CE0000193383300932200049B310001F024FCDF
:109CF000064B1D6044353D60AAE73320FEF7FEFDAC
:109D0000A6E7C046342500208C67020030250020DD
:109D100082B0F0B50400EDB06420739372920CF041
:109D2000EDF9052210A8110009F028FB974911A8A8
:109D3000FFF7DEFB002221AB6CA91A605A609A6023
:109D40000C339942F9D11922002113A80CF01EFB03
:109D5000A0680AF0D0F800260B90FF21A06800F060
:109D600093FC8B4FA06800F05FFB07960996884B29
:109D70009F4203D0874B9F4200DBFDE0A0680AF0C2
:109D8000BCF8A56884491AA8FFF7C6FA78221AA970
:109D9000280000F0E7FB1AA809F005FA00267C4F1E
:109DA0000322099B606801331A40099209F084FC80
:109DB0000500606809F087FC0022784B05929D42FF
:109DC00010DB013205922A00C8320BDBAA220421E3
:109DD00092000591954205DC02220592C82D01DD15
:109DE0000132059200220692984210DB012306936D
:109DF0000300C8330BDBAA2304329B00069298426F
:109E000005DC02230693C82801DD0133069310A860
:109E100009F0ABFA002513ABEB5C012B08D16049CC
:109E20006B00CA185278C95C10A8FF23FFF7F2FA3A
:109E30000135192DEFD16B4618229A5E6B4610A89A
:109E40001421595E099BFFF7E5FA002F01DB0F2E65
:109E500007D90023A068009374301A0010A909F0F4
:109E60009AFA01230893089B05995A004C4B9B18BA
:109E70009A1E12788A4226D1013B1B78069A934299
:109E800021D1089A6CAB9B18663BFF3B0A931B7869
:109E9000012B18D00C23079A216853431D00002280
:109EA0000CA809F093FC21AA2B0094460CAA634449
:109EB00023CA23C301220A9B01361A70079BF6B2FC
:109EC0000133DBB20793089B013308931A2BCAD1E5
:109ED00064200CF013F9079B643F3FB2182B00D8A5
:109EE00045E71A0021A91AA809F07EFE6A461DABB3
:109EF00023CB23C21B6813601A991B9A1C9B2068F2
:109F000009F04CFCE568002D0CD0264912A8FFF79B
:109F100003FA1C231AAA12A928000AF0A5FB12A80A
:109F200009F041F9A06809F0E8FF11A912A8A56895
:109F300009F004FA00221C4B009212A90193280098
:109F4000130000F0B3FA12A809F0EBF9FA20800030
:109F50000CF0D4F8A06809F0D0FF0B99A06800F0CD
:109F600093FB11A809F0DDF910A809F0DAF96DB03A
:109F7000F0BC08BC02B01847002F02D00F2E00D052
:109F80000EE7A06800F050FA0AE7C0464D740200E0
:109F90008C3C0000D18AFFFF9274020058FDFFFF45
:109FA000B2740200A7740200DC050000F0B587B0AF
:109FB00001930EAB1B88060003930D9B0D000093CD
:109FC000019B02920C9F002B3DD0002F02D1009BE1
:109FD000DB0738D528200CF08AF90400103009F08E
:109FE00073F96B461B891820258063800CF07FF97C
:109FF0000500009B08220593019B002103600C30A3
:10A0000004970CF0C3F9082204A9281D0CF0A2F94A
:10A010000E4B02226B6100230399E36023626362AB
:10A0200033680A43A560A2805B682100300098472E
:10A03000002806D0200009F06CF820000CF053F93D
:10A04000034807B0F0BD0348FBE7C0460D380200E7
:10A0500016FCFFFF17FCFFFF70B58CB08360109BF0
:10A0600001604260C3600400184918000AF0C3FA96
:10A07000051E14D001001C22103105A80CF06AF94D
:10A080006A4608AB43CB43C21B681360206805993E
:10A09000069A079B09F082FB28000CF024F90C4B70
:10A0A000186800280ED00B4A05AB059200220692D4
:10A0B000C03202926A4622CB22C22300032205212B
:10A0C000FFF774FF20000CB070BDC046A7740200FB
:10A0D00024250020119D0100F0B5040085B0637AAD
:10A0E0009C46002B04D1200009F09CFD05B0F0BD7A
:10A0F000A37A266F01931023019AF35600259B182B
:10A1000001229A402900F36803920293029BAB421A
:10A1100031DDB368019A6B439B1872695B00E77A83
:10A12000D3181A785878E379012F14D15F1E3F1A9B
:10A1300010003A005B004343606F8218D3189B798C
:10A14000634500DD6346627B1A4202D00123AB40C7
:10A1500019430135DAE7022F05D15F1EBA1A277AB3
:10A16000013F381AE6E7032FE4D1277A013FBF1AEF
:10A1700002003800DEE71123C943F356606C9940B2
:10A1800023691940039B19430CF085F8A27B072A29
:10A19000ACD8637B0C495B006373531CDBB290004B
:10A1A0004158A373022A03D808000BF09CFF96E7DE
:10A1B000064B2000236300236363054BE4622364A2
:10A1C00014300BF01EFE91E714680200D9A00100C4
:10A1D0000F3C020010B50400044B03600BF009FEB5
:10A1E000200005F095FE200010BDC046646F0200FF
:10A1F00010B504000E4B08330360FFF77FF8200012
:10A20000743009F08EF82000603009F08AF82000E0
:10A21000583008F0C8FF2000503008F0C4FF20007C
:10A22000044B14306361FFF7D5FF200010BDC0461A
:10A2300034680200986F0200F8B500250400324B24
:10A240008580083303608571143016000F0005F017
:10A2500049FE20002D4BE562636125645030FFF715
:10A2600095F820005830FFF791F820006030FFF794
:10A27000BBF820000423F25E33682667590009B258
:10A28000743009F07BF83368226FE371736801263C
:10A29000237210236581A7802561D35691685918D0
:10A2A000994204DD3000984001330543F8E711235B
:10A2B0000120D356D1685918994206DD02009A4010
:10A2C0002669013332432261F6E714200CF00FF8BF
:10A2D000226900212A430123060006F0AFF9FF237B
:10A2E000220063720133A381002348326664A373A2
:10A2F00020001370A366FEF7E3FF0123A27920007C
:10A300001343A371F8BDC04634680200986F020081
:10A31000F0B5437A85B00400002B04D1200009F089
:10A3200081FC05B0F0BD0122837A11009C46102308
:10A33000066F0025F3560392634499400291290069
:10A34000F3680193019BAB422CDDB36872696B43E8
:10A3500063445B00E77AD3181A785878E379012FC1
:10A3600010D15F1E3F1A10003A005B004343606F3C
:10A370008218D3189B79002B02D0039BAB40194362
:10A380000135DFE7022F05D15F1EBA1A277A013F98
:10A39000381AEAE7032FE8D1277A013FBF1A0200F3
:10A3A0003800E2E71123C943F356606C99402369F2
:10A3B0001940029B19430BF06EFF667AB31EDBB2A5
:10A3C000FC2B14D8FEF72AFF0B4B05002363002358
:10A3D0000A4863630A4BFF21E4622364704306F07A
:10A3E000E9FB29004143200014300BF00AFD637A99
:10A3F000012B00D995E791E7253C0200B603000048
:10A400000F3C02001FB5012381881A00684608F03E
:10A4100065FF012303491A00684608F05FFF05B095
:10A4200000BDC046FE0300001FB5030048331A7884
:10A430000400002A0DD000221A70012381881A001E
:10A44000684608F04BFF012304491A00684608F0EB
:10A4500045FF2000743008F088FF1FBDFF03000097
:10A4600010B548300378002B06D00378012B03D0B9
:10A470000121024808F093FD10BDC046FF03000013
:10A4800010B501210400062008F089FD064B984212
:10A4900008D148342378002B04D02378012B01D035
:10A4A00020BFF7E710BDC04616FCFFFF73B5079C41
:10A4B0000500002C1CDB060048363078002802D04E
:10A4C0003078012816D106981BB2C0B2009028003F
:10A4D00012B2743008F05FFF002C07D02B004A3313
:10A4E0001C80002407234C352C803370200076BD5F
:10A4F000014CFBE7014CF9E717FCFFFF12FCFFFFE3
:10A50000F0B587B00D9C06000F0002920393002C5B
:10A5100020DBFFF7A5FF330048331D78EDB2002D97
:10A520001AD1390005A808F009FF0C9B019400938B
:10A53000029A039B05A93000FFF7B8FF05A808F0B1
:10A54000F0FE002C03D03000FFF79AFF2C00200013
:10A5500007B0F0BD014CFAE7014CF8E717FCFFFF2C
:10A5600011FCFFFFF8B50400171E1DDD060048367C
:10A570003378002B02D03378012B17D12200E379F6
:10A580005632013B137023000025200054331D80F8
:10A59000503008F067FE23004A331F800223280052
:10A5A0004C3425803370F8BD0148FCE70148FAE7D8
:10A5B00017FCFFFF12FCFFFFF8B50400171E2DDD8E
:10A5C000060048363278002A02D03278012A27D194
:10A5D0005D42069BFF331FD16B1D22001BB264320C
:10A5E00013802300200066331D70603008F0AEFE3B
:10A5F000230000226C331A70954200D03D002300E6
:10A600004A331D80079B00205A1E9341013F4C3462
:10A61000053327803370F8BD069BDEE70148FAE773
:10A620000148F8E717FCFFFF12FCFFFFF0B587B009
:10A6300005000F00161E03931EDDFFF711FF2B0010
:10A6400048331C78E4B2002C18D1390005A808F072
:10A6500075FE0D9B320001930C9B05A90093280009
:10A66000039BFFF7A9FF05A808F05BFE2800FFF792
:10A6700007FF200007B0F0BD0148FBE70148F9E7FC
:10A6800017FCFFFF11FCFFFFFF2902D841720020D9
:10A6900070470148FCE7C04617FCFFFF13B50400F4
:10A6A00004A80078009020000BF0D1FB002801D115
:10A6B000207516BD0048FCE70EFCFFFF13B5040033
:10A6C00004A80078009020000BF0A9FB002801D11D
:10A6D000207516BD0048FCE70EFCFFFF7FB50D009E
:10A6E00011000F226A4404001E1E117016D0089B30
:10A6F000002B13DD012329000093FFF7DFFF002863
:10A7000002D0074804B070BD0090089B32002900B9
:10A710002000FFF7C3FF0028F4D0F2E70148F1E77B
:10A720000EFCFFFF17FCFFFFF7B507000D1E3FD023
:10A730000023022604690193002C35D0AA88A3883F
:10A740005340334204D1324204D1AB88334226D045
:10A75000646AF1E7A968A0680AF05DFA0028F4D0FD
:10A760002B88002B02D022889A42F1D16B88002BD3
:10A7700002D062889A42EBD1EB68E268934201D042
:10A78000002BE5D17B68002B01D020009847A288E0
:10A79000084B1343A380019B01330193D8E7A368BF
:10A7A000AA689342D4D1DBE7019B2000002B00DC98
:10A7B0000148FEBD0080FFFF17FCFFFFF0B506005B
:10A7C00085B00D1E5DD001270469002C26D0022122
:10A7D000AA8800230A4202D0A3885B083B40226873
:10A7E00029688A4214D1A068A968002B0ED00AF00B
:10A7F00012FA00280CD0EB68E268934208D1A388D3
:10A800001AB2002A06DB204805B0F0BD8842F2D01B
:10A81000646ADAE75B045B0CA380F4E730692A889A
:10A82000002807D1356101231849684608F056FD14
:10A830000020E9E7010003001C88944206D25C6A0C
:10A840001900002C0DD02300F6E723001C88944249
:10A8500007D15F886C88A74203D85C6A1900002C76
:10A86000F3D1884209D10B889A4204D305D1488894
:10A870006B88984201D96962D4E74B6A6B624D627A
:10A88000D1E70348C0E7C04616FCFFFFFD03000008
:10A8900017FCFFFF064B10B51A00040008322C33DA
:10A8A000026083600830FEF779FA200010BDC046D0
:10A8B0004C68020008B4024B9C46083808BC60474C
:10A8C00095A8010008B4024B9C46083808BC6047B4
:10A8D0009D4002000C4A002311002C32083110B5B3
:10A8E0004360838183738260036143618361C383B7
:10A8F000016004000830FEF743FA044B1A68002A8E
:10A9000000D11C60200010BD4C68020024250020EE
:10A91000F7B50E00012504690192002C36D023887A
:10A9200032889A4201D0002B23D1638872889A42E0
:10A9300001D0002B1DD1FEF797F90123002806D086
:10A94000C022A3881340C03B5A425341DBB2019A54
:10A95000934219D1A7883BB2002B15DB102231009E
:10A96000A0180BF0F7FC40231F4204D0200009F090
:10A970009EFB646AD1E7FEF777F90028F6D0210044
:10A980000348FEF723FBF4E70025F2E72800FEBDAD
:10A99000AF40020008B4024B9C46083808BC604730
:10A9A00037420200F0B587B001930EAB1B8806005A
:10A9B00003930D9B0D000093019B02920C9F002BB3
:10A9C0003DD0002F02D1009BDB0738D528200BF0AB
:10A9D0008EFC0400103008F077FC6B461B891820B1
:10A9E000258063800BF083FC0500009B0822059303
:10A9F000019B002103600C3004970BF0C7FC082278
:10AA000004A9281D0BF0A6FC0E4B02226B6100234B
:10AA10000399E3602362636233680A43A560A280FE
:10AA20005B68210030009847002806D0200008F01D
:10AA300070FB20000BF057FC034807B0F0BD034843
:10AA4000FBE7C0467142020016FCFFFF17FCFFFF48
:10AA5000F0B50400160000258380164A164B857158
:10AA60000260218146810573186889B08C46A8422E
:10AA70001DD0124A05950492C02202926A4604AB88
:10AA800082CB82C223002A006146FFF78BFFC022DF
:10AA9000094B0A49186802926A46069106AB079567
:10AAA00082CB82C223002A003100FFF77BFF200007
:10AAB00009B0F0BD90680200242500209B430200ED
:10AAC00030B5002403730123034D84710560818038
:10AAD00082734373846030BD8C67020070B58379E4
:10AAE0000400DB0702D580680BF0FDFBA3799B0710
:10AAF00002D5A0680BF0F7FBA3795B0707D5A0236D
:10AB00000021144ADB00D150A0680BF0ECFBA379C4
:10AB10001B0708D5A568002D05D028000AF0ECF821
:10AB200028000BF0E0FBA379DB0605D5A068002820
:10AB300002D00368DB6898476023A2791A4205D0E7
:10AB4000A068002802D003685B6898470023A360D0
:10AB5000A37170BD00700040F7B50227037B0400AD
:10AB60000D003B4226D0012926D886793E4000962A
:10AB700014D1FFF7B3FF18200BF0B9FB0E2306002A
:10AB8000E3561822009901930BF000FC0199300064
:10AB90000BF008FAA379A6603B43A371A3685A6837
:10ABA000002D04D00025DB681A602800FEBD1B695B
:10ABB0001A60FAE7014DF8E7014DF6E716FCFFFFD2
:10ABC00017FCFFFFF7B50126037B040033422AD0B0
:10ABD000612385791D4017D1FFF780FF18200BF006
:10ABE00086FB0E230700E35618220093637B29009F
:10ABF00001930BF0CBFB019A009938000BF0C0F9E0
:10AC0000A379A7603343A3716023A279A0681A4295
:10AC100002D00BF06AF8FEBD436940681B6818401B
:10AC2000431E9841F7E70148F5E7C04616FCFFFFD1
:10AC300010B50124837941731C4004D080680BF067
:10AC400069FA002010BD6022134203D080680BF027
:10AC500053F8F6E70048F5E716FCFFFF70B504006F
:10AC600000250C4B0E0008338580857103602100A0
:10AC7000183009F043FC20002100203009F061FC6D
:10AC8000054BA680E5802572E560256165612000A1
:10AC90001C6070BDA0680200382500208379DB07A6
:10ACA00002D5C160002070470048FCE716FCFFFF9A
:10ACB0008379DB0701D5C06870470148FCE7C046CF
:10ACC00016FCFFFF70B545690400002D22D0037A01
:10ACD000032B21D8FFF7ECFFA8622C200BF007FB19
:10ACE0002C22002105000BF051FB002263695A62FF
:10ACF0002369934208D1636923610020237A656147
:10AD00000133237270BD13005A6A002AFBD16269B5
:10AD10005A62F2E70148F5E70148F3E717FCFFFF45
:10AD200013FCFFFF144B70B55A68144C002A03D073
:10AD300000225A600132A2601A69002A17D000214D
:10AD400019618023DB000E4DE3582868012B0FD1D9
:10AD5000A923DB00E1584942FFF7A0FF2868FFF76D
:10AD6000B1FF2B685A69074BE2500123A36070BD05
:10AD7000FFF794FFF9E7C046FC10004000100040C8
:10AD8000382500200405000003000069002809D0D0
:10AD90000221054AD167426A1A611A7A013A1A7287
:10ADA000024B19607047C04604E100E000E100E09A
:10ADB00010B5002903DB024B19600BF098F810BDA9
:10ADC0003C25002070B504001E0004AB1D7805F082
:10ADD000D1F820000E4B40302360FEF7D7FA230055
:10ADE00001364C33013522001E701D730023E12112
:10ADF0004E32A3646365138053809381D381013BFA
:10AE0000200063644902FFF7D3FF200070BDC046F5
:10AE10003C650200F7B580277F053D697C69082203
:10AE2000113C6C430600210068460BF093FA104B6E
:10AE3000009A9A4219D00093002301937969300057
:10AE40001339694309F092FB019A0099300009F027
:10AE5000A5FB2100300009F089FB7969AB081339A3
:10AE600069432200300009F08BFB0198FEBDC0460B
:10AE7000FECA0000F0B50D00A9B00D9200213022ED
:10AE8000060010A80B930BF081FA28000BF0BEFA15
:10AE9000431C0C93102B00D9B5E00B9B202B00D941
:10AEA000B1E02900300009F0A6FB071E50D12900AF
:10AEB0000C9A10A80BF04EFA0D990B9A14A80BF0EF
:10AEC00049FA80235B051A695F690C92113F7A4346
:10AED00030005D690B92FFF79DFF302200210400D6
:10AEE0001CA80BF053FA290000270C9B1339594377
:10AEF000300009F03BFB0D9730257D430B9B083359
:10AF0000ED18A74242DA290030221CA80BF022FAE1
:10AF100010A91CA80BF070FA002827D13C4930007A
:10AF200022000E910F9409F039FB6A46099513AB84
:10AF300023CB23C223CB23C223CB23C23000129BBB
:10AF40001099119A09F038FB01230D930137D3E7CB
:10AF500010300B9A0D990BF0EEF9040038000BF04D
:10AF6000C2F9002CA3D1200029B0F0BD6A46099592
:10AF70001FAB23CB23C223CB23C223CB23C230005E
:10AF80001C991D9A1E9B09F017FBDFE7E543302350
:10AF9000ED1725405D430B9B08355D190D9B002B7C
:10AFA0001DD10C9B3021981E05F07AFDA0422CD0BB
:10AFB00017490134300022000E910F9409F0EEFA87
:10AFC0006A46099513AB23CB23C223CB23C223CBE1
:10AFD00023C230001099119A129B09F0EDFA0B99D7
:10AFE000300009F0C3FA80235B0559690C230C9AE1
:10AFF000133963434A430233110030000B9A09F0BE
:10B00000BFFA0024AFE7034CADE7034CABE7C04603
:10B01000FECA000017FCFFFF13FCFFFF8023F0B502
:10B020005B051A6995B003925A6905910399113A23
:10B0300051435D69039B133D040002915D43FFF79B
:10B04000E9FE061E3BD0002730220021083508A863
:10B0500001950BF09BF90199200009F087FA0497FC
:10B0600030237B43029D0835ED18B7421FDA2900D3
:10B07000302208A80BF06EF9059908A80BF0BCF96E
:10B0800000280AD11949721E20000691079209F082
:10B0900085FA012304930137E2E70C23019A290082
:10B0A000200009F06DFA019B30330193F3E7049B14
:10B0B000002B06D10D493200200009F06FFA0C4830
:10B0C00012E00299200009F051FA80235B055969CA
:10B0D0000C23039A13394A437343110020000233AF
:10B0E000029A09F04DFA002015B0F0BDFECA00002A
:10B0F0000CFCFFFF70B50400A280FA2200230800B8
:10B100000C49920008312160A3716061E260A36084
:10B110006382094909F06FFA051E09D00100200079
:10B120001031022212300BF015F928000BF0DBF879
:10B13000200070BDB8680200E474020030B502253A
:10B14000837987B004002B4204D1FDF719FEA3795F
:10B150001D43A571200009F098FA00281CD06B4609
:10B16000DD1C280009F088FA2B78002B17D001A8E5
:10B1700009F080FA0321019AD3170B409B189B100A
:10B180002382FEF785F8E368A18818180123A060E0
:10B190001A0002A808F0A2F8002007B030BD012272
:10B1A000064B1A60064A51680029FCD00021516004
:10B1B000044A1268019201225A60DBE700C0004095
:10B1C000FCC0004008C50040022802D10122014B0A
:10B1D0001A7070471F28002070B5064C05002378B0
:10B1E000002B04D1044801F0D9FF0123237028006B
:10B1F00070BDC04620280020C9B1010070B50C0008
:10B2000007F05BFE002810D00023144DA40A2B7019
:10B21000200009F04EFA002803D00A200AF06EFF41
:10B22000F6E72B78002BFCD070BD02210C4B0D4AA9
:10B2300099508021C90008005D58002DFCD0A12143
:10B24000C9005C5019580029FCD000219950802178
:10B25000C9005A58002AFCD0E6E7C0461F28002043
:10B2600000E0014004050000F8B50C0015001E00C8
:10B2700007F023FE002811D00023174F3B70320047
:10B280002900200009F013FA002803D00A200AF050
:10B2900035FFF4E73B78002BFCD0F8BD01210F48C7
:10B2A0000F4B844619508021C9005A58002AFCD0FF
:10B2B00080270022FF00964207DD91006858605009
:10B2C000D9590029FCD00132F5E7002261465A50D5
:10B2D000DA59002AFCD0E0E71F280020040500000E
:10B2E00000E0014008B4024B9C46443808BC60476B
:10B2F000B7460200FA21F8B50389C9000400594392
:10B30000324809F09EFCFA21890005F0C9FB304F54
:10B310002081A17A380009F094FC23002600250042
:10B3200022894C33A072A0361A808C3531780023E4
:10B330002A22286808F0EEFD002801D02548F8BD33
:10B3400031781F235B22286808F0E4FD0028F5D13E
:10B35000317820235C22286808F0DCFD0028EDD13C
:10B36000317801232C22286808F0D4FD0028E5D18B
:10B37000317801232D22286808F0CCFD0028DDD18A
:10B38000317801232E22286808F0C4FD0028D5D189
:10B39000A17A380009F050FC3178C3B20E22286837
:10B3A00008F0B8FD0028C9D1FA2123898900594342
:10B3B000064809F041FC01230343DBB231782A221D
:10B3C000286808F0A7FD0028B9D0B7E7D8680200C0
:10B3D000D06802000EFCFFFF08B4024B9C464438C4
:10B3E00008BC6047F5B20100074B10B51A00040015
:10B3F00008323C3302604364443008F08BF920008B
:10B4000008F0BBF8200010BD3869020008B4024BF8
:10B410009C46443808BC6047E9B3010008B4024BBD
:10B420009C46443808BC6047C1460200F0B504257C
:10B4300083798BB004002B4204D1FDF7A1FCA379E2
:10B440001D43A57120009030FFF7BCFB0026B042E1
:10B450000FD12300A033197820000C2307AD0093EF
:10B460008C302B0001220068FFF738F9061E03D04C
:10B470002C4E30000BB0F0BD0A2304AA9B182A788A
:10B480005A706A781A700022985EAA785A70EA7820
:10B490001A700022995E03912A795A706A791A709B
:10B4A00000229F5EAA795A70EA791A7000215A5ECA
:10B4B00004922A7A5A706A7A1A7000215A5E0592AA
:10B4C000AA7A5A70EA7A1F251A7000229B5EA27A25
:10B4D00003999C46514349425043CB172B407A4332
:10B4E0005B185B11A361C3172B401818D3171D40BD
:10B4F0006423AD18059A5B425343A36764236146F6
:10B50000049A40115A434B43E2676D11221DE061DA
:10B5100025622000D36708F0A2F82000443008F02C
:10B5200000F9A6E70EFCFFFF08B4024B9C46443826
:10B5300008BC60472DB40100F7B51E00040008AB3D
:10B540001B881500019309AB00911A8831000AABE2
:10B550001F88FEF7CBF820003A0031004430FEF798
:10B560000DFB134B20001A003C33636423000832A8
:10B570002260009A8C331A60AB8890308380AB795C
:10B580006A4683710B4B92880360AB68032183602A
:10B590002B7B03736B7B4373AB7B83732300A033E1
:10B5A0001A80FFF745FB2000FFF7A4FE2000FEBD38
:10B5B000386902008C670200F8B5FA260189B600E6
:10B5C00004007143264809F03CFB310005F068FA9D
:10B5D000244F2081A17A380009F033FB2500A072A6
:10B5E0005835297800232A22606C08F093FC002843
:10B5F00001D01D48F8BD297810232B22606C08F07B
:10B6000089FC0028F5D1297801232D22606C08F0EF
:10B6100081FC0028EDD1297801232E22606C08F0EE
:10B6200079FC0028E5D1A17A380009F005FB2978DA
:10B63000C3B20E22606C08F06DFC0028D9D12189BC
:10B640000748714309F0F8FA01230343DBB2297874
:10B650002A22606C08F05EFC0028CBD0C9E7C04607
:10B66000A0690200986902000EFCFFFF10B50400FB
:10B67000034B0833036007F080FF200010BDC04675
:10B68000006A02007FB50425837904002B4204D1AF
:10B69000FDF776FBA3791D43A57120004830FFF725
:10B6A00091FA0025A8420DD12300583319780623BA
:10B6B00002AE009301223300606CFFF70FF8051E05
:10B6C00003D00D4D280004B070BD022300210420DA
:10B6D000F356A27ADB00715630565343C000C900BE
:10B6E000514342435B42A3612368E16122629B6A4A
:10B6F00020009847E6E7C0460EFCFFFFF8B50400BF
:10B70000150006AA168807AA0F0012881900FDF76F
:10B71000EDFF0F4B6764083323602300AA8848338A
:10B720009A80AA7920009A710A4AA264AA682265BE
:10B730002A7B1A736A7B5A73AA7B9A730023A371BC
:10B74000230058331E80FFF737FF2000F8BDC046A6
:10B75000006A02008C67020010B50400034B083336
:10B76000036007F0D7FF200010BDC046946A0200B6
:10B77000F0B507005C3787B0040039780023102249
:10B78000806C08F0C7FB0326002802D01F4807B0D2
:10B79000F0BD0F2502ABED18012339780822009384
:10B7A000A06C2B00FEF79AFF184B9842EED02B7836
:10B7B000334203D06420FDF77DFBEAE7FA262189B6
:10B7C000134DB6007143280009F03BFA310005F033
:10B7D00067F920813978A0231122A06C08F09AFB28
:10B7E0000028D3D1A36C21890393714328003F78AB
:10B7F00009F022FA01231843C3B21022390003983A
:10B8000008F088FB0028C2D0C0E7C0460EFCFFFF4E
:10B81000346A020070B50825837986B004002B4293
:10B8200004D1FDF7ADFAA3791D43A57120004C307A
:10B83000FFF7C8F9061E0DD023005C3319780623E4
:10B8400004AD009301222B00A06CFEF747FF061EFB
:10B8500003D0134E300006B070BD0E232A786B441F
:10B860005A706A7820001A700022995E64224A4356
:10B87000A263AA785A70EA781A700022995E64224C
:10B8800052425143616329795970697919700021D5
:10B890005B5E5A432368E2631B6A9847DAE7C04657
:10B8A0000EFCFFFFF8B50400150006AA168807AACB
:10B8B0000F0012881900FEF761F90D4BA7640833D9
:10B8C00023602300AA884C339A80AA7920009A71B9
:10B8D000084AE264AA6862652A7B1A736A7B5A7313
:10B8E000AA7B1E829A73FFF743FF2000F8BDC04673
:10B8F000946A02008C670200F7B5FA250189204F8F
:10B90000AD0004006943380009F09BF9290005F0F7
:10B91000C7F8A17A20811B4809F093F92600636CCF
:10B92000A072009321895836337869433800019317
:10B9300009F082F907230343DBB220220199009822
:10B9400008F0E8FA002801D00F48FEBD3178102336
:10B950002222606C08F0DEFA0028F5D1A17A0948AD
:10B96000656C377809F068F980235B420343DBB2EA
:10B9700023223900280008F0CDFA0028E5D0E3E7BB
:10B98000C86A0200C06A02000EFCFFFF10B5040086
:10B99000034B0833036007F0F0FD200010BDC046E4
:10B9A000386B0200F0B50425837985B004002B4282
:10B9B00004D1FDF7E5F9A3791D43A57120004830B6
:10B9C000FFF700F9061E0DD023005833197806231F
:10B9D00002AD0093A8222B00606CFEF77FFE061ECE
:10B9E00003D0144E300005B0F0BD1F200023EA5EE6
:10B9F000D31703409B180222A95E5B11CA170240AD
:10BA0000521804216F5E5211F9170140C9194911EA
:10BA10002B806A80A980A07A4343424341435B4222
:10BA2000E36123685242A26121629B6A2000984729
:10BA3000D8E7C0460EFCFFFFF8B50400150006AAC3
:10BA4000168807AA0F0012881900FDF74FFE0F4B4A
:10BA50006764083323602300AA8848339A80AA7950
:10BA600020009A710A4AA264AA6822652A7B1A7386
:10BA70006A7B5A73AA7B9A730023A37123005833FD
:10BA80001E80FFF739FF2000F8BDC046386B02006A
:10BA90008C670200F7B5FA2504000189134EAD004A
:10BAA0006943300009F0CDF8290004F0F9FF2700C0
:10BAB000A36C208100935C373B7881B269433000EE
:10BAC000019309F0B9F86022C3B20199009808F017
:10BAD00021FA002801D00648FEBD397801236222F0
:10BAE000A06C08F017FA0028F6D0F4E76C6B02009F
:10BAF0000EFCFFFF10B50400034B0833036007F092
:10BB000009FE200010BDC046946B02007FB50825D9
:10BB1000837904002B4204D1FDF732F9A3791D4348
:10BB2000A57120004C30FFF74DF8051E0DD0230005
:10BB30005C331978062302AE0093E8223300A06C30
:10BB4000FEF7CCFD051E03D00B4D280004B070BDE0
:10BB50000223F25E96235B425A4362630021725EC7
:10BB600020005343A3630423F25E96235343E3630D
:10BB700023681B6A9847E8E70EFCFFFFF8B504004E
:10BB8000150006AA168807AA0F0012881900FDF7EB
:10BB9000F5FF0D4BA764083323602300AA884C33BC
:10BBA0009A80AA7920009A71084AE264AA686265BC
:10BBB0002A7B1A736A7B5A73AA7B1E829A73FFF7D9
:10BBC00069FF2000F8BDC046946B02008C6702003C
:10BBD00010B50400054B083303601C3007F0E3FA8E
:10BBE0002000183007F0DFFA200010BDC06B020003
:10BBF000FF23F0B52C4D8DB02B7000230400694657
:10BC00000088009303F046FA002802D16B469B7827
:10BC10002B70264E3368DB68002B07D10023208869
:10BC20001A00190008F0BCFD0DB0F0BD2B78032BF5
:10BC3000F4D81F4901A8FDF76FFB336801A9DE683E
:10BC400004A807F007FB04A9300008F007FD00274F
:10BC5000060004A807F0A7FABE421ED03100202239
:10BC6000103104A80AF076FB30000AF03CFB29787A
:10BC700004ABC9005918082202A80AF06BFB2088FF
:10BC80000123082202A908F08BFD0137002804D106
:10BC90002088084A0C2108F081FD01A807F083FAEA
:10BCA000002FBBD0C0E7C046802000204C250020DC
:10BCB00077750200FFFF0000F0B5837991B00400B2
:10BCC0005B071BD5FDF7E4FA00232269801A99412E
:10BCD000994203D1F423FF3398420FD9A06800287A
:10BCE00008D0364B1D8809F024F8036815221B6A1A
:10BCF000290098470422A3799343A371A3799B0752
:10BD000059D52F4D2B68DB68002B50D02D4B1B785D
:10BD1000032B4CD8294B2C491B8804A80193FDF711
:10BD2000FBFA2B6804A9DE6808A807F093FA08A9B3
:10BD3000300008F093FC070008A807F034FA02ABC3
:10BD40009E1D08233200338006A9073B019808F0A6
:10BD500029FD002F08D039002022103108A80AF050
:10BD6000F9FA38000AF0BFFA164B32881B7806A998
:10BD7000DE0008AB9E1930000AF0DDFA002813D06F
:10BD8000082206A930000AF0E5FA2B6804A9DD684C
:10BD900005A807F05FFA202308AA05A9280008F0E3
:10BDA00063FC05A807F0FFF904A807F0FCF90222DC
:10BDB000A3799343A37111B0F0BDC046C8270020FA
:10BDC0004C2500208020002077750200F7B5089EE2
:10BDD0000500152922D8012007008F40244C274256
:10BDE0001CD0E97FCC181F2C41DC69183418A14203
:10BDF00010D80021C8B2834204D9545C70188470F2
:10BE00000131F7E732789A183270EA7F9B18EB77A6
:10BE100000202CE00878C8540139E8E73478013C68
:10BE2000E4B2A34208D10023D9B28C42F0D9D05C4D
:10BE3000F11888700133F7E7EF7F0120FF183F1BEF
:10BE40001F2F14DC0227A01C7F423618381B0190DC
:10BE5000E87F2F18BE4204D23078019FF05501369A
:10BE6000F6E7041B023CEC77280008F0E5FCFEBD79
:10BE7000FC002000F0B585B001930AAB1E880BAB27
:10BE80001B78451C02930EAB1B78040003930B78C0
:10BE9000170003704B8A10224382013128000AF0F8
:10BEA00059FA6B469B88268363836B461B7B00266F
:10BEB00023776B4601221B7A6761E683EB77A31C2D
:10BEC000DA770C9B0C256362230020000D9A28333F
:10BED0001A705E709E702A0031002C300AF056FAFB
:10BEE0002000074BE663A3632A00310040300AF0CC
:10BEF0004DFA2000034B2665E36405B0F0BDC04653
:10BF0000BB470200AD47020070B50D0008F011FFFD
:10BF100004000368002D09D15B699847FA2080006E
:10BF20006843074904F0BCFDE08070BD9B689847FA
:10BF30008542F3D2236820009B6898470500EDE70F
:10BF400071020000F0B507001600A1B002C704009E
:10BF50006B4918A81D0008F0B6FC331E03D0300052
:10BF60000AF054FA83B20122049200220392029250
:10BF7000023201920093320018A93800FFF77AFFCD
:10BF800023006049583318A8079308F09CFC2B1E27
:10BF900003D028000AF03AFA83B201220492002268
:10BFA000039202920232019200932A0018A9079884
:10BFB000FFF760FF23005449AC3318A8089308F03A
:10BFC00082FC269B002B03D018000AF01FFA83B2D4
:10BFD0000122049200220392029202320192009303
:10BFE000269A18A90898FFF745FF631CFF334749B5
:10BFF00018A8099308F067FC279B002B03D01800B2
:10C000000AF004FA83B2012204920022601C039217
:10C010000292023201920093279A18A9FF30FFF78B
:10C0200029FF23005533FF33394918A8099308F035
:10C030004AFC289B002B03D018000AF0E7F983B2D2
:10C040000122049200220392029202320192009392
:10C05000289A18A90998FFF70DFF2300A933FF3389
:10C060002C4918A80A9308F02EFC299B002B03D01A
:10C0700018000AF0CBF983B201220492002218AD15
:10C0800003920292023201920093299A29000A989F
:10C09000FFF7F0FE204B1B780B93002B2DD1079B55
:10C0A00012971393089B0DAF1493631CFF331593E2
:10C0B000099B1A4916930A9B3800179308F003FC52
:10C0C0001D2149203B7810222B707B8A12AE6B8297
:10C0D00006ABC918C0180AF03DF906232B756B464C
:10C0E0009B8D2068AB83AE6108F027FE03682900B2
:10C0F0001B6898470122084B1A70200021B0F0BD40
:10C10000292A0000242A0000252A0000272A0000EE
:10C11000262A0000282A0000212800200A180000F2
:10C1200070B5002504000B4B8580083385710360D2
:10C13000C1601830FDF72AF920001C30FDF726F900
:10C140000123621CD377044AA56065612000146056
:10C15000A37170BDC06B02004C250020FA2130B5E0
:10C1600085B00500012302228900684607F0B6F871
:10C17000074C2068002809D008F0DEFB2988054B11
:10C1800022681980022391790B43937105B030BD69
:10C190004C250020C827002010B50C0007290DD819
:10C1A000806808F0C6FD064B195703685B6C98471A
:10C1B000431E9841034B4042184010BD0248FCE723
:10C1C0006F75020016FCFFFF17FCFFFFF0B5A44CD3
:10C1D0000D00A544040007939AAB1B78A14909A858
:10C1E00004930692FDF798F8200029001C3007F010
:10C1F00039F8C020800000F0C7FF08200AF077F867
:10C200000600002100F0AEFE15ADA66000210C2254
:10C210000EA80AF0BBF82B000EAA83CA83C3924B68
:10C220002900EB60002330002B6108F06BFDA06853
:10C2300008F07FFD08220021059016A80AF0A6F854
:10C2400014200AF054F829000200884B1593C8C93D
:10C25000C8C2874B059EC3600023A43603613368C0
:10C26000002B00D0F5E03060A06808F066FD0822E1
:10C270000021060016A80AF089F814200AF037F801
:10C280007C4B1593030086CD86C37B4BC360002394
:10C290000361336B002B00D0DDE03063A06808F051
:10C2A00048FD08220021050016A80AF06FF81420A6
:10C2B0000AF01DF8714B15AE1593030086CE86C3A8
:10C2C0006F4B9835C360002303612B68002B00D0AF
:10C2D000C3E02860012504AB1B7C04AA2B4308A9FA
:10C2E0002800137408F060FAA06808F02AFD0368BB
:10C2F00064495B6A9847A06808F023FD03686249B7
:10C300009B699847A06808F01CFD00230268009311
:10C31000166804992A00B047049B002B0AD020001D
:10C3200008F013FB032805DDA06808F00AFD036888
:10C33000DB6898470EA808F076FA2F2004ABC018E7
:10C3400008F071FA362004ABC01808F06CFA3D20F2
:10C35000042504ABC01808F066FA0EAB0A93A06877
:10C3600004AB5D7708F0EDFC03680AA91B699847E8
:10C37000A06808F0DEFC03680AA95B6D9847A06816
:10C3800008F0D7FC03680021DB6D9847A06808F02F
:10C39000D0FC036802219B6D984700212000FFF725
:10C3A000FBFE182009F0A3FFA16800F055FA374BF7
:10C3B000374A1B68A1680393364B15A81B680026F3
:10C3C0000293354B0CAF1B680193069B1B685B19EE
:10C3D0000093324B12681B68FFF7B4FD302009F060
:10C3E00086FF079AA16800F0F7FAA06808F0A1FCA0
:10C3F000036839009B6A9847294BBE80A0680C935C
:10C4000008F097FC03683900DB6A98472900A068A8
:10C4100008F065FA099A09219378A068521908F082
:10C4200071FAA06808F085FC32210671A068FFF758
:10C430006BFD04AB1B7FB34204D0A06808F079FC0D
:10C4400008F037FA09A806F0AEFE95239B009D443C
:10C45000F0BD036107E703611FE7036139E7C046E9
:10C46000ACFDFFFF5C760200C94702005DC1010020
:10C47000D7470200F1BB0100E54702001348020064
:10C48000F3470200A5C40100D9C4010048250020DB
:10C490004425002008200020402500200C200020FA
:10C4A0000800100013B506226846FCF745FF094B4B
:10C4B0001C68002C0AD0694601A806F0CBFE2000BB
:10C4C00001A908F063FA01A806F06DFE684606F0BF
:10C4D0006AFE13BD4C250020002373B501AE0C008D
:10C4E00031000500019302F0D5FD002802D1B27899
:10C4F000064B1A70064B1868002806D0614261414D
:10C50000044BC9B21D8008F049FA73BD8020002099
:10C510004C250020C827002030B5284CA9B06A223D
:10C520000D000DA8210009F015FF0DA903A8FCF7C7
:10C5300061FF03A906A806F001FF01230193013B57
:10C54000FF3B00930533FF33642206A92800FEF762
:10C550006DF806A806F0E5FE210019226A3106A84A
:10C5600009F0F8FE05220024110006AB04A806F02D
:10C570000CFF04A905A806F0E1FE01940094230035
:10C58000220005A92800FDF7BBFF05A806F0C9FE9B
:10C5900021002800FEF778F805340520FCF78AFC16
:10C5A000FF2CF5D1FA208000FCF784FC04A806F0EB
:10C5B000B8FE03A806F0B5FE29B030BDEC74020049
:10C5C000F0B59C4B95B005921A68082304000391BE
:10C5D000D16C06A80B43D3649749FCF79DFE97499D
:10C5E00007A8FCF799FE220000250DAE30001C3292
:10C5F00006A906F046FE07AA310008A806F041FE8B
:10C60000300006F0D0FD631CDD77A06808F091FBD8
:10C6100003680BAF5B699847300008F004F92B20E2
:10C6200004ABC01808F0FFF8322004ABC01808F0C3
:10C63000FAF8392004ABC01808F0F5F88023DB00C5
:10C64000BB80A0680B9608F074FB036839005B6D33
:10C650009847A06808F06DFB036829009B6D984718
:10C66000A06808F066FB070006000A371F222900B1
:10C67000380009F08BFEFD77300008F011F9062133
:10C68000A06808F02CF9089A09219378A068043270
:10C6900008F038F9A06808F04CFBC8210571A068C3
:10C6A000FFF732FCA06808F044FBFF272E0005814D
:10C6B000A06808F03EFB08F0FCF80398FDF7B4FE14
:10C6C0002000FCF75DFB03992000FFF725FF03998D
:10C6D000200008F076F90495012563691D402DD0EE
:10C6E000574909A8FCF704FF09A90AA806F026FE85
:10C6F00000220AA91300019200920398FDF700FF9F
:10C700000AA806F00EFE049B002B42D1043F282FFE
:10C7100041DD0025FE2F00DC049D059806F0E6FFB4
:10C72000002806D0012362699A43130004221343B0
:10C730006361002609A806F0F4FD049504226369EC
:10C74000134233D0FF210398C826FDF79DFF002533
:10C75000B600A36902229B5EAB4222DD200029B213
:10C76000183006F0A4FD0023010003981A0074306D
:10C77000FCF70EFF3000FCF79DFB039807F0BDFBB4
:10C78000C820FCF797FB02226369134209D10135E7
:10C79000DFE70437BBE7039807F0AFFB002FBCDDF2
:10C7A000BAE7FA208000FCF785FB002602236569C2
:10C7B0001D421CD006331D4024D0224909A8FCF795
:10C7C00097FE09A90AA806F0B9FD00220AA901925C
:10C7D000009213000398FDF793FE0AA806F0A1FD4E
:10C7E0001948FCF767FB09A806F09BFD174E64206B
:10C7F000FCF760FB164B01369E4200DC6CE706F04E
:10C800006EFB69E7134909A8FCF772FE09A90AA89B
:10C8100006F094FD2B002A000AA9019500950398C3
:10C82000FDF76EFE0AA806F07CFD09A806F079FD6A
:10C83000DDE7C046D0240020837502009375020016
:10C8400095750200DA750200983A00008C0A000023
:10C850008B0A0000177602000022594BF0B508330E
:10C86000060003600F001000A9B0B1600BAB99186F
:10C8700001324870102AFAD10F3A524C1A700E3217
:10C88000105D991A0874013AFAD2997B5A7B090211
:10C890000A4331000C31039125211B7813AD2B7015
:10C8A00002ABC918452302A81B186A82180010227F
:10C8B00009F050FD039B64216B610123002402AA4F
:10C8C0002B7752181993093313701DAB1C706D230D
:10C8D00002AA9B181C706E2321009B181EA80C2214
:10C8E000EC836C621C7009F051FD374B0C22210067
:10C8F00023A8AB63EC6309F049FD344B02AAEB6457
:10C9000046239B180322DA7722002C6505953473A1
:10C9100006AD2B1901345A70102CFAD101232C4882
:10C920002B700E33195CEA1A1174013BFAD21121F3
:10C930002520AA7B6B7B12020BAC13432A786382FF
:10C9400002ABC9182270C018102209F003FD0123A0
:10C95000237505ABA36100233800A38308F0EDF92C
:10C96000036821001B68984713ABDB8BB068B38268
:10C9700008F0E3F9002203680092B18A039ADC68A8
:10C980000123A047B06808F0D8F90700142009F087
:10C99000AEFC0022012304000261069240C008326E
:10C9A0002900079309F0D6FC0A4BE360BB69002B12
:10C9B00003D13000BC6129B0F0BD2361F9E7C04666
:10C9C000D86B020073760200BB470200AD4702003D
:10C9D00083760200234A0200F0B500260400724B61
:10C9E000DDB0083303608160C260868086713200EA
:10C9F0006E4947A808F0B5F8230014330125042731
:10CA000008931223009704950193089A330047A9CD
:10CA1000039602961DA8FFF72DFA3200644947A835
:10CA200008F09FF80C2322000097103215AF0495F0
:10CA3000019347A933000396029632A8FFF71AFA2A
:10CA400032005C49380008F08CF821001C31099153
:10CA50000423082104950191009339003300099AB9
:10CA60000396029647A8FFF705FA320052493800AC
:10CA700008F077F8542009F03AFC21001222042330
:10CA8000183107910495019200930A003300390090
:10CA9000039602960690FFF7EDF9069A474B1000B1
:10CAA000A262D4620AA9082230300A930B9609F0D8
:10CAB00051FC434B069A09999363293215702661FC
:10CAC0000422E661079809F045FC042207990898BA
:10CAD00009F040FC6622032304A95218D377BA2236
:10CAE0005218D377872252005218D377069A3549C5
:10CAF0000232D3771DAA0C9232AA0D9247AA0E9247
:10CB0000069AA6850F9210A8320008F02AF8302164
:10CB1000452004AA52181378123104AA3B70521807
:10CB2000138811397B8204AB1022C918C01809F090
:10CB300011FC04230CADA0683B75BD61BE8308F0F9
:10CB4000FCF8036839001B689847822204AB9B18E5
:10CB50001B885432238404AB9B181B885432A38453
:10CB600004AB9B181B88A068638408F0E6F80700F4
:10CB7000142009F0BCFB0500134B0661082210C00D
:10CB800010A91093119609F0E5FB104BEB60BB69FF
:10CB9000B34206D1BD612000FCF7F2F820005DB081
:10CBA000F0BD2B61F6E7C046E46B0200B3760200ED
:10CBB00093760200A3760200C3760200354B020092
:10CBC000A14A0200D376020039CC0100CB4A020010
:10CBD000F0B504000E00150085B01F000CAB1B88DB
:10CBE0001030019306F070FB26806580182009F054
:10CBF0007EFB02AE050033000AAA03CA03C32F60FE
:10CC00002800082700213A000C3009F0BFFB3A0049
:10CC10003100281D09F09EFB064B02226B612000AB
:10CC200000230199A5600A43E360A2802362636246
:10CC300005B0F0BDF54A0200F0B50B898DB0059343
:10CC4000CB68050004934B88828C9A420ED1049CD9
:10CC5000049B059A9B181B1B032B39DD62882188D6
:10CC6000012308A806F03AFB0434F1E7428C9A420B
:10CC70002ED1049C049B059A9B181B1B032B27DDBC
:10CC80002388282006936388EF680793114B089345
:10CC90000023099309F02BFBC0236A460600029388
:10CCA00008AB03CB03C22B000699079A3000FFF7AD
:10CCB0008FFF3B6831005B6838009847002805D03B
:10CCC000300006F026FA300009F00DFB0434D1E7FD
:10CCD0000DB0F0BDB34B020070B5040090B0806899
:10CCE00007F062FF022101401AD1A38D002B17D05B
:10CCF0000C4B6A4604931023E568A18505910293C5
:10CD000004AB41CB41C20A00230006A8FFF760FF35
:10CD10002B6806A99B682800984706A806F0F9F931
:10CD200010B070BDB34B0200002815D00060416008
:10CD30008260C360046145618661C76144460462E4
:10CD40004C464462544684625C46C4626446046352
:10CD50006E46466374468463002A06D0C46B043C66
:10CD6000043A25681560B442F9D18C6BA6464E6B27
:10CD7000B546002B06D0CC6B043C043B1D682560F7
:10CD8000B442F9D10C6BA446CC6AA3468C6AA24685
:10CD90004C6AA1460C6AA046CF698E694D690C6940
:10CDA000CB688A68086849687047006041608260A3
:10CDB000C360046145618661C761444604624C46B4
:10CDC0004462544684625C46C462644604636E46B0
:10CDD000466374468463C46B043C043925680D6063
:10CDE000B442F9D1C7698669456904697047006032
:10CDF00041608260C360046145618661C7614446E9
:10CE000004624C464462544684625C46C462644692
:10CE100004636C4644637446846304697047846B9E
:10CE2000A646446BA546046BA446C46AA346846A1E
:10CE3000A246446AA146046AA046C7698669456954
:10CE40000469C368826800684168704710B5041EB1
:10CE50000CD009F0DBFA431EE3189C4208D222787A
:10CE60001978013B21705A700134F6E7014810BD72
:10CE70000020FCE717FCFFFFF0B585B002900C1E08
:10CE80002AD00023C217161A56400193019B300086
:10CE90005D1C63190A215F1E039303F071FF494271
:10CEA0003031397030000A2103F084FE4742060019
:10CEB000002F0FD1029B002B04DA2D23019D039A32
:10CEC00002351370002320006355FFF7BFFF3800C1
:10CED00005B0F0BD0195D9E7004FF8E717FCFFFF5B
:10CEE0000268084B406810B5C018C0001018030055
:10CEF0009A4205D81C688C4202D31800083BF7E719
:10CF000010BDC046FFFFFF1F70B5002817D1114D9F
:10CF10002E68002E11D1083009F0E9F9066046604C
:10CF20000D4E04003368002B02D108F049F930603F
:10CF300023682C609B00F3586360286870BD012251
:10CF4000064907480B681340F8D1026043600A6045
:10CF5000F4E7C0465425002060250020502500201D
:10CF600058250020002370B50400016043609942F9
:10CF70000AD1064D2B68002B02D108F021F9286058
:10CF800023689B00EB586360200070BD6025002083
:10CF9000436810B50400002B02D1044809F0B5F82D
:10CFA000606803681B69984710BDC046E3760200BD
:10CFB000436810B50400002B02D1044809F0A5F81D
:10CFC000606803689B69984710BDC046E37602001D
:10CFD000436810B50400002B02D1044809F095F80D
:10CFE000606803685B6A984710BDC046E37602003C
:10CFF00010B5040002F052FC034B1B68002B01D05B
:10D000002000984710BDC04668250020F0B58BB0C1
:10D01000050001F07FFE002000F0D2FB036807004E
:10D020001B6998473B6804009B69380098473B6838
:10D0300006005B6A380098470300288810380B28E0
:10D0400062D803F023FD063E6161615B6161616747
:10D050006179AF882000390008F071FD22006B7BF8
:10D06000583201931378A8799C46022361460B43FA
:10D07000137004AB1F80012304AA9370D0701300B7
:10D080006A461279E91D9A722B000622163305A80A
:10D09000099309F05FF929000B2004AB06220E3139
:10D0A000C01809F057F994346368A360A068002899
:10D0B0002AD0C36804A99847A368002BF4D01B6941
:10D0C000F3E720002F49AF8808F039FD2200022045
:10D0D00058321378A9798343137004AB1F80997079
:10D0E000A0346368A360A06800280DD0C36804A9B9
:10D0F0009847A368002BF4D01B69F3E75B69A88805
:10D10000A91D002B00D098472900300008F0AEF987
:10D110000BB0F0BD636E002BF6D0AF79A366A06EA6
:10D120000028F1D0C36839009847A36E002B01D1C5
:10D13000636EF3E71B69F1E7012269460D27AB7BBC
:10D14000EF571A4001925A07920FDB080A720B73CD
:10D150000622E91D04A809F0FDF86A46127904AB1D
:10D16000DA716A46127A9F711A726A46127B20003F
:10D170005A722B000F3307938C348030236804A934
:10D180009847C1E7FFFF00000723D72802D9024BC9
:10D19000186000231800704764250020014B1860B8
:10D1A0007047C046682500201FB58022A323D20502
:10D1B000DB00D3580820DB0700D405301C4B482285
:10D1C0001C4902F0EBFD00280AD080B2002807D1EC
:10D1D000BFF34F8F184B194ADA60BFF34F8FFEE74A
:10D1E000002302A8029301330370154B1B684360B0
:10D1F00007F0AFFD002802D0072005B000BD68464B
:10D2000007F0A5FD0028F7D1694607F09EFD00282C
:10D21000F2D10C4802F0F2FD80B20028EDD10A48AC
:10D2200002F0F6FD80B20028E7D100F0F3FCE4E75D
:10D23000574D02006C25002000ED00E00400FA05C7
:10D24000642500200DD00100F1CF010080B200283C
:10D2500007D1BFF34F8F034B034ADA60BFF34F8F01
:10D26000FEE7704700ED00E00400FA050048704753
:10D27000FFFF0000F0B597B00593036807AD1B688A
:10D280000491039311002B00060091C991C300245F
:10D29000D36821000C220CA8EB602C6109F076F811
:10D2A00022000B4B10940F9311AB1C701919013411
:10D2B0004A70102CFAD15A820193059B2A000093E0
:10D2C00004990CAB3000039CA04717B0F0BDC046DA
:10D2D000794E020070B5FC30046C0500002C0DD1B5
:10D2E000242009F004F8064B44608361054B8460F8
:10D2F000C46004614461C46103602864286C70BD2B
:10D30000D06C0200B86D020070B5FC30C56B040033
:10D31000002D11D1342008F0EAFF084B85604360EE
:10D32000074B45610361074B0562C361064BC5624C
:10D330008362064BE0630360E06B70BD006D02002A
:10D34000F06C0200606D0200706D0200806D0200E2
:10D350007FB503791548002B22D0154E154C337834
:10D360002000002B1CD102AD280007F062FD002830
:10D3700010D16B88592B0DD12B78AA88D91F012980
:10D3800010D800920C4A2021200005F007FA012352
:10D39000337004E020220949200009F03EF8200003
:10D3A00004B070BD0092064AEDE7C0460677020061
:10D3B000422800202228002028770200207702003F
:10D3C0004577020010B50400024B08C007F011FEBB
:10D3D000200010BDF06C020010B50400024B08C024
:10D3E00007F01CFE200010BD006D0200064B70B55A
:10D3F000040003604068002804D0056908F073FF4A
:10D400002800F8E7200070BDE06C0200064B70B504
:10D41000040003604068002804D0056908F063FF39
:10D420002800F8E7200070BD106D0200064B70B5B3
:10D43000040003604068002804D0056908F053FF29
:10D440002800F8E7200070BD206D0200064B70B583
:10D45000040003604068002804D0056908F043FF19
:10D460002800F8E7200070BD606D0200064B70B523
:10D47000040003604068002804D0056908F033FF09
:10D480002800F8E7200070BD706D0200064B70B5F3
:10D49000040003604068002804D0056908F023FFF9
:10D4A0002800F8E7200070BD046C0200064B70B540
:10D4B000040003604068002804D0056908F013FFE9
:10D4C0002800F8E7200070BD146C0200064B70B510
:10D4D000040003604068002804D0056908F003FFD9
:10D4E0002800F8E7200070BD246C0200064B70B5E0
:10D4F000040003604068002804D0056908F0F3FECA
:10D500002800F8E7200070BD346C0200064B70B5AF
:10D51000040003604068002804D0056908F0E3FEB9
:10D520002800F8E7200070BDD06C020070B5FC3018
:10D53000046C0500002C0DD1242008F0D8FE064B09
:10D5400044608361054B8460C46004614461C461CC
:10D5500003602864286C70BDD06C0200B86D0200B6
:10D56000104B10B5083303600F4B0400C3608023D9
:10D570000E4A5B00C250C018FCF72CFE20000C4B7A
:10D58000B830E360FFF7B2FF2000AC30FFF79EFF3A
:10D590002000A030FFF78AFF20006C30FFF776FFF5
:10D5A000200010BDE46D02005C6E0200986F020066
:10D5B000446C0200F8B505000400AC356B68AB6044
:10D5C000A868002807D0C36821009847AB68002BE3
:10D5D000F4D01B69F3E72500B0352868002804D093
:10D5E000066908F080FE3000F8E72200FC21286080
:10D5F000583213780B40137023005C3318702000EE
:10D600000A3007F0D4FD2000343007F0D0FD606E02
:10D61000002804D0056908F066FE2800F8E7250018
:10D62000983560662868002804D0066908F05BFE1B
:10D630003000F8E72600A43628603568002D05D0B4
:10D640002F69280008F04FFE3D00F7E72000356005
:10D6500029000C226C3008F099FE2000074BE5678A
:10D66000A36729000C22803008F090FE2300044AB2
:10D670008C33903428001A602560F8BD5D4E02009E
:10D680004F4E0200444AF0B50600C260A022434B50
:10D690001636083303600100002342820400320082
:10D6A00085B0037183600374838235311370013256
:10D6B0009142FBD1802580222000AD00D201F3777A
:10D6C0003584110000933830002300F0FBFD230067
:10D6D0002100403303931A002B0000255F311570A1
:10D6E00001328A42FBD1039AFC21D57722006032B5
:10D6F0001380137920000B401371230068331D70D1
:10D70000274B2567E3660C220021783008F03EFEA7
:10D710002300270088331D60224B0837FB678437BE
:10D7200000210C22380008F031FE1F4B1F4AFB601D
:10D730002300A0333D611A601D4A5D60DA601D4A16
:10D740001D619A61DD61300007F031FD039807F03B
:10D750002EFD194B601CE3602300C4331D705D7007
:10D760009D70FF3002F0BEFB8C235B00E550230070
:10D770001933FF335D618023104A5B00E2502300C0
:10D7800001222000FE3352425A86023B9D63DD6334
:10D790001D6405B0F0BDC046446C0200E46D02009B
:10D7A000046C02005D4E02004F4E0200146C020039
:10D7B000246C0200346C02005C6E0200986F020060
:10D7C00070B5074C2368002B07D1A020400008F05B
:10D7D0008EFD0500FFF756FF2560206870BDC0462E
:10D7E000B425002070B50C220D000021040008F0C3
:10D7F000CDFD00232361024B25602000E36070BD56
:10D800006B4E020070B500250400254B8580036037
:10D81000244BC5608360244B85614361234B456283
:10D820000362234B0563C362224BC56383632900F4
:10D830004430FFF7D7FF200029005830FFF7D2FF10
:10D84000200029006C30FFF7CDFF1B4B2200236026
:10D8500023008032F83320C29342FCD126001D0001
:10D86000E936FF36280008220021083508F08EFD31
:10D87000AE42F7D18E2300229B00E11804C6B142CC
:10D88000FCD18E2300219B00E2540C4B0C4AE31880
:10D89000A218198002339A42FBD1200070BDC04605
:10D8A000306D0200E06C0200F06C0200006D0200BE
:10D8B000106D0200206D02002C6E02003A02000082
:10D8C0006202000013B504680093A46813000A0004
:10D8D0000149A04716BDC046FFFF000037B506ACA2
:10D8E0002578046801950093246913000A00014912
:10D8F000A0473EBDFFFF0000F0B587B00D0000243B
:10D9000069466F4616004C800DAA0CA9098812784A
:10D9100039800193A2421BD101004479F83194422D
:10D920000DD908310F00083F3F88B7421BD1302185
:10D930002032920012580132D27F0A4215D16A4633
:10D940003100280007F0C0FC002808D1062407E0B9
:10D950006A463100280007F0B7FC002800D00324F5
:10D96000200007B0F0BD0132D9E710210A40514232
:10D970004A41002002ACE3600CABA360174B0132BC
:10D980002680A270A0809D4207D1FFF719FF03688F
:10D990001B69984708F0D6F805002100280007F019
:10D9A00097FC002482B2A242DAD0112A13D00BD8FD
:10D9B000082ACBD06A463100280007F085FC0524F0
:10D9C0000028CDD0023CCBE7054B9A4203D0054B53
:10D9D0009A42EFD1BAE70524C2E7C046FFFF000034
:10D9E0000330000001340000F0B5050099B00800D4
:10D9F0002E240C9100F038F906ABE41812902200A6
:10DA000012A9012007F05EFC002802D0032019B003
:10DA1000F0BD23880C9A0B9093830C9B0B9A1B7D73
:10DA2000934200D8C6E06B791D2B01D90720EEE7A1
:10DA30000C9B9B690D930B9B0D9A9B009C586369F3
:10DA4000002B07D1638B002B04D1631CDB7F022BDF
:10DA500000D1AAE0200000F007F9230000262833B7
:10DA600012900E960D960F930F9B1B78B34221D9FF
:10DA7000626AB3009F58342206AB9B1800221A70CA
:10DA80000023002113AAD21801335170102BF8D1B2
:10DA9000462206AB9B184A4A13A938001A8007F0A1
:10DAA00096FC002803D07B690D937B8B0E93013687
:10DAB000F6B2D9E76979A31C1F31C9006918621C45
:10DAC000DB7FD27F089121002A310978002007915D
:10DAD00021002931097806910E9905910D9904913B
