:020000021000EC
:108000000040002085080200C1080200C3080200E9
:108010000000000000000000000000000000000060
:10802000000000000000000000000000C508020081
:108030000000000000000000C7080200C90802009C
:10804000CB08020035AD010031050200CB0802006B
:10805000CB0802000000000085060200CB080200E9
:10806000CB08020099000200F5050200CB080200CF
:10807000CB080200CB080200CB080200CB080200AC
:10808000CB080200CB080200CB080200CB0802009C
:10809000CB08020041FC01001DFC0100CB080200DE
:1080A000CB080200CB080200000000000000000026
:1080B00000000000000000000000000000000000C0
:1080C00010B5064C2378002B07D1054B002B02D0AE
:1080D000044800E000BF0123237010BDB020002041
:1080E0000000000050770200044B10B5002B03D0B5
:1080F0000349044800E000BF10BDC0460000000076
:10810000B420002050770200164B002B00D1144BF6
:108110009D46402292029A1A924600218B460F46B3
:108120001348144A121A0EF056F90F4B002B00D0C8
:1081300098470E4B002B00D09847002000210400E8
:108140000D000D48002802D00C4800E000BF0AF0E6
:10815000F5FA200029000DF0C4FE0AF0D9FAC04655
:1081600000000800004000200000000000000000A7
:10817000A8200020D82800200000000000000000F7
:10818000F7B50A00030010320C781C704C785C7054
:108190008C789C70CC780431DC7004339142F3D13C
:1081A000124B04229C46124E0327037B457B847BA3
:1081B000C17B3A4209D16746755D0195355D745CB6
:1081C000F15C9308FB5C019F7B40077801327B40A8
:1081D000037443785D40837845745C40C37884744D
:1081E0005940C17404302C2ADED1F7BD0070020062
:1081F0000B70020010B50400034B036040300AF01E
:10820000EDFF200010BDC04688650200F0B58BB0C0
:1082100007910A000400010000200AF0AFFD0123CD
:10822000029327004B490194221D38003B00103077
:108230001D784D5D1D7004338342F9D1013797429B
:10824000F3D1627963786270627A25006271627B31
:1082500063736272A27AA378A270A27BA372A379DD
:10826000A271E27BA373E378E270E27AE273E279CF
:10827000E37123001033E27209932B786E781800B3
:108280000493AB7870400593EB780693069A059BB0
:1082900053400893434003930AF082FD049B5840E7
:1082A000039B58402870059870400AF079FD039BA5
:1082B00046405E406E7008980AF072FD059B58407B
:1082C000039B5840A870069B049858400AF068FD2C
:1082D000069B5840039B5840099BE87004359D421B
:1082E000CBD1079A210002980AF048FD029B013386
:1082F000DBB202930A2B94D1164A0199019B1031EB
:108300001878105C187004339942F9D1019B01333D
:108310000193BB42F1D1627963786270627A210085
:108320006271627B63736272A27AA378A270A27B8D
:10833000A372A379A271E27BA373E378E270E27A7D
:108340000A20E273E279E371E272079A0AF016FDFD
:108350000BB0F0BD0B70020030B5DDB010AD2E4893
:1083600000F070F91022002128000EF034F852209D
:1083700030230E22002168442B700EF02CF8274B7E
:1083800014AC238045232900A3702CA8FFF7F8FE26
:1083900020002CA9FFF73AFFE17B637822780D914A
:1083A000A17B18A80C91617B0B91217B0A91E17A4A
:1083B0000991A17A0891617A0791217A0691E17970
:1083C0000591A17904916179039121790291E17874
:1083D0000191A178FA24009111490AF021FA18A913
:1083E0000FA800F07BFF78220FA90E4802F0C6F814
:1083F0000FA80AF0F3FE64000B4D0121280002F0E3
:10840000B3FB200000F038FD0021280002F0ACFB97
:10841000200000F031FDEFE7DC2000205557000080
:108420000B710200CC210020CC20002070B50B4C39
:10843000200000F049F80A4D0A492A0020000DF0FA
:1084400070FF094C032302220821200002F040FBA8
:108450002A00064920000DF064FF70BDDC200020DA
:108460000020002071840100CC200020AF2D0200EC
:10847000D623144A9B0010B5C2501C330400C01808
:108480000AF0ACFEDC239B00E0180AF0A7FE2000F7
:108490009130FF3001F016FB20006930FF3001F011
:1084A00011FB2000F03001F085FE2000D03002F0FA
:1084B000F9F92000643007F0F5FC201DFFF79AFE63
:1084C000200010BD146A02001423F0B5040097B018
:1084D000009319221821043002F07CFC22002500B0
:1084E00026006432B435132110001492B83607F018
:1084F000E5FC28000CF094F800221E2130000BF05F
:108500001CFD2000D03002F0EDF92200F03215926F
:108510000621494A159801F071FE20000027012329
:1085200069301A0000971121FF3001F0D7FA2000BE
:1085300091300097012302221A21FF3001F0CEFA78
:108540002000B9301A2301210222FF3002F088FAFC
:10855000300001F0D5F8E4225200A050300001F0C4
:1085600011FBE6235B00E0500100E42220005200F2
:10857000D130159BA2580095FF3001F04FFD20002F
:10858000E13029001C22FF3002F0BCFD2323200033
:108590001293013B1193013B1093083B0F93013B56
:1085A0000E93013B0D93013B0C93013B0B93013B5D
:1085B0000A93013B0993013B0893013B0793013B5D
:1085C0000693013B0593013B0493013B0393013B5D
:1085D0000293013B0193F930013B082200930721EC
:1085E000013BFF300BF0CAFCD6239B00E0182900AA
:1085F00003F09EFDDF239B00E0181D2102F036FBF7
:10860000E9239B00E7501498277003210DF099FB94
:1086100023002200200009499C33A0321C60116015
:108620005760074A80305A610221012208F0DCF8C5
:10863000200017B0F0BDC04690650200E52D020095
:10864000CF2D02000123F0B506788FB004001E4044
:1086500000D082E00300D0331800039300F0EEFA5C
:1086600000F0E6F928200DF067FE050010300AF052
:1086700046FE6C4B18202B600DF05EFE07006A4B27
:108680000460082231000C300C930D960DF0A3FE0F
:108690000CA9381D08220DF082FE644BAF607B618F
:1086A0001223EE60AB802E626E622900039802F006
:1086B0008DF8002805D028000AF046FD28000DF0AE
:1086C00037FE012322785A49134323702300B43321
:1086D000180005930BF0AAFF5649049005980BF07B
:1086E000A5FF00250690642000F0C6FB2F002E0099
:1086F00023006933FF33180007930BF012F80028AA
:108700002DD1049B002B33D1069B002B30D1E925C2
:1087100049494A48AD0000F08FFC6359002B1CD139
:1087200000F09AF801000AA800F0D8FD0BA80AF0A2
:10873000CCFBD6239B00E018069B0BAA0AA900934A
:10874000039B03F04BFD0BA80AF048FD0AA80AF0B2
:1087500045FDD8239B00E35863510FB0F0BD2000C6
:108760009130FF300AF0DDFF0028CAD0182EC8DC97
:108770002000653039B22AB2FF23FF30013700F004
:108780002BFEFFB2322000F077FB0136052F02D11D
:1087900000270135EDB2049B192E06D0002BA7D07F
:1087A0002349059802F042FC01E0002BF8D104981F
:1087B0000DF0BEFD06980DF0BBFD1F491F4800F0EF
:1087C0003BFCD6239B00E3180893E9239B00E35866
:1087D0000993002B1ED100F03FF801000AA800F019
:1087E0007DFD0BA80AF071FB01230BAA0AA90093D7
:1087F0000898039B03F0F2FC0BA80AF0EFFC0AA810
:108800000AF0ECFCD8239B00E3580993E923099A6A
:108810009B00E2502100079AF031089803F0D8FE3F
:1088200066E7C046FD030000572E0200172E020027
:10883000927102009D71020000200020001C0020A7
:10884000BFF34F8F024B034ADA60BFF34F8FFEE74F
:1088500000ED00E00400FA05F0B58DB005AF192277
:10886000154938000DF09BFD0022144B05245A7168
:1088700080225205566E0122250001940292039334
:108880000199300008F0A2F90800029908F018F9DF
:10889000019B03996B430193029B361A6B4302932E
:1088A000631E2C1B6C433C19225C1C1ECA54E7D16E
:1088B00008000DB0F0BDC046AD71020006280020D2
:1088C000F0B597B018220021060010A80DF083FD26
:1088D000132110A80DF074FB032110A80DF03FFC2C
:1088E0004C4B1B68002B00D10133DBB202934A4A88
:1088F000012300210BA807F0B1FE484B9E4200D98E
:10890000002672B6464B64211D68464B3000079323
:10891000052408F05FF960435030281808900A21B8
:10892000300008F057F90A2108F03AFA6143503153
:108930006918099130000A2108F032FA8023614356
:108940000024503169189B010A910193029B002B6E
:108950005DD0002500272E1F07AB9B190593032C24
:1089600003D1802300249B01019307AB5B592E4A5E
:1089700003936300D318049300231900062058437F
:10898000049A16187678B4466246039EB25C1026A6
:108990009446049A105C62460641164202D00120B9
:1089A000984001430133092BE8D1C9431F4B059A75
:1089B000090119401268039B934225D1312F23DC12
:1089C00000210BA80DF08CFCFA23159A1199DB00FD
:1089D000106801421BD0013B002BF9D1019B0134EF
:1089E0005B000193FA230137E4B25B009F42B6D1EA
:1089F0000435102DAED1074B1B68002BA6D0029F6B
:108A0000013FFBB20293A1E7019B1943D9E7FFF7AE
:108A100017FFC04688240020F0FF0000E703000095
:108A200004200020FC710200C6710200F01F00004B
:108A3000F8B50023124C23600AF068FA002808D029
:108A4000042120000AF05EFA002801D00D4B2360BB
:108A5000F8BD0122A12704250B4B0C491A6022689E
:108A6000FF0048604E68002EFCD0DE591202013D26
:108A70003243002DF5D1226001225A60E8E7C0465A
:108A800084240020ED5EBC0B00D00040FCD00040F0
:108A9000F0B585B01F000AAB1B88060002911500D7
:108AA0000393002F1BD028200DF046FC6B460400DA
:108AB0001989039BAAB200933B000AF02EFB33688E
:108AC00021005B6830009847002806D020000AF09B
:108AD0003BFB20000DF02CFC024805B0F0BD024825
:108AE000FBE7C04616FCFFFF17FCFFFF0B4B70B502
:108AF0001C68002C10D0656D00F0ACFBA36C002945
:108B000001D1834206D820000AF033FA044920003C
:108B10000AF01DFA2C00ECE770BDC046902400203E
:108B2000B0240020F0B593B007932A4B04AC1E6824
:108B3000049005910692002E4AD0274B258867881D
:108B40001C6800230293002C2ED0636D23480393EE
:108B5000A36C9AB2A36C1B0C99B2854214D1204825
:108B6000824211D1002B01D0B9420BD1029B002BC4
:108B700008D120000AF0FDF91A4920000AF0E7F9AF
:108B800001230293039CDEE7002A01D09542F9D12C
:108B9000002B01D0B942F5D120000AF0EAF91149C1
:108BA00020000AF0D4F9EDE70F4BEB18012B0FD999
:108BB00010233A00009329000C4B08A80AF0ADFAE4
:108BC000336808A99B683000984708A80AF0BCFAE7
:108BD00013B0F0BD8C240020BC240020FE03000054
:108BE000FF030000B024002002FCFFFF258B0100E2
:108BF00010B572B60B4B1C68002C08D020000AF090
:108C0000B8F90023E364084B2000E36310BD62B6AB
:108C10005C200DF091FB5C22002104000DF0DBFBD9
:108C2000EFE7C046B424002000400020024B187833
:108C3000012318407047C0460C280020F7B50600F5
:108C4000FFF7F4FF051E33D11A4C2660FFF7D0FF63
:108C5000194B1A4918600AF07AF9FFF7C9FF184B47
:108C60001860184B4363184B8363206800280ED0AC
:108C7000C027164E2A00330015490097FFF708FF5A
:108C8000009733002A0013492068FFF701FF0C20EA
:108C90000DF052FB0023838083710F4B03600F4B59
:108CA000836000F0EFFA01230D4A11780B43137033
:108CB000F7BDC0468C240020C0240020B024002032
:108CC000B8240020FC3F002039300200258B010031
:108CD000FF030000FE030000B0650200ED8A010002
:108CE0000C280020F7B506000D001700019300289E
:108CF00002D100242000FEBD0029FAD0FFF778FF42
:108D0000041EF6D0074B019A4363066045608760F6
:108D1000054B002A00D0054BA363054920000AF04B
:108D200016F9E7E7FC3F0020033002002130020083
:108D3000B0240020024B1868434258417047C04697
:108D4000B0240020002310B504499C006258002A7A
:108D500001D00133F9E76050100010BD98240020C5
:108D6000002310B5044A99008C58844201D0013385
:108D7000F9E70020885010BD9824002010B5002489
:108D8000084BA200D058002802D003685B689847BF
:108D90000134062CF4D1044B1B68002B00D120BFFA
:108DA00010BDC04698240020B0240020F8B5FFF77D
:108DB0003DFF00281CD02A4D2C68E36CDA0718D53B
:108DC00002273B43E364274B1E680423F26C300008
:108DD0001343F364636BF3630AF0F1F83000716CD2
:108DE00003F0EBFF2868C36C3B4201D004F01FF88E
:108DF000F8BD1D4F1D4E3A683168002A1ED129600A
:108E00002A68914208D11B0706D52C60FFF7B6FFF0
:108E10003B68002BFAD02B6029688C42E8D033687D
:108E2000994214D1124B4B63124B8B6320000AF012
:108E3000C6F82968626C4B6C20000DE0206DB842CA
:108E400003D1606D002800D002002A60D8E79C4260
:108E5000ECD1002210004B6C03F06EFFC8E7C04657
:108E6000C024002094240020B0240020B824002036
:108E7000FC3F00203930020070B50500FFF7D6FE38
:108E8000002803D128000DF05EF970BD0C4B1C6862
:108E9000E36CDB0706D5FFF7ABFE0A4B1860002832
:108EA00000D0040000F0D6F92D18A56420000AF0C7
:108EB00060F8054920000AF04AF8FFF777FFE4E779
:108EC000C02400209424002090240020F0B51E4BE4
:108ED0001E4F1C683B6885B006000391002B30D004
:108EE000FFF7A4FE00282CD0E36CDB070ED5FFF7BC
:108EF0007FFE174B051E186008D00AF03AF8154996
:108F000028000AF024F82C00FFF750FF039B2000F4
:108F10001B043343A3640AF02CF820000E490AF026
:108F200016F80E4B0024F318012B07D9C023009329
:108F3000039A0B4B31003868FFF7AAFD200005B0FB
:108F4000F0BD084CFAE7C046C02400208C24002065
:108F500094240020B0240020BC24002002FCFFFF49
:108F6000258B010016FCFFFF10B5FFF75FFE002800
:108F700009D0054C206809F0FCFF0449206809F07D
:108F8000E6FFFFF713FF10BDC0240020B42400202B
:108F9000F7B507000D0000282ED0FFF747FE002888
:108FA0002CD00724164E3068C36C1C4007D0154ADD
:108FB0002900380009F0F4FF00242000FEBD03F072
:108FC0001EFF02213268D36C1940019103D00321A6
:108FD0008B43D364F1E701242343D3642800B847CB
:108FE0003268D36C1900A143D164019C5B07E4D5BE
:108FF00028000AF00DF8E0E7034CDEE7034CDCE75D
:10900000C02400201130020017FCFFFF16FCFFFFF8
:10901000020010B5014B12CB12C210BDC4240020B7
:10902000034B1A68034B1A607E225A607047C04691
:1090300004200020C424002070B5114E3278022A8A
:109040001AD081421AD90C1A072C17D90D00032304
:1090500005432B4012D172B60A4DD2005051AA18C6
:1090600051608022A4081206144304603278013251
:10907000327062B6180070BD0348FCE70348FAE797
:109080000E280020CC24002013FCFFFF17FCFFFF5C
:1090900070B5134C06002378124D002B0CD11249E9
:1090A00012482B70FFF7C8FF114B984202D11E20C7
:1090B000FFF706FC0123237000242B78A34209DD6F
:1090C0000C49E300C918300009F0BCFF002805D1A5
:1090D0000134F2E71420FFF7F3FB002070BDC04617
:1090E0000D2800200E28002000380020D82800205D
:1090F00017FCFFFFCC24002070B5002819D0104BBE
:1091000010491C7800239C4216DDDA005558854230
:1091100010D28A18526882420CD9041F2368002B8F
:1091200002DC1E20FFF7CCFB802322681B061343C2
:10913000236070BD0133E6E71E20FFF7C1FBF8E7AF
:109140000E280020CC24002070B5051E14DD0B4E27
:109150000B4C3368002B02D020680CF06FFEFA2114
:1091600020680024074B89008361C462694335602D
:109170000CF06CFE200070BD0348FCE7DC240020EE
:109180000C2500203192010017FCFFFFF8B5114FAC
:1091900006003D68002D0AD130200DF0CDF8040006
:1091A00006F0B0FE0C4BA5612360E5623C600B4D00
:1091B0002B68002B09D110200DF0BEF804000CF034
:1091C00006FE20002C600CF0DCFD3000FFF7BCFF39
:1091D000F8BDC0460C250020B06D02000825002017
:1091E000014B18687047C046DC24002070B50D4C58
:1091F0002368002B03D00C4B1B68002B02D10620E8
:10920000FFF7C4FF20680CF0D3FD02000749C31725
:109210000D684E685219734120680A604B600CF06B
:10922000CDFD70BD082500200C250020A8200020C1
:1092300010B5FFF7DBFF0024054BA200D058002833
:1092400002D003681B68984701340A2CF4D110BD82
:10925000E024002010B5FFF7C9FFFA22034B92006B
:1092600018685968002307F0DBFD10BDA820002016
:1092700010B5FFF7BBFF024B1868596810BDC04618
:10928000A82000200B4B10B51B680400002B03D056
:10929000094B1B68002B02D10620FFF777FF002344
:1092A000064A99008858002801D00133F9E78C500C
:1092B00010BDC046082500200C250020E024002019
:1092C000002310B5044A99008C58844201D0013320
:1092D000F9E70020885010BDE024002010B50400FC
:1092E000002902D00B78002B03D1034B2360200010
:1092F00010BD09F07AFFFAE7C0650200F8B5040076
:109300000E00150000290AD00B78002B07D0002A88
:1093100005D0080097B20DF09EF8874203D90B4B99
:1093200023602000F8BD681DFFF7B2FE20600AF040
:1093300000F923682A005F8023683100181D0DF0B2
:109340002EF823685D1900232B71EAE7C06502003F
:10935000014B03607047C046C065020010B5054868
:10936000054C20600AF0E8F8044A054920000CF09A
:10937000D8FF10BDC065020010250020002000208D
:10938000DD310200084B73B51C680500002C0AD0C3
:10939000010026680831082268460DF000F80CCD5F
:1093A00031682000884773BD14250020014B0360FD
:1093B0007047C046C865020010B50400002903D1FB
:1093C000044B0360200010BD016008000AF0B4F8EF
:1093D000F8E7C046C865020030B500684488A1427D
:1093E0000CDA8588AA4209DA002907DB002A05DBA6
:1093F0005443401800198371002030BD0048FCE739
:1094000017FCFFFFF0B5070085B00E001D00002916
:1094100021DD002A1FDD002B1DD004686388039323
:109420008B4200DD0391A3880293934200DD0292F8
:10943000002306340193019B029A93420EDA29001D
:109440002000039A0CF0ABFF3B68AD195B88E41871
:10945000019B0133EEE7024805B0F0BD0020FBE7B9
:1094600017FCFFFFF8B504000D0016001F000029CF
:1094700001DB002A02DA0E4B2360F8BD10004843DE
:109480000630FFF705FE20600AF053F823685D8080
:1094900023689E80002F06D03B0032002900200068
:1094A000FFF7B0FFE9E7200009F07AFFE5E7C046E3
:1094B000C8650200F7B506000D1E03D1244B0360FA
:1094C0003000FEBD00200F000400010001903B7839
:1094D000002B1AD03022524294469C446246092AFC
:1094E00011D90A2B0AD1019B241801330193A142FF
:1094F00000DA2100002004000137E8E70028FBD053
:1095000001340020F8E70120F6E76A460127928837
:1095100009B212B230007F42FFF7A4FF39000A20DF
:1095200033689A1D2C78002CCAD02300303B092BBD
:1095300008D8FB43DB173B4043431B19303B1F005C
:109540000135EFE7002FFBDB177001320F00F7E763
:10955000C8650200F0B5040089B006A80E000292AA
:109560001D00FFF755FD236802995A88914235DAAC
:109570009B889D4232DA1F2E30D9079B01939E4271
:109580002CDC0523002273430393069B0493039B67
:1095900004999B18A03BCB5C00210593AE18029B5D
:1095A000CF1823685888019087420EDA9888B04215
:1095B0000BDDDB1910270F41019870431B1805982C
:1095C0000740781E87417F429F7101310529E6D10E
:1095D0000132052ADBD1002009B0F0BD0048FBE7CD
:1095E00017FCFFFFF7B50468070063880E1E0193A0
:1095F0001EDD994218DA0023063400933B68009A76
:109600009B889A4212DA019BA1199D1B2A00200017
:109610000CF0C5FE6019310009F0A5FE3B685B88BF
:10962000E418009B0133E8E709F0BAFE002000E0EF
:109630000048FEBD17FCFFFF10B50548054C206033
:1096400009F07AFF044A054920000CF06AFE10BDBB
:10965000C8650200182500200020002059330200B0
:1096600010B5054C0121200009F05AFF034A0449B6
:1096700020000CF056FE10BD1C250020002000200C
:10968000DD3402000388074A10B50120934208D058
:10969000834202D00020DB0703D41E20FFF710F91D
:1096A000002010BDFFFF00000048704716FCFFFFC0
:1096B00010B5124C002308348280046041620224F9
:1096C0001422010083718472036383860281363120
:1096D0000A78C360A243F13422400361436183618D
:1096E000C36103620A70020040321370021DD38707
:1096F000013343878387C38710BDC046E8650200F6
:10970000F0B5514F97B03B6806000593002B3FD151
:1097100006AC0B331C222121200001F0D9F90EAD3B
:109720000B231D2222210AA801F0D2F90B231B22B0
:109730002321280001F0CCF908200CF0FDFD0122C6
:10974000059B110004900BF09CFA3A2130000AF0BE
:10975000F2FF002827D0A38812ADAB80A3795C204C
:10976000AB713A4B1293A3681493237B2B73637BE7
:109770006B73A37BAB730CF0DFFD042301933633D3
:1097800000932A00049B3100040001F0BFFF3C60FD
:109790002F4B2D4C1868002802D021680AF02FF8B2
:1097A000206817B0F0BD322130000AF0F2FF002827
:1097B0001CD0A38812ADAB80A3795C20AB71234B86
:1097C0001293A3681493237B2B73637B6B73A37B2C
:1097D000AB730CF0B1FD042301932E3300932A00E8
:1097E000049B3100040002F02FF9D0E73C21300047
:1097F0000AF08AFF002822D0AB8812ACA380AB7994
:10980000A420A371114B1293AB6814932B7B237389
:109810006B7B6373AB7BA3730CF08EFD052305009C
:109820000293013B0193383300932200049B3100E3
:1098300001F08AFE064B3D6044351D60A8E73220EA
:10984000FFF73EF8A4E7C04620250020D8650200B7
:1098500024250020F0B56149C56885B08D4254DAF1
:109860000300022236331B78134059D104698C421D
:1098700064DA020036321278520768D442690192E3
:109880000200019E40328E426FDA010036310978C3
:10989000090774D4002B7DD113780293002B16D0C6
:1098A00006000127011DCB8F363601339BB2CB87D3
:1098B00003963678BC46374000D188E01D2B06D988
:1098C00063469E43039B1E700023CB87137009F0F1
:1098D00076FE434A0723904276D94249043B8D42A3
:1098E00072DBC8220133920095426DDC023B8C4250
:1098F0006ADB013B944267DC01980433884263DBF6
:109900000133904260DC00235EE0C8220023520055
:109910009542ABDD030036331A7800239207A5D4B5
:10992000012306001F00363632785408A7433C0056
:1099300002279C40BA432243327097E7C822520064
:1099400094429BDD020036321278520796D406000C
:109950000122363633789F08BA4397000422934396
:109960001A003A433270012388E7C821019E49005A
:109970008E428FDD01003631097809078AD4010053
:10998000012636310B78DF08BE430827F600BB43BB
:1099900033430B701378032B00D97DE70133DBB21F
:1099A0001370012B03D10021031DD98774E7042B09
:1099B00000D071E7020036321178033B0B4313707D
:1099C00000230430C3870B33180005B0F0BD092B0A
:1099D00000D87CE7029BCF87013B77E770FEFFFF53
:1099E000FF700200E0FCFFFF70B5C369C1681A6830
:1099F000451D8AB00400EB7F114255D0002B58D191
:109A0000EB7F082B0DD90122A379134209D113430F
:109A1000A371A188130006A809F07BFCFFF71AFCCC
:109A20002062EB7F012B23D80123A2791A421FD099
:109A30000025A188A571022202A809F06AFCA31DD5
:109A4000DE7F012E14D1FFF705FC2B00226A801A5D
:109A5000994100900191019BA188AB4203D1174B22
:109A6000009A9A4227D90123042206A809F051FC42
:109A70000322A3791340012B14D1FFF7EBFB002342
:109A8000226A801A9941994202D10D4B984209D914
:109A90000223A279A1881343A3710522012306A8FA
:109AA00009F037FC0AB070BD0B2BA9D80133EB7756
:109AB000A6E7013BFBE733000322D6E7E7030000FC
:109AC000DB05000010B50400034B08330360FFF70B
:109AD000F7FB200010BDC0461C660200F0B5070071
:109AE00000250E0085B002930AAB1B78083703935C
:109AF000104B0400083303600192858085712900B2
:109B0000182238000CF067FC039A310038000CF082
:109B10005CFA6B466A469B88127AA380A31DE671A5
:109B2000DA77631D25622000DD77FFF7ABFB2000AD
:109B300005B0F0BD1C6602000048704716FCFFFF30
:109B4000002310B50400838083710D482164083020
:109B500020608020C000A061E0612062E3602000FE
:109B6000236163616362A362E36223636363A3634C
:109B7000E3636364110009F01AFE200010BDC046C3
:109B800034660200F0B5504F97B03B68060005936D
:109B9000002B3FD10B331C22212106A80AAC00F078
:109BA00097FF0EAD0B231D222221200000F090FF15
:109BB0000B231B222321280000F08AFF08200CF031
:109BC000BBFB0122059B110004900BF05AF81D21EC
:109BD00030000AF0C7FD002825D0A38812ADAB8065
:109BE000A3796020AB71394B1293A3681493237B44
:109BF0002B73637B6B73A37BAB730CF09DFB052313
:109C00000193183300932A00049B3100040001F0F3
:109C100051FE3C602E4B2C4A1B681068002B00D074
:109C2000436417B0F0BD3C2130000AF0C9FD0028A4
:109C30001CD0A38812ADAB80A3796020AB71234BFD
:109C40001293A3681493237B2B73637B6B73A37BA7
:109C5000AB730CF071FB05230193373300932A009B
:109C6000049B3100040001F091FFD2E73C21300059
:109C70000AF04AFD002822D0AB8812ACA380AB7951
:109C8000A420A371114B1293AB6814932B7B237305
:109C90006B7B6373AB7BA3730CF04EFB052305005A
:109CA0000293013B0193383300932200049B31005F
:109CB00001F04AFC064B1D6044353D60AAE73320A5
:109CC000FEF7FEFDA6E7C04624250020D865020069
:109CD0002025002082B0F0B50400EDB0642073931D
:109CE00072920CF030FA052210A8110009F061FB05
:109CF000974911A8FFF7DEFB002221AB6CA91A607F
:109D00005A609A600C339942F9D11922002113A8A4
:109D10000CF061FBA0680AF009F900260B90FF2106
:109D2000A06800F0B9FC8B4FA06800F05FFB0796BD
:109D30000996884B9F4203D0874B9F4200DBFDE092
:109D4000A0680AF0F5F8A56884491AA8FFF7C6FAD2
:109D500078221AA9280000F0E7FB1AA809F03EFAB9
:109D600000267C4F0322099B606801331A40099248
:109D700009F0BDFC0500606809F0C0FC0022784BCA
:109D800005929D4210DB013205922A00C8320BDB9E
:109D9000AA22042192000591954205DC0222059237
:109DA000C82D01DD0132059200220692984210DB97
:109DB000012306930300C8330BDBAA2304329B0064
:109DC0000692984205DC02230693C82801DD013380
:109DD000069310A809F0E4FA002513ABEB5C012B05
:109DE00008D160496B00CA185278C95C10A8FF23DB
:109DF000FFF7F2FA0135192DEFD16B4618229A5E62
:109E00006B4610A81421595E099BFFF7E5FA002F55
:109E100001DB0F2E07D90023A068009374301A00CD
:109E200010A909F0D3FA01230893089B05995A0059
:109E30004C4B9B189A1E12788A4226D1013B1B7804
:109E4000069A934221D1089A6CAB9B18663BFF3B64
:109E50000A931B78012B18D00C23079A21685343CF
:109E60001D0000220CA809F0CCFC21AA2B0094466E
:109E70000CAA634423CA23C301220A9B01361A7029
:109E8000079BF6B20133DBB20793089B01330893BB
:109E90001A2BCAD164200CF056F9079B643F3FB2DD
:109EA000182B00D845E71A0021A91AA809F0B7FE17
:109EB0006A461DAB23CB23C21B6813601A991B9AF9
:109EC0001C9B206809F085FCE568002D0CD0264914
:109ED00012A8FFF703FA1C231AAA12A928000AF0F5
:109EE000DEFB12A809F07AF9A0680AF021F811A99E
:109EF00012A8A56809F03DFA00221C4B009212A995
:109F000001932800130000F0B3FA12A809F024FA14
:109F1000FA2080000CF017F9A0680AF009F80B99F4
:109F2000A06800F0B9FB11A809F016FA10A809F012
:109F300013FA6DB0F0BC08BC02B01847002F02D075
:109F40000F2E00D00EE7A06800F050FA0AE7C046D6
:109F5000DC7302008C3C0000D18AFFFF21740200F8
:109F600058FDFFFF4174020036740200DC0500005A
:109F7000F0B587B001930EAB1B88060003930D9BD1
:109F80000D000093019B02920C9F002B3DD0002FEF
:109F900002D1009BDB0738D528200CF0CDF9040056
:109FA000103009F0ACF96B461B89182025806380BE
:109FB0000CF0C2F90500009B08220593019B0021CB
:109FC00003600C3004970CF006FA082204A9281D3F
:109FD0000CF0E5F90E4B02226B6100230399E3605C
:109FE0002362636233680A43A560A2805B68210034
:109FF00030009847002806D0200009F0A5F820007E
:10A000000CF096F9034807B0F0BD0348FBE7C046E3
:10A010004338020016FCFFFF17FCFFFF70B58CB041
:10A020008360109B01604260C360040018491800FF
:10A030000AF0FCFA051E14D001001C22103105A8FC
:10A040000CF0ADF96A4608AB43CB43C21B68136002
:10A0500020680599069A079B09F0BBFB28000CF0C5
:10A0600067F90C4B186800280ED00B4A05AB059217
:10A0700000220692C03202926A4622CB22C22300FC
:10A0800003220521FFF774FF20000CB070BDC0460D
:10A090003674020014250020D59C0100F0B50400A0
:10A0A00085B0637A9C46002B04D1200009F0D5FDD1
:10A0B00005B0F0BDA37A266F01931023019AF356E1
:10A0C00000259B1801229A402900F368039202930D
:10A0D000029BAB4231DDB368019A6B439B187269F6
:10A0E0005B00E77AD3181A785878E379012F14D1F6
:10A0F0005F1E3F1A10003A005B004343606F8218F6
:10A10000D3189B79634500DD6346627B1A4202D017
:10A110000123AB4019430135DAE7022F05D15F1E59
:10A12000BA1A277A013F381AE6E7032FE4D1277AD3
:10A13000013FBF1A02003800DEE71123C943F3567E
:10A14000606C994023691940039B19430CF0C8F8CF
:10A15000A27B072AACD8637B0C495B006373531C5A
:10A16000DBB290004158A373022A03D808000BF019
:10A17000DFFF96E7064B2000236300236363054B54
:10A18000E462236414300BF061FE91E76066020024
:10A190009DA00100453C020010B50400044B036083
:10A1A0000BF04CFE200005F0C3FE200010BDC046A1
:10A1B000B06D020010B504000E4B08330360FFF7CA
:10A1C0007FF82000743009F0C7F82000603009F0F3
:10A1D000C3F82000583009F001F82000503008F092
:10A1E000FDFF2000044B14306361FFF7D5FF200012
:10A1F00010BDC04680660200E46D0200F8B500257F
:10A200000400324B858008330360857114301600DA
:10A210000F0005F077FE20002D4BE5626361256499
:10A220005030FFF795F820005830FFF791F82000E4
:10A230006030FFF7BBF820000423F25E3368266726
:10A24000590009B2743009F0B4F83368226FE37131
:10A2500073680126237210236581A7802561D35678
:10A2600091685918994204DD300098400133054344
:10A27000F8E711230120D356D1685918994206DD19
:10A2800002009A402669013332432261F6E7142026
:10A290000CF052F8226900212A430123060006F03F
:10A2A000DDF9FF23220063720133A38100234832CA
:10A2B0006664A37320001370A366FEF7E3FF012317
:10A2C000A27920001343A371F8BDC0468066020046
:10A2D000E46D0200F0B5437A85B00400002B04D190
:10A2E000200009F0BAFC05B0F0BD0122837A11000C
:10A2F0009C461023066F0025F35603926344994051
:10A3000002912900F3680193019BAB422CDDB368F5
:10A3100072696B4363445B00E77AD3181A78587804
:10A32000E379012F10D15F1E3F1A10003A005B0045
:10A330004343606F8218D3189B79002B02D0039B94
:10A34000AB4019430135DFE7022F05D15F1EBA1A72
:10A35000277A013F381AEAE7032FE8D1277A013F2D
:10A36000BF1A02003800E2E71123C943F356606CBC
:10A37000994023691940029B19430BF0B1FF667A9B
:10A38000B31EDBB2FC2B14D8FEF72AFF0B4B0500E3
:10A39000236300230A4863630A4BFF21E4622364BA
:10A3A000704306F017FC29004143200014300BF0E5
:10A3B0004DFD637A012B00D995E791E75B3C0200E4
:10A3C000B6030000453C02001FB5012381881A0036
:10A3D000684608F09EFF012303491A00684608F00A
:10A3E00098FF05B000BDC046FE0300001FB5030086
:10A3F00048331A780400002A0DD000221A70012375
:10A4000081881A00684608F084FF012304491A0075
:10A41000684608F07EFF2000743008F0C1FF1FBDC1
:10A42000FF03000010B548300378002B06D00378F6
:10A43000012B03D00121024808F0DAFD10BDC0460F
:10A44000FF03000010B501210400062008F0D0FD34
:10A45000064B984208D148342378002B04D0237847
:10A46000012B01D020BFF7E710BDC04616FCFFFF4F
:10A4700073B5079C0500002C1CDB060048363078BD
:10A48000002802D03078012816D106981BB2C0B23D
:10A490000090280012B2743008F098FF002C07D00A
:10A4A0002B004A331C80002407234C352C8033704A
:10A4B000200076BD014CFBE7014CF9E717FCFFFFDC
:10A4C00012FCFFFFF0B587B00D9C06000F00029252
:10A4D0000393002C20DBFFF7A5FF330048331D78E2
:10A4E000EDB2002D1AD1390005A808F042FF0C9BEF
:10A4F00001940093029A039B05A93000FFF7B8FF6F
:10A5000005A808F029FF002C03D03000FFF79AFFC0
:10A510002C00200007B0F0BD014CFAE7014CF8E731
:10A5200017FCFFFF11FCFFFFF8B50400171E1DDD2F
:10A53000060048363378002B02D03378012B17D130
:10A540002200E3795632013B1370230000252000DE
:10A5500054331D80503008F0A0FE23004A331F8082
:10A56000022328004C3425803370F8BD0148FCE7F5
:10A570000148FAE717FCFFFF12FCFFFFF7B50500E3
:10A580000F00161E18DDFFF74DFF2B0048331C7817
:10A59000E4B2002C12D1390001A808F076FE320096
:10A5A00001A92800FFF7C0FF01A808F017FE280046
:10A5B000FFF748FF2000FEBD0148FCE70148FAE72D
:10A5C00017FCFFFF11FCFFFFF8B50400171E2DDD7F
:10A5D000060048363278002A02D03278012A27D184
:10A5E0005D42069BFF331FD16B1D22001BB26432FC
:10A5F00013802300200066331D70603008F0C1FE18
:10A60000230000226C331A70954200D03D002300D5
:10A610004A331D80079B00205A1E9341013F4C3452
:10A62000053327803370F8BD069BDEE70148FAE763
:10A630000148F8E717FCFFFF12FCFFFFF0B587B0F9
:10A6400005000F00161E03931EDDFFF7EBFE2B0027
:10A6500048331C78E4B2002C18D1390005A808F062
:10A6600088FE0D9B320001930C9B05A900932800E6
:10A67000039BFFF7A9FF05A808F06EFE2800FFF76F
:10A68000E1FE200007B0F0BD0148FBE70148F9E713
:10A6900017FCFFFF11FCFFFFFF2902D841720020C9
:10A6A00070470148FCE7C04617FCFFFF13B50400E4
:10A6B00004A80078009020000BF0EEFB002801D1E8
:10A6C000207516BD0048FCE70EFCFFFF13B5040023
:10A6D00004A80078009020000BF0C6FB002801D1F0
:10A6E000207516BD0048FCE70EFCFFFF7FB50D008E
:10A6F00011000F226A4404001E1E117016D0089B20
:10A70000002B13DD012329000093FFF7DFFF002852
:10A7100002D0074804B070BD0090089B32002900A9
:10A720002000FFF7C3FF0028F4D0F2E70148F1E76B
:10A730000EFCFFFF17FCFFFFF7B507000D1E3FD013
:10A740000023022604690193002C35D0AA88A3882F
:10A750005340334204D1324204D1AB88334226D035
:10A76000646AF1E7A968A0680AF070FA0028F4D0DA
:10A770002B88002B02D022889A42F1D16B88002BC3
:10A7800002D062889A42EBD1EB68E268934201D032
:10A79000002BE5D17B68002B01D020009847A288D0
:10A7A000084B1343A380019B01330193D8E7A368AF
:10A7B000AA689342D4D1DBE7019B2000002B00DC88
:10A7C0000148FEBD0080FFFF17FCFFFFF0B506004B
:10A7D00085B00D1E5DD001270469002C26D0022112
:10A7E000AA8800230A4202D0A3885B083B40226863
:10A7F00029688A4214D1A068A968002B0ED00AF0FB
:10A8000025FA00280CD0EB68E268934208D1A388AF
:10A810001AB2002A06DB204805B0F0BD8842F2D00B
:10A82000646ADAE75B045B0CA380F4E730692A888A
:10A83000002807D1356101231849684608F069FDF1
:10A840000020E9E7010003001C88944206D25C6AFC
:10A850001900002C0DD02300F6E723001C88944239
:10A8600007D15F886C88A74203D85C6A1900002C66
:10A87000F3D1884209D10B889A4204D305D1488884
:10A880006B88984201D96962D4E74B6A6B624D626A
:10A89000D1E70348C0E7C04616FCFFFFFD030000F8
:10A8A00017FCFFFF064B10B51A00040008322C33CA
:10A8B000026083600830FEF753FA200010BDC046E6
:10A8C0009866020008B4024B9C46083808BC6047F2
:10A8D000A5A8010008B4024B9C46083808BC604794
:10A8E000D34002000C4A002311002C32083110B56D
:10A8F0004360838183738260036143618361C383A7
:10A90000016004000830FEF71DFA044B1A68002AA3
:10A9100000D11C60200010BD9866020014250020A4
:10A92000F7B50E00012504690192002C36D023886A
:10A9300032889A4201D0002B23D1638872889A42D0
:10A9400001D0002B1DD1FEF771F90123002806D09C
:10A95000C022A3881340C03B5A425341DBB2019A44
:10A96000934219D1A7883BB2002B15DB102231008E
:10A97000A0180BF014FD40231F4204D0200009F062
:10A98000B1FB646AD1E7FEF751F90028F6D0210047
:10A990000348FEF7FDFAF4E70025F2E72800FEBDC4
:10A9A000E540020008B4024B9C46083808BC6047EA
:10A9B0006D420200F0B587B001930EAB1B88060014
:10A9C00003930D9B0D000093019B02920C9F002BA3
:10A9D0003DD0002F02D1009BDB0738D528200BF09B
:10A9E000ABFC0400103008F08AFC6B461B89182071
:10A9F000258063800BF0A0FC0500009B08220593D6
:10AA0000019B002103600C3004970BF0E4FC08224A
:10AA100004A9281D0BF0C3FC0E4B02226B6100231E
:10AA20000399E3602362636233680A43A560A280EE
:10AA30005B68210030009847002806D0200008F00D
:10AA400083FB20000BF074FC034807B0F0BD034803
:10AA5000FBE7C046A742020016FCFFFF17FCFFFF02
:10AA6000F0B50400160000258380164A164B857148
:10AA70000260218146810573186889B08C46A8421E
:10AA80001DD0124A05950492C02202926A4604AB78
:10AA900082CB82C223002A006146FFF78BFFC022CF
:10AAA000094B0A49186802926A46069106AB079557
:10AAB00082CB82C223002A003100FFF77BFF2000F7
:10AAC00009B0F0BDDC66020014250020D14302006D
:10AAD00030B5002403730123034D84710560818028
:10AAE00082734373846030BDD865020070B583798A
:10AAF0000400DB0702D580680BF01AFCA3799B07E2
:10AB000002D5A0680BF014FCA3795B0707D5A0233E
:10AB10000021144ADB00D150A0680BF009FCA37996
:10AB20001B0708D5A568002D05D028000AF0FFF8FE
:10AB300028000BF0FDFBA379DB0605D5A0680028F3
:10AB400002D00368DB6898476023A2791A4205D0D7
:10AB5000A068002802D003685B6898470023A360C0
:10AB6000A37170BD00700040F7B50227037B04009D
:10AB70000D003B4226D0012926D886793E4000961A
:10AB800014D1FFF7B3FF18200BF0D6FB0E230600FD
:10AB9000E3561822009901930BF01DFC0199300037
:10ABA0000BF025FAA379A6603B43A371A3685A680A
:10ABB000002D04D00025DB681A602800FEBD1B694B
:10ABC0001A60FAE7014DF8E7014DF6E716FCFFFFC2
:10ABD00017FCFFFFF7B50126037B040033422AD0A0
:10ABE000612385791D4017D1FFF780FF18200BF0F6
:10ABF000A3FB0E230700E35618220093637B290072
:10AC000001930BF0E8FB019A009938000BF0DDF995
:10AC1000A379A7603343A3716023A279A0681A4285
:10AC200002D00BF087F8FEBD436940681B681840EE
:10AC3000431E9841F7E70148F5E7C04616FCFFFFC1
:10AC400010B50124837941731C4004D080680BF057
:10AC500086FA002010BD6022134203D080680BF0FA
:10AC600070F8F6E70048F5E716FCFFFF70B5040042
:10AC700000250C4B0E000833858085710360210090
:10AC8000183009F056FC20002100203009F074FC37
:10AC9000054BA680E5802572E56025616561200091
:10ACA0001C6070BDEC660200282500208379DB075C
:10ACB00002D5C160002070470048FCE716FCFFFF8A
:10ACC0008379DB0701D5C06870470148FCE7C046BF
:10ACD00016FCFFFF70B545690400002D22D0037AF1
:10ACE000032B21D8FFF7ECFFA8622C200BF024FBEC
:10ACF0002C22002105000BF06EFB002263695A62D2
:10AD00002369934208D1636923610020237A656136
:10AD10000133237270BD13005A6A002AFBD16269A5
:10AD20005A62F2E70148F5E70148F3E717FCFFFF35
:10AD300013FCFFFF144B70B55A68144C002A03D063
:10AD400000225A600132A2601A69002A17D000213D
:10AD500019618023DB000E4DE3582868012B0FD1C9
:10AD6000A923DB00E1584942FFF7A0FF2868FFF75D
:10AD7000B1FF2B685A69074BE2500123A36070BDF5
:10AD8000FFF794FFF9E7C046FC10004000100040B8
:10AD9000282500200405000003000069002809D0D0
:10ADA0000221054AD167426A1A611A7A013A1A7277
:10ADB000024B19607047C04604E100E000E100E08A
:10ADC00010B5002903DB024B19600BF0B5F810BD7C
:10ADD0002C25002070B504001E0004AB1D7805F082
:10ADE000D9F820000E4B40302360FEF7B1FA230063
:10ADF00001364C33013522001E701D730023E12102
:10AE00004E32A3646365138053809381D381013BE9
:10AE1000200063644902FFF7D3FF200070BDC046E5
:10AE200088650200F7B580277F053D697C690822A7
:10AE3000113C6C430600210068460BF0B0FA104B41
:10AE4000009A9A4219D00093002301937969300047
:10AE50001339694309F0A5FB019A0099300009F004
:10AE6000B8FB2100300009F09CFB7969AB0813396D
:10AE700069432200300009F09EFB0198FEBDC046E8
:10AE8000FECA0000F0B50D00A9B00D9200213022DD
:10AE9000060010A80B930BF09EFA28000BF0DBFACB
:10AEA000431C0C93102B00D9B5E00B9B202B00D931
:10AEB000B1E02900300009F0B9FB071E50D129008C
:10AEC0000C9A10A80BF06BFA0D990B9A14A80BF0C2
:10AED00066FA80235B051A695F690C92113F7A4319
:10AEE00030005D690B92FFF79DFF302200210400C6
:10AEF0001CA80BF070FA290000270C9B133959434A
:10AF0000300009F04EFB0D9730257D430B9B083335
:10AF1000ED18A74242DA290030221CA80BF03FFAB4
:10AF200010A91CA80BF08DFA002827D13C4930004D
:10AF300022000E910F9409F04CFB6A46099513AB61
:10AF400023CB23C223CB23C223CB23C23000129BAB
:10AF50001099119A09F04BFB01230D930137D3E7A8
:10AF600010300B9A0D990BF00BFA040038000BF01F
:10AF7000DFF9002CA3D1200029B0F0BD6A46099565
:10AF80001FAB23CB23C223CB23C223CB23C230004E
:10AF90001C991D9A1E9B09F02AFBDFE7E54330232D
:10AFA000ED1725405D430B9B08355D190D9B002B6C
:10AFB0001DD10C9B3021981E05F082FDA0422CD0A3
:10AFC00017490134300022000E910F9409F001FB63
:10AFD0006A46099513AB23CB23C223CB23C223CBD1
:10AFE00023C230001099119A129B09F000FB0B99B3
:10AFF000300009F0D6FA80235B0559690C230C9ABE
:10B00000133963434A430233110030000B9A09F0AD
:10B01000D2FA0024AFE7034CADE7034CABE7C046E0
:10B02000FECA000017FCFFFF13FCFFFF8023F0B5F2
:10B030005B051A6995B003925A6905910399113A13
:10B0400051435D69039B133D040002915D43FFF78B
:10B05000E9FE061E3BD0002730220021083508A853
:10B0600001950BF0B8F90199200009F09AFA0497BC
:10B0700030237B43029D0835ED18B7421FDA2900C3
:10B08000302208A80BF08BF9059908A80BF0D9F924
:10B0900000280AD11949721E20000691079209F072
:10B0A00098FA012304930137E2E70C23019A29005F
:10B0B000200009F080FA019B30330193F3E7049BF1
:10B0C000002B06D10D493200200009F082FA0C480D
:10B0D00012E00299200009F064FA80235B055969A7
:10B0E0000C23039A13394A4373431100200002339F
:10B0F000029A09F060FA002015B0F0BDFECA000007
:10B100000CFCFFFF70B50400A280FA2200230800A7
:10B110000C49920008312160A3716061E260A36074
:10B120006382094909F082FA051E09D00100200056
:10B130001031022212300BF032F928000BF0F8F82F
:10B14000200070BD046702007374020030B5022550
:10B15000837987B004002B4204D1FDF7F3FDA37976
:10B160001D43A571200009F0ABFA00281CD06B46E6
:10B17000DD1C280009F09BFA2B78002B17D001A8C2
:10B1800009F093FA0321019AD3170B409B189B10E7
:10B190002382FEF75FF8E368A18818180123A060F6
:10B1A0001A0002A808F0B5F8002007B030BD01224F
:10B1B000064B1A60064A51680029FCD000215160F4
:10B1C000044A1268019201225A60DBE700C0004085
:10B1D000FCC0004008C50040022802D10122014BFA
:10B1E0001A7070470F28002070B5064C05002378B0
:10B1F000002B04D1044801F0D9FF0123237028005B
:10B2000070BDC04610280020D9B1010070B50C00F7
:10B2100007F07CFE002810D00023144DA40A2B70E8
:10B22000200009F061FA002803D00A200AF08BFF01
:10B23000F6E72B78002BFCD070BD02210C4B0D4A99
:10B2400099508021C90008005D58002DFCD0A12133
:10B25000C9005C5019580029FCD000219950802168
:10B26000C9005A58002AFCD0E6E7C0460F28002043
:10B2700000E0014004050000F8B50C0015001E00B8
:10B2800007F044FE002811D00023174F3B70320016
:10B290002900200009F026FA002803D00A200AF02D
:10B2A00052FFF4E73B78002BFCD0F8BD01210F489A
:10B2B0000F4B844619508021C9005A58002AFCD0EF
:10B2C00080270022FF00964207DD910068586050F9
:10B2D000D9590029FCD00132F5E7002261465A50C5
:10B2E000DA59002AFCD0E0E70F280020040500000E
:10B2F00000E0014008B4024B9C46443808BC60475B
:10B30000ED460200FA21F8B50389C900040059434B
:10B31000324809F0B1FCFA21890005F0D1FB304F29
:10B320002081A17A380009F0A7FC2300260025001F
:10B3300022894C33A072A0361A808C3531780023D4
:10B340002A22286808F001FE002801D02548F8BD0F
:10B3500031781F235B22286808F0F7FD0028F5D11B
:10B36000317820235C22286808F0EFFD0028EDD119
:10B37000317801232C22286808F0E7FD0028E5D168
:10B38000317801232D22286808F0DFFD0028DDD167
:10B39000317801232E22286808F0D7FD0028D5D166
:10B3A000A17A380009F063FC3178C3B20E22286814
:10B3B00008F0CBFD0028C9D1FA212389890059431F
:10B3C000064809F054FC01230343DBB231782A22FA
:10B3D000286808F0BAFD0028B9D0B7E72467020052
:10B3E0001C6702000EFCFFFF08B4024B9C46443869
:10B3F00008BC604705B30100074B10B51A000400F4
:10B4000008323C3302604364443008F09EF9200067
:10B4100008F0CEF8200010BD8467020008B4024B8B
:10B420009C46443808BC6047F9B3010008B4024B9D
:10B430009C46443808BC6047F7460200F0B5042536
:10B4400083798BB004002B4204D1FDF77BFCA379F8
:10B450001D43A57120009030FFF7BCFB0026B042D1
:10B460000FD12300A033197820000C2307AD0093DF
:10B470008C302B0001220068FFF738F9061E03D03C
:10B480002C4E30000BB0F0BD0A2304AA9B182A787A
:10B490005A706A781A700022985EAA785A70EA7810
:10B4A0001A700022995E03912A795A706A791A708B
:10B4B00000229F5EAA795A70EA791A7000215A5EBA
:10B4C00004922A7A5A706A7A1A7000215A5E05929A
:10B4D000AA7A5A70EA7A1F251A7000229B5EA27A15
:10B4E00003999C46514349425043CB172B407A4322
:10B4F0005B185B11A361C3172B401818D3171D40AD
:10B500006423AD18059A5B425343A36764236146E5
:10B51000049A40115A434B43E2676D11221DE061CA
:10B5200025622000D36708F0B5F82000443008F009
:10B5300013F9A6E70EFCFFFF08B4024B9C46443803
:10B5400008BC60473DB40100F7B51E00040008AB1D
:10B550001B881500019309AB00911A8831000AABD2
:10B560001F88FEF7A5F820003A0031004430FEF7AE
:10B57000E7FA134B20001A003C33636423000832BF
:10B580002260009A8C331A60AB8890308380AB794C
:10B590006A4683710B4B92880360AB68032183601A
:10B5A0002B7B03736B7B4373AB7B83732300A033D1
:10B5B0001A80FFF745FB2000FFF7A4FE2000FEBD28
:10B5C00084670200D8650200F8B5FA260189B60042
:10B5D00004007143264809F04FFB310005F070FA72
:10B5E000244F2081A17A380009F046FB2500A07283
:10B5F0005835297800232A22606C08F0A6FC002820
:10B6000001D01D48F8BD297810232B22606C08F06A
:10B610009CFC0028F5D1297801232D22606C08F0CC
:10B6200094FC0028EDD1297801232E22606C08F0CB
:10B630008CFC0028E5D1A17A380009F018FB2978A4
:10B64000C3B20E22606C08F080FC0028D9D1218999
:10B650000748714309F00BFB01230343DBB2297850
:10B660002A22606C08F071FC0028CBD0C9E7C046E4
:10B67000EC670200E46702000EFCFFFF10B5040057
:10B68000034B0833036007F093FF200010BDC04652
:10B690004C6802007FB50425837904002B4204D155
:10B6A000FDF750FBA3791D43A57120004830FFF73B
:10B6B00091FA0025A8420DD12300583319780623AA
:10B6C00002AE009301223300606CFFF70FF8051EF5
:10B6D00003D00D4D280004B070BD022300210420CA
:10B6E000F356A27ADB00715630565343C000C900AE
:10B6F000514342435B42A3612368E16122629B6A3A
:10B7000020009847E6E7C0460EFCFFFFF8B50400AE
:10B71000150006AA168807AA0F0012881900FDF75F
:10B72000C7FF0F4B6764083323602300AA884833A0
:10B730009A80AA7920009A710A4AA264AA682265AE
:10B740002A7B1A736A7B5A73AA7B9A730023A371AC
:10B75000230058331E80FFF737FF2000F8BDC04696
:10B760004C680200D865020010B50400034B083392
:10B77000036007F0EAFF200010BDC046E068020049
:10B78000F0B507005C3787B0040039780023102239
:10B79000806C08F0DAFB0326002802D01F4807B0AF
:10B7A000F0BD0F2502ABED18012339780822009374
:10B7B000A06C2B00FEF79AFF184B9842EED02B7826
:10B7C000334203D06420FDF757FBEAE7FA262189CC
:10B7D000134DB6007143280009F04EFA310005F010
:10B7E0006FF920813978A0231122A06C08F0ADFBFD
:10B7F0000028D3D1A36C21890393714328003F789B
:10B8000009F035FA01231843C3B210223900039816
:10B8100008F09BFB0028C2D0C0E7C0460EFCFFFF2B
:10B820008068020070B50825837986B004002B4239
:10B8300004D1FDF787FAA3791D43A57120004C3090
:10B84000FFF7C8F9061E0DD023005C3319780623D4
:10B8500004AD009301222B00A06CFEF747FF061EEB
:10B8600003D0134E300006B070BD0E232A786B440F
:10B870005A706A7820001A700022995E64224A4346
:10B88000A263AA785A70EA781A700022995E64223C
:10B8900052425143616329795970697919700021C5
:10B8A0005B5E5A432368E2631B6A9847DAE7C04647
:10B8B0000EFCFFFFF8B50400150006AA168807AABB
:10B8C0000F0012881900FEF73BF90D4BA7640833EF
:10B8D00023602300AA884C339A80AA7920009A71A9
:10B8E000084AE264AA6862652A7B1A736A7B5A7303
:10B8F000AA7B1E829A73FFF743FF2000F8BDC04663
:10B90000E0680200D8650200F7B5FA250189204FEA
:10B91000AD0004006943380009F0AEF9290005F0D4
:10B92000CFF8A17A20811B4809F0A6F92600636CA4
:10B93000A072009321895836337869433800019307
:10B9400009F095F907230343DBB2202201990098FF
:10B9500008F0FBFA002801D00F48FEBD3178102313
:10B960002222606C08F0F1FA0028F5D1A17A09488A
:10B97000656C377809F07BF980235B420343DBB2C7
:10B9800023223900280008F0E0FA0028E5D0E3E798
:10B99000146902000C6902000EFCFFFF10B50400E0
:10B9A000034B0833036007F003FE200010BDC046C0
:10B9B00084690200F0B50425837985B004002B4228
:10B9C00004D1FDF7BFF9A3791D43A57120004830CC
:10B9D000FFF700F9061E0DD023005833197806230F
:10B9E00002AD0093A8222B00606CFEF77FFE061EBE
:10B9F00003D0144E300005B0F0BD1F200023EA5ED6
:10BA0000D31703409B180222A95E5B11CA1702409C
:10BA1000521804216F5E5211F9170140C9194911DA
:10BA20002B806A80A980A07A4343424341435B4212
:10BA3000E36123685242A26121629B6A2000984719
:10BA4000D8E7C0460EFCFFFFF8B50400150006AAB3
:10BA5000168807AA0F0012881900FDF729FE0F4B60
:10BA60006764083323602300AA8848339A80AA7940
:10BA700020009A710A4AA264AA6822652A7B1A7376
:10BA80006A7B5A73AA7B9A730023A37123005833ED
:10BA90001E80FFF739FF2000F8BDC0468469020010
:10BAA000D8650200F7B5FA2504000189134EAD00F0
:10BAB0006943300009F0E0F8290005F001F827009B
:10BAC000A36C208100935C373B7881B269433000DE
:10BAD000019309F0CCF86022C3B20199009808F0F4
:10BAE00034FA002801D00648FEBD397801236222CD
:10BAF000A06C08F02AFA0028F6D0F4E7B869020032
:10BB00000EFCFFFF10B50400034B0833036007F081
:10BB10001CFE200010BDC046E06902007FB508256C
:10BB2000837904002B4204D1FDF70CF9A3791D435E
:10BB3000A57120004C30FFF74DF8051E0DD02300F5
:10BB40005C331978062302AE0093E8223300A06C20
:10BB5000FEF7CCFD051E03D00B4D280004B070BDD0
:10BB60000223F25E96235B425A4362630021725EB7
:10BB700020005343A3630423F25E96235343E363FD
:10BB800023681B6A9847E8E70EFCFFFFF8B504003E
:10BB9000150006AA168807AA0F0012881900FDF7DB
:10BBA000CFFF0D4BA764083323602300AA884C33D2
:10BBB0009A80AA7920009A71084AE264AA686265AC
:10BBC0002A7B1A736A7B5A73AA7B1E829A73FFF7C9
:10BBD00069FF2000F8BDC046E0690200D865020098
:10BBE00010B50400054B083303601C3007F0F6FA6B
:10BBF0002000183007F0F2FA200010BD0C6A020095
:10BC0000FF23F0B52C4D8DB02B7000230400694646
:10BC10000088009303F044FF002802D16B469B7814
:10BC20002B70264E3368DB68002B07D10023208859
:10BC30001A00190008F0CFFD0DB0F0BD2B78032BD2
:10BC4000F4D81F4901A8FDF749FB336801A9DE6854
:10BC500004A807F01AFB04A9300008F01AFD002719
:10BC6000060004A807F0BAFABE421ED03100202216
:10BC7000103104A80AF093FB30000AF059FB297830
:10BC800004ABC9005918082202A80AF088FB2088D2
:10BC90000123082202A908F09EFD0137002804D1E3
:10BCA0002088084A0C2108F094FD01A807F096FAB4
:10BCB000002FBBD0C0E7C046802000203C250020DC
:10BCC00006750200FFFF0000F0B5837991B0040013
:10BCD0005B071BD5FDF7BEFA00232269801A994144
:10BCE000994203D1F423FF3398420FD9A06800286A
:10BCF00008D0364B1D8809F037F8036815221B6AF7
:10BD0000290098470422A3799343A371A3799B0741
:10BD100059D52F4D2B68DB68002B50D02D4B1B784D
:10BD2000032B4CD8294B2C491B8804A80193FDF701
:10BD3000D5FA2B6804A9DE6808A807F0A6FA08A9B6
:10BD4000300008F0A6FC070008A807F047FA02AB8D
:10BD50009E1D08233200338006A9073B019808F096
:10BD60003CFD002F08D039002022103108A80AF02D
:10BD700016FB38000AF0DCFA164B32881B7806A94D
:10BD8000DE0008AB9E1930000AF0FAFA002813D042
:10BD9000082206A930000AF002FB2B6804A9DD681E
:10BDA00005A807F072FA202308AA05A9280008F0C0
:10BDB00076FC05A807F012FA04A807F00FFA022291
:10BDC000A3799343A37111B0F0BDC046B8270020FA
:10BDD0003C2500208020002006750200F7B5089E53
:10BDE0000500152922D8012007008F40244C274246
:10BDF0001CD0E97FCC181F2C41DC69183418A142F3
:10BE000010D80021C8B2834204D9545C70188470E1
:10BE10000131F7E732789A183270EA7F9B18EB7796
:10BE200000202CE00878C8540139E8E73478013C58
:10BE3000E4B2A34208D10023D9B28C42F0D9D05C3D
:10BE4000F11888700133F7E7EF7F0120FF183F1BDF
:10BE50001F2F14DC0227A01C7F423618381B0190CC
:10BE6000E87F2F18BE4204D23078019FF05501368A
:10BE7000F6E7041B023CEC77280008F0F8FCFEBD56
:10BE8000FC002000F0B585B001930AAB1E880BAB17
:10BE90001B78451C02930EAB1B78040003930B78B0
:10BEA000170003704B8A10224382013128000AF0E8
:10BEB00076FA6B469B88268363836B461B7B002642
:10BEC00023776B4601221B7A6761E683EB77A31C1D
:10BED000DA770C9B0C256362230020000D9A28332F
:10BEE0001A705E709E702A0031002C300AF073FACE
:10BEF0002000074BE663A3632A00310040300AF0BC
:10BF00006AFA2000034B2665E36405B0F0BDC04625
:10BF1000F1470200E347020070B50D0008F024FF6E
:10BF200004000368002D09D15B699847FA2080005E
:10BF30006843074904F0C4FDE08070BD9B689847E2
:10BF40008542F3D2236820009B6898470500EDE7FF
:10BF500071020000F0B507001600A1B002C704008E
:10BF60006B4918A81D0008F0C9FC331E03D030002F
:10BF70000AF071FA83B20122049200220392029223
:10BF8000023201920093320018A93800FFF77AFFBD
:10BF900023006049583318A8079308F0AFFC2B1E04
:10BFA00003D028000AF057FA83B20122049200223B
:10BFB000039202920232019200932A0018A9079874
:10BFC000FFF760FF23005449AC3318A8089308F02A
:10BFD00095FC269B002B03D018000AF03CFA83B294
:10BFE00001220492002203920292023201920093F3
:10BFF000269A18A90898FFF745FF631CFF334749A5
:10C0000018A8099308F07AFC279B002B03D018008E
:10C010000AF021FA83B2012204920022601C0392EA
:10C020000292023201920093279A18A9FF30FFF77B
:10C0300029FF23005533FF33394918A8099308F025
:10C040005DFC289B002B03D018000AF004FA83B291
:10C050000122049200220392029202320192009382
:10C06000289A18A90998FFF70DFF2300A933FF3379
:10C070002C4918A80A9308F041FC299B002B03D0F7
:10C0800018000AF0E8F983B201220492002218ADE8
:10C0900003920292023201920093299A29000A988F
:10C0A000FFF7F0FE204B1B780B93002B2DD1079B45
:10C0B00012971393089B0DAF1493631CFF331593D2
:10C0C000099B1A4916930A9B3800179308F016FC2F
:10C0D0001D2149203B7810222B707B8A12AE6B8287
:10C0E00006ABC918C0180AF05AF906232B756B461F
:10C0F0009B8D2068AB83AE6108F03AFE036829008F
:10C100001B6898470122084B1A70200021B0F0BD2F
:10C11000292A0000242A0000252A0000272A0000DE
:10C12000262A0000282A0000112800200A180000F2
:10C1300070B5002504000B4B8580083385710360C2
:10C14000C1601830FDF704F920001C30FDF700F93C
:10C150000123621CD377044AA56065612000146046
:10C16000A37170BD0C6A02003C250020FA2130B595
:10C1700085B00500012302228900684607F0C9F84E
:10C18000074C2068002809D008F0F1FB2988054BEE
:10C1900022681980022391790B43937105B030BD59
:10C1A0003C250020B827002010B50C0007290DD829
:10C1B000806808F0D9FD064B195703685B6C9847F7
:10C1C000431E9841034B4042184010BD0248FCE713
:10C1D000FE74020016FCFFFF17FCFFFFF0B5A44C35
:10C1E0000D00A544040007939AAB1B78A14909A848
:10C1F00004930692FDF772F8200029001C3007F026
:10C200004CF8C020800000F0C7FF08200AF094F826
:10C210000600002100F0AEFE15ADA66000210C2244
:10C220000EA80AF0D8F82B000EAA83CA83C3924B3B
:10C230002900EB60002330002B6108F07EFDA06830
:10C2400008F092FD08220021059016A80AF0C3F814
:10C2500014200AF071F829000200884B1593C8C910
:10C26000C8C2874B059EC3600023A43603613368B0
:10C27000002B00D0F5E03060A06808F079FD0822BE
:10C280000021060016A80AF0A6F814200AF054F8B7
:10C290007C4B1593030086CD86C37B4BC360002384
:10C2A0000361336B002B00D0DDE03063A06808F041
:10C2B0005BFD08220021050016A80AF08CF8142066
:10C2C0000AF03AF8714B15AE1593030086CE86C37B
:10C2D0006F4B9835C360002303612B68002B00D09F
:10C2E000C3E02860012504AB1B7C04AA2B4308A9EA
:10C2F0002800137408F073FAA06808F03DFD036885
:10C3000064495B6A9847A06808F036FD0368624993
:10C310009B699847A06808F02FFD002302680093EE
:10C32000166804992A00B047049B002B0AD020000D
:10C3300008F026FB032805DDA06808F01DFD036852
:10C34000DB6898470EA808F089FA2F2004ABC018C4
:10C3500008F084FA362004ABC01808F07FFA3D20BC
:10C36000042504ABC01808F079FA0EAB0A93A06854
:10C3700004AB5D7708F000FD03680AA91B699847C4
:10C38000A06808F0F1FC03680AA95B6D9847A068F3
:10C3900008F0EAFC03680021DB6D9847A06808F00C
:10C3A000E3FC036802219B6D984700212000FFF702
:10C3B000FBFE182009F0C0FFA16800F055FA374BCA
:10C3C000374A1B68A1680393364B15A81B680026E3
:10C3D0000293354B0CAF1B680193069B1B685B19DE
:10C3E0000093324B12681B68FFF7B4FD302009F050
:10C3F000A3FF079AA16800F0F7FAA06808F0B4FC60
:10C40000036839009B6A9847294BBE80A0680C934B
:10C4100008F0AAFC03683900DB6A98472900A06885
:10C4200008F078FA099A09219378A068521908F05F
:10C4300084FAA06808F098FC32210671A068FFF722
:10C440006BFD04AB1B7FB34204D0A06808F08CFCEA
:10C4500008F04AFA09A806F0C1FE95239B009D4406
:10C46000F0BD036107E703611FE7036139E7C046D9
:10C47000ACFDFFFFEB750200FF4702006DC101003C
:10C480000D48020001BC01001B480200494802009F
:10C4900029480200B5C40100E9C401003825002084
:10C4A0003425002008200020302500200C2000200A
:10C4B0000800100013B506226846FCF71FFF094B61
:10C4C0001C68002C0AD0694601A806F0DEFE200098
:10C4D00001A908F076FA01A806F080FE684606F089
:10C4E0007DFE13BD3C250020002373B501AE0C007A
:10C4F00031000500019303F0D3FA002802D1B2788D
:10C50000064B1A70064B1868002806D0614261413C
:10C51000044BC9B21D8008F05CFA73BD8020002076
:10C520003C250020B827002030B5284CA9B06A224D
:10C530000D000DA8210009F032FF0DA903A8FCF79A
:10C540003BFF03A906A806F014FF01230193013B5A
:10C55000FF3B00930533FF33642206A92800FEF752
:10C560006DF806A806F0F8FE210019226A3106A827
:10C5700009F015FF05220024110006AB04A806F0FF
:10C580001FFF04A905A806F0F4FE019400942300FF
:10C59000220005A92800FDF795FF05A806F0DCFE9E
:10C5A00021002800FEF778F805340520FCF764FC2C
:10C5B000FF2CF5D1FA208000FCF75EFC04A806F001
:10C5C000CBFE03A806F0C8FE29B030BD7B74020084
:10C5D000F0B59C4B95B005921A68082304000391AE
:10C5E000D16C06A80B43D3649749FCF777FE9749B3
:10C5F00007A8FCF773FE220000250DAE30001C32A8
:10C6000006A906F059FE07AA310008A806F054FE54
:10C61000300006F0E3FD631CDD77A06808F0A4FBA2
:10C6200003680BAF5B699847300008F017F92B20BF
:10C6300004ABC01808F012F9322004ABC01808F09F
:10C640000DF9392004ABC01808F008F98023DB008D
:10C65000BB80A0680B9608F087FB036839005B6D10
:10C660009847A06808F080FB036829009B6D9847F5
:10C67000A06808F079FB070006000A371F2229008E
:10C68000380009F0A8FEFD77300008F024F90621F3
:10C69000A06808F03FF9089A09219378A06804324D
:10C6A00008F04BF9A06808F05FFBC8210571A0688D
:10C6B000FFF732FCA06808F057FBFF272E0005812A
:10C6C000A06808F051FB08F00FF90398FDF78EFE03
:10C6D0002000FCF737FB03992000FFF725FF0399A3
:10C6E000200008F089F90495012563691D402DD0CB
:10C6F000574909A8FCF7DEFE09A90AA806F039FE89
:10C7000000220AA91300019200920398FDF7DAFEB5
:10C710000AA806F021FE049B002B42D1043F282FDB
:10C7200041DD0025FE2F00DC049D059806F0F9FF91
:10C73000002806D0012362699A43130004221343A0
:10C740006361002609A806F007FE049504226369C8
:10C75000134233D0FF210398C826FDF79DFF002523
:10C76000B600A36902229B5EAB4222DD200029B203
:10C77000183006F0B7FD0023010003981A0074304A
:10C78000FCF7E8FE3000FCF777FB039807F0D0FBDE
:10C79000C820FCF771FB02226369134209D10135FD
:10C7A000DFE70437BBE7039807F0C2FB002FBCDDCF
:10C7B000BAE7FA208000FCF75FFB002602236569D8
:10C7C0001D421CD006331D4024D0224909A8FCF785
:10C7D00071FE09A90AA806F0CCFD00220AA901925F
:10C7E000009213000398FDF76DFE0AA806F0B4FD51
:10C7F0001948FCF741FB09A806F0AEFD174E64206E
:10C80000FCF73AFB164B01369E4200DC6CE706F063
:10C810008FFB69E7134909A8FCF74CFE09A90AA890
:10C8200006F0A7FD2B002A000AA9019500950398A0
:10C83000FDF748FE0AA806F08FFD09A806F08CFD5A
:10C84000DDE7C046C02400201275020022750200F8
:10C850002475020069750200983A00008C0A0000F5
:10C860008B0A0000A67502000022594BF0B5083370
:10C87000060003600F001000A9B0B1600BAB99185F
:10C8800001324870102AFAD10F3A524C1A700E3207
:10C89000105D991A0874013AFAD2997B5A7B090201
:10C8A0000A4331000C31039125211B7813AD2B7005
:10C8B00002ABC918452302A81B186A82180010226F
:10C8C00009F06DFD039B64216B610123002402AA22
:10C8D0002B7752181993093313701DAB1C706D23FD
:10C8E00002AA9B181C706E2321009B181EA80C2204
:10C8F000EC836C621C7009F06EFD374B0C2221003A
:10C9000023A8AB63EC6309F066FD344B02AAEB6429
:10C9100046239B180322DA7722002C650595347391
:10C9200006AD2B1901345A70102CFAD101232C4872
:10C930002B700E33195CEA1A1174013BFAD21121E3
:10C940002520AA7B6B7B12020BAC13432A786382EF
:10C9500002ABC9182270C018102209F020FD012373
:10C96000237505ABA36100233800A38308F000FA08
:10C97000036821001B68984713ABDB8BB068B38258
:10C9800008F0F6F9002203680092B18A039ADC6885
:10C990000123A047B06808F0EBF90700142009F064
:10C9A000CBFC0022012304000261069240C0083241
:10C9B0002900079309F0F3FC0A4BE360BB69002BE5
:10C9C00003D13000BC6129B0F0BD2361F9E7C04656
:10C9D000246A020002760200F1470200E3470200E7
:10C9E00012760200594A0200F0B500260400724B8C
:10C9F000DDB0083303608160C260868086713200DA
:10CA00006E4947A808F0C8F823001433012504270D
:10CA100008931223009704950193089A330047A9BD
:10CA2000039602961DA8FFF72DFA3200644947A825
:10CA300008F0B2F80C2322000097103215AF0495CD
:10CA4000019347A933000396029632A8FFF71AFA1A
:10CA500032005C49380008F09FF821001C31099130
:10CA60000423082104950191009339003300099AA9
:10CA70000396029647A8FFF705FA3200524938009C
:10CA800008F08AF8542009F057FC210012220423F0
:10CA9000183107910495019200930A003300390080
:10CAA000039602960690FFF7EDF9069A474B1000A1
:10CAB000A262D4620AA9082230300A930B9609F0C8
:10CAC0006EFC434B069A09999363293215702661CF
:10CAD0000422E661079809F062FC0422079908988D
:10CAE00009F05DFC6622032304A95218D377BA2209
:10CAF0005218D377872252005218D377069A3549B5
:10CB00000232D3771DAA0C9232AA0D9247AA0E9236
:10CB1000069AA6850F9210A8320008F03DF8302141
:10CB2000452004AA52181378123104AA3B705218F7
:10CB3000138811397B8204AB1022C918C01809F080
:10CB40002EFC04230CADA0683B75BD61BE8308F0CC
:10CB50000FF9036839001B689847822204AB9B18C1
:10CB60001B885432238404AB9B181B885432A38443
:10CB700004AB9B181B88A068638408F0F9F80700D1
:10CB8000142009F0D9FB0500134B0661082210C0E0
:10CB900010A91093119609F002FC104BEB60BB69D1
:10CBA000B34206D1BD612000FCF7CCF820005DB097
:10CBB000F0BD2B61F6E7C046306A02004276020003
:10CBC0002276020032760200527602006B4B02009F
:10CBD000D74A02006276020049CC0100014B0200F4
:10CBE000F0B504000E00150085B01F000CAB1B88CB
:10CBF0001030019306F083FB26806580182009F031
:10CC00009BFB02AE050033000AAA03CA03C32F60D0
:10CC10002800082700213A000C3009F0DCFB3A001C
:10CC20003100281D09F0BBFB064B02226B6120007E
:10CC300000230199A5600A43E360A2802362636236
:10CC400005B0F0BD2B4B0200F0B50B898DB00593FC
:10CC5000CB68050004934B88828C9A420ED1049CC9
:10CC6000049B059A9B181B1B032B39DD62882188C6
:10CC7000012308A806F04DFB0434F1E7428C9A42E8
:10CC80002ED1049C049B059A9B181B1B032B27DDAC
:10CC90002388282006936388EF680793114B089335
:10CCA0000023099309F048FBC0236A46060002935B
:10CCB00008AB03CB03C22B000699079A3000FFF79D
:10CCC0008FFF3B6831005B6838009847002805D02B
:10CCD000300006F039FA300009F02AFB0434D1E7BD
:10CCE0000DB0F0BDE94B020070B5040090B0806853
:10CCF00007F075FF022101401AD1A38D002B17D038
:10CD00000C4B6A4604931023E568A18505910293B4
:10CD100004AB41CB41C20A00230006A8FFF760FF25
:10CD20002B6806A99B682800984706A806F00CFA0D
:10CD300010B070BDE94B0200002815D000604160C2
:10CD40008260C360046145618661C76144460462D4
:10CD50004C464462544684625C46C4626446046342
:10CD60006E46466374468463002A06D0C46B043C56
:10CD7000043A25681560B442F9D18C6BA6464E6B17
:10CD8000B546002B06D0CC6B043C043B1D682560E7
:10CD9000B442F9D10C6BA446CC6AA3468C6AA24675
:10CDA0004C6AA1460C6AA046CF698E694D690C6930
:10CDB000CB688A6808684968704700604160826093
:10CDC000C360046145618661C761444604624C46A4
:10CDD0004462544684625C46C462644604636E46A0
:10CDE000466374468463C46B043C043925680D6053
:10CDF000B442F9D1C7698669456904697047006022
:10CE000041608260C360046145618661C7614446D8
:10CE100004624C464462544684625C46C462644682
:10CE200004636C4644637446846304697047846B8E
:10CE3000A646446BA546046BA446C46AA346846A0E
:10CE4000A246446AA146046AA046C7698669456944
:10CE50000469C368826800684168704710B5041EA1
:10CE60000CD009F0F8FA431EE3189C4208D222784D
:10CE70001978013B21705A700134F6E7014810BD62
:10CE80000020FCE717FCFFFFF0B585B002900C1EF8
:10CE90002AD00023C217161A56400193019B300076
:10CEA0005D1C63190A215F1E039303F079FF494259
:10CEB0003031397030000A2103F08CFE4742060001
:10CEC000002F0FD1029B002B04DA2D23019D039A22
:10CED00002351370002320006355FFF7BFFF3800B1
:10CEE00005B0F0BD0195D9E7004FF8E717FCFFFF4B
:10CEF0000268084B406810B5C018C0001018030045
:10CF00009A4205D81C688C4202D31800083BF7E708
:10CF100010BDC046FFFFFF1F70B5002817D1114D8F
:10CF20002E68002E11D1083009F006FA066046601E
:10CF30000D4E04003368002B02D108F03FFD306035
:10CF400023682C609B00F3586360286870BD012241
:10CF5000064907480B681340F8D1026043600A6035
:10CF6000F4E7C0464425002050250020402500203D
:10CF700048250020002370B50400016043609942F9
:10CF80000AD1064D2B68002B02D108F017FD28604E
:10CF900023689B00EB586360200070BD5025002083
:10CFA000436810B50400002B02D1044809F0D2F800
:10CFB000606803681B69984710BDC046727602001E
:10CFC000436810B50400002B02D1044809F0C2F8F0
:10CFD000606803689B69984710BDC046727602007E
:10CFE000436810B50400002B02D1044809F0B2F8E0
:10CFF000606803685B6A984710BDC046727602009D
:10D0000010B5040001F050FD034B1B68002B01D04C
:10D010002000984710BDC04658250020F0B58BB0C1
:10D02000050002F07DFB002000F02CFF03680700E4
:10D030001B6998473B6804009B69380098473B6828
:10D0400006005B6A380098470300288810380B28D0
:10D0500062D803F02BFD063E6161615B616161672F
:10D060006179AF882000390008F02CF822006B7B32
:10D07000583201931378A8799C46022361460B43EA
:10D08000137004AB1F80012304AA9370D0701300A7
:10D090006A461279E91D9A722B000622163305A8FA
:10D0A000099309F07CF929000B2004AB06220E310C
:10D0B000C01809F074F994346368A360A06800286C
:10D0C0002AD0C36804A99847A368002BF4D01B6931
:10D0D000F3E720002F49AF8807F0F4FF2200022079
:10D0E00058321378A9798343137004AB1F80997069
:10D0F000A0346368A360A06800280DD0C36804A9A9
:10D100009847A368002BF4D01B69F3E75B69A888F4
:10D11000A91D002B00D098472900300008F024F901
:10D120000BB0F0BD636E002BF6D0AF79A366A06E96
:10D130000028F1D0C36839009847A36E002B01D1B5
:10D14000636EF3E71B69F1E7012269460D27AB7BAC
:10D15000EF571A4001925A07920FDB080A720B73BD
:10D160000622E91D04A809F01AF96A46127904ABEF
:10D17000DA716A46127A9F711A726A46127B20002F
:10D180005A722B000F3307938C348030236804A924
:10D190009847C1E7FFFF00000723D72802D9024BB9
:10D1A000186000231800704754250020014B1860B8
:10D1B0007047C046582500201FB58022A323D20502
:10D1C000DB00D3580820DB0700D405301C4B482275
:10D1D0001C4902F0DFFC00280AD080B2002807D1E9
:10D1E000BFF34F8F184B194ADA60BFF34F8FFEE73A
:10D1F000002302A8029301330370154B1B684360A0
:10D2000007F0C2FD002802D0072005B000BD684627
:10D2100007F0B8FD0028F7D1694607F0B1FD0028F6
:10D22000F2D10C4802F0E6FC80B20028EDD10A48A9
:10D2300002F0EAFC80B20028E7D100F0FFF9E4E751
:10D240008D4D02005C25002000ED00E00400FA0591
:10D25000542500201DD0010001D0010080B200281B
:10D2600007D1BFF34F8F034B034ADA60BFF34F8FF1
:10D27000FEE7704700ED00E00400FA05024B0B608A
:10D28000092313607047C0469576020010B504006C
:10D29000002000F0F7FD03681B6998470300F33393
:10D2A0001C7086235B00C05003000021044AFC333D
:10D2B0005A61044A99615A62F43008F0C7FD10BD02
:10D2C000814F0200934F0200012110B5044A08006B
:10D2D00002F0C6FC0023984200D00B33180010BDAA
:10D2E0008DD20100F8B505000400AC356B68AB6069
:10D2F000A868002807D0C36821009847AB68002BB6
:10D30000F4D01B69F3E72600B0363568002D05D050
:10D310002F69280009F00CF83D00F7E72200FC21F6
:10D3200035605832137826000B40137023000A36FC
:10D330005C331D701F222900300009F04CF8F5778E
:10D340002A361F222900300009F045F8F577606E73
:10D35000002804D0056908F0EBFF2800F8E7250055
:10D36000983560662868002804D0066908F0E0FF58
:10D370003000F8E72600A43628603568002D05D077
:10D380002F69280008F0D4FF3D00F7E72000356042
:10D3900029000C226C3009F01EF82000074BE567CD
:10D3A000A36729000C22803009F015F82300044AF5
:10D3B0008C33903428001A602560F8BD734F02004A
:10D3C000654F0200F0B593B0019000200C0000F012
:10D3D00059FD03685B6A984700F018FE06AB002809
:10D3E0000ED000221A7105AA0692082218001A739C
:10D3F0000AAA9A6000F0D8FE002803D013B0F0BD4E
:10D4000018711873002727732771019BBA331B7893
:10D41000BB4242D907237B431A000199BB32CB1888
:10D42000BB331B788A180292022B2ED1002506AE40
:10D43000337BAB4223D9AB000393089BAA009958D6
:10D44000029808F0E4FA00281CD0B3689C46AB00B0
:10D450001900237B614402939A000868A368D050A6
:10D46000029B01332373337B5A1E954205D00C482F
:10D470001B1860469B001B580B6006AB1A730137E4
:10D48000FFB2C2E70135EDB2D1E7237921680298F6
:10D490009A00013350502371F1E70020AEE7C046F7
:10D4A000FFFFFF3FF0B50A7804009BB00D0002209B
:10D4B000012A08D04B88032A07D1A03B21499BB2FF
:10D4C00010008B4207D91BB0F0BD203B1E4A9BB217
:10D4D00003209342F7D81D4BAA8803209A42F2D822
:10D4E0000AAB009312AB02936A4600232600137125
:10D4F0001373B8363378002B1DD104AF18220021E6
:10D50000380008F068FF2B7838003B7033783B72A6
:10D510006B46FB606B883B82AB887B8207F046FCE6
:10D5200002000320002ACED10123583421781000B4
:10D530000B432370C7E769462000FFF743FF00282D
:10D54000DBD0C0E7603F0000E03F0000FF3F00008D
:10D55000F0B59DB01E006B4604001A70581C0622E0
:10D56000229D08F01CFF002E2ED0328802AB1A80BC
:10D5700072885A80B2889A80F288DA800CAB04AE46
:10D58000049314ABB36027000023B93733713373AE
:10D590003B78002B1ED101223B78022708A91340BB
:10D5A00058000B784E60BB430343002D1AD1200076
:10D5B000323000789343104003430B70A38D0B81EE
:10D5C000E38D4B81238E17E01A4B029396239B0425
:10D5D0000393D3E731002000FFF7F4FE0028DAD0F0
:10D5E0001DB0F0BDA8799343104003430B702B8806
:10D5F0000B816B884B81AB8802AA68468B8107F050
:10D60000EBFB030000208342EAD00630082BE7D072
:10D6100006D80130042BE3D0834209D10420DFE790
:10D620000520112BDCD0044A9342F7D0102BF5D003
:10D630000B20D5E732006400023200001FB5002342
:10D6400002ACA380104B01A80293C8235B00E380C7
:10D65000803BFF3B037005220C4907F03FFD80B281
:10D6600000280FD18020800007F034FD80B2002810
:10D6700008D1200007F030FD80B2002802D107F069
:10D6800027FD80B204B010BD280090019E760200F4
:10D6900013B504680093A46813000A000149A04769
:10D6A00016BDC046FFFF000037B506AC25780468FC
:10D6B00001950093246913000A000149A0473EBD6B
:10D6C000FFFF0000F0B587B00D00002469466F46EB
:10D6D00016004C800DAA0CA9098812783980019394
:10D6E000A2421BD101004479F83194420DD908318E
:10D6F0000F00083F3F88B7421BD1302120329200F3
:10D7000012580132D27F0A4215D16A4631002800F0
:10D7100007F0E8FC002808D1062407E06A4631003B
:10D72000280007F0DFFC002800D00324200007B009
:10D73000F0BD0132D9E710210A4051424A41002090
:10D7400002ACE3600CABA360174B01322680A270E1
:10D75000A0809D4207D100F095FB03681B699847A4
:10D7600007F0B3FC05002100280007F0BFFC0024EF
:10D7700082B2A242DAD0112A13D00BD8082ACBD019
:10D780006A463100280007F0ADFC05240028CDD002
:10D79000023CCBE7054B9A4203D0054B9A42EFD1AE
:10D7A000BAE70524C2E7C046FFFF000003300000CF
:10D7B00001340000F0B5050099B008002E240C914A
:10D7C00000F00AFD06ABE4181290220012A9012015
:10D7D00007F086FC002802D0032019B0F0BD238892
:10D7E0000C9A0B9093830C9B0B9A1B7D934200D851
:10D7F000C6E06B791D2B01D90720EEE70C9B9B69D6
:10D800000D930B9B0D9A9B009C586369002B07D1CD
:10D81000638B002B04D1631CDB7F022B00D1AAE0B9
:10D82000200000F0D9FC23000026283312900E9629
:10D830000D960F930F9B1B78B34221D9626AB300F8
:10D840009F58342206AB9B1800221A700023002137
:10D8500013AAD21801335170102BF8D1462206AB0F
:10D860009B184A4A13A938001A8007F0C7FC002801
:10D8700003D07B690D937B8B0E930136F6B2D9E70B
:10D880006979A31C1F31C9006918621CDB7FD27F34
:10D89000089121002A3109780020079121002931BF
:10D8A000097806910E9905910D990491217F0391B4
:10D8B000218B0291618B01916169009112A908F09D
:10D8C000D5F8002800D087E76B7907001A002032CE
:10D8D00092001F335451DB005B5BE3836B790133B0
:10D8E0006B71230028331B78BB4244D98E239B00E5
:10D8F000EB5C132B00D97FE7626ABB009E580023C4
:10D90000180013A90B70CA1801335070102BFAD1EC
:10D910001E4B30004B8207F071FC0D90002827D180
:10D92000300000F059FC8E2189006A5C738B1E3236
:10D93000FF325200AA180292327F12900192328B6B
:10D9400012A9009272690D9800F096FC002800D090
:10D9500042E78E2189006A5C531CDBB26B541D3395
:10D960007A32FF3392005B005651EB185B88F383E9
:10D970000137FFB2B5E70B980130C3B20B9332E722
:10D980002B79002001332B7127E7C04601290000C5
:10D9900070B50C220D000021040008F01CFD0023CE
:10D9A0002361024B25602000E36070BD2551020019
:10D9B00070B5050007F040FC04000620002C1CD1C7
:10D9C000280078222100803008F005FD2800E93089
:10D9D00050222100FF3008F0FEFC28000822210020
:10D9E000F83008F0F8FC054B2822E818210008F070
:10D9F000F2FC8E2320009B00EC5470BD3A02000024
:10DA000000487047FFFF0000F0B597B0059303682A
:10DA100007AD1B680491039311002B00060091C908
:10DA200091C30024D36821000C220CA8EB602C6168
:10DA300008F0D1FC22000B4B10940F9311AB1C701B
:10DA4000191901344A70102CFAD15A820193059B9E
:10DA50002A00009304990CAB3000039CA04717B038
:10DA6000F0BDC0467556020070B5FC30046C050070
:10DA7000002C0DD1242008F05FFC064B446083612C
:10DA8000054B8460C46004614461C4610360286420
:10DA9000286C70BDD86B0200C06C020070B5FC3001
:10DAA000C56B0400002D11D1342008F045FC084B53
:10DAB00085604360074B45610361074B0562C361A5
:10DAC000064BC5628362064BE0630360E06B70BD8A
:10DAD000086C0200F86B0200686C0200786C0200AF
