:020000021000EC
:1080000000400020F908020035090200370902008B
:108010000000000000000000000000000000000060
:10802000000000000000000000000000390902000C
:1080300000000000000000003B0902003D090200B2
:108040003F090200B9AD0100A50502003F09020089
:108050003F09020000000000F90602003F0902008B
:108060003F0902000D010200690602003F090200FB
:108070003F0902003F0902003F0902003F090200D8
:108080003F0902003F0902003F0902003F090200C8
:108090003F090200C1E30100B9E601003F09020007
:1080A0003F0902003F09020000000000000000003C
:1080B00000000000000000000000000000000000C0
:1080C00010B5064C2378002B07D1054B002B02D0AE
:1080D000044800E000BF0123237010BDB020002041
:1080E00000000000BC780200044B10B5002B03D048
:1080F0000349044800E000BF10BDC0460000000076
:10810000B4200020BC780200164B002B00D1144B89
:108110009D46402292029A1A924600218B460F46B3
:108120001348144A121A0EF0E8F90F4B002B00D036
:1081300098470E4B002B00D09847002000210400E8
:108140000D000D48002802D00C4800E000BF0AF0E6
:108150002FFB200029000DF056FF0AF013FBC0464C
:1081600000000800004000200000000000000000A7
:10817000A8200020D82800200000000000000000F7
:108180004022F0B5036CD1B00793436C5242089380
:10819000836C079C0993C36C0A93036D0B93436D27
:1081A0000B990C93836D0D93C36D0E9310ABD21886
:1081B0000E9B0F930D9B05930C9B04930A9B0693B8
:1081C000099B0393089B029300230193019B0F2BB0
:1081D00000D978E09B00C718C55CFB782D061D43CD
:1081E0007B781B042B43BD782D022B43136406239D
:1081F0000D000F00DD410533DF413B000F006B40F8
:108200001925EF413D005D40019B3E4F9B00166CE0
:10821000FB58049F9B19EB18059D0F408D437D4033
:108220005B190F9D27005B1902252600EF410B35D6
:10823000EE41162577402600EE41029D7740039ED1
:108240000432754025400F95029E039D2E40350057
:108250000F9E6E40069DBF195D19DF19019B01330A
:108260000193039B0693059B0F93019B402B21D108
:10827000029A079B9446DF19089B039A1C19099BD5
:108280000764634494468364049A0A9B4464634489
:108290009446C3640B9B059A5D190C9B05655918A0
:1082A0000D9B41656344944683650E9B6344C3659F
:1082B00051B0F0BD049B04910593029B29000294E8
:1082C00003933C0082E7936B11261F00F741BC46E5
:1082D0001F000236F74166469B0A77407B40566A8C
:1082E00017685568F719DB1907262F00F741BC46B8
:1082F0002F000B36F7416646ED0877406F40DF19D7
:10830000176474E7B466020010B50400034B036001
:1083100040300AF0FFFF200010BDC046AC660200EE
:10832000002813D00023436603668366084B03646A
:10833000084B4364084B8364084BC364084B0365D4
:10834000084B4365084B8365084BC3657047C046BF
:1083500067E6096A85AE67BB72F36E3C3AF54FA5D6
:108360007F520E518C68059BABD9831F19CDE05B02
:1083700070B5041E1ED000291CD00D008E18B54209
:1083800018D0A36E2A78E2540133A366402B0FD194
:108390002000FFF7F5FE236E074A934202D9626E72
:1083A00001326266802292009B1823660023A36636
:1083B0000135E4E770BDC046FFFDFFFF30B5BDB03D
:1083C000364820AC00F080F92200032134480AF03E
:1083D00081FD2025E17F637822781D91A17F28A867
:1083E0001C91617F013D1B91217F1A91E17E1991C2
:1083F000A17E1891617E1791217E1691E17D1591E4
:10840000A17D1491617D1391217D1291E17C1191E7
:10841000A17C1091617C0F91217C0E91E17B0D91EB
:10842000A17B0C91617B0B91217B0A91E17A0991EF
:10843000A17A0891617A0791217A0691E1790591F3
:10844000A17904916179039121790291E1780191F7
:10845000A178009113490AF01DFA002DBAD128A97C
:108460001FA800F07DFF78221FA90F4802F0C8F86E
:10847000FA241FA80AF04EFF64000C4D01212800C9
:1084800002F0B4FB200000F039FD0021280002F0CA
:10849000ADFB200000F032FDEFE7C046DC200020FD
:1084A000C572020024720200CC210020CC200020E2
:1084B00070B50B4C200000F049F80A4D0A492A001B
:1084C00020000DF0C0FF094C0323022208212000E8
:1084D00002F040FB2A00064920000DF0B4FF70BDF9
:1084E000DC20002000200020F5840100CC200020AA
:1084F000F12D0200D623144A9B0010B5C2501C3344
:108500000400C0180AF006FFDC239B00E0180AF004
:1085100001FF20009130FF3001F016FB2000693090
:10852000FF3001F011FB2000F03001F085FE20004B
:10853000D03002F0F9F92000643007F0EDFC201D86
:10854000FFF7E2FE200010BD386C02001423F0B5E6
:10855000040097B0009319221821043002F07CFC2B
:108560002200250026006432B43513211000149235
:10857000B83607F0DDFC28000CF0EEF800221E21D2
:1085800030000BF076FD2000D03002F0EDF9220033
:10859000F03215920621494A159801F071FE20002B
:1085A0000027012369301A0000971121FF3001F0E4
:1085B000D7FA200091300097012302221A21FF30C0
:1085C00001F0CEFA2000B9301A2301210222FF3037
:1085D00002F088FA300001F0D5F8E4225200A050F1
:1085E000300001F011FBE6235B00E0500100E422C3
:1085F00020005200D130159BA2580095FF3001F0A9
:108600004FFD2000E13029001C22FF3002F0BCFDAC
:10861000232320001293013B1193013B1093083B4D
:108620000F93013B0E93013B0D93013B0C93013BD8
:108630000B93013B0A93013B0993013B0893013BD8
:108640000793013B0693013B0593013B0493013BD8
:108650000393013B0293013B0193F930013B082254
:1086600000930721013BFF300BF024FDD6239B0034
:10867000E018290003F09EFDDF239B00E0181D2178
:1086800002F036FBE9239B00E75014982770032182
:108690000DF0E9FB23002200200009499C33A032A1
:1086A0001C6011605760074A80305A610221012224
:1086B00008F0D4F8200017B0F0BDC046B46702003F
:1086C0001D2F0200072F02000123F0B506788FB09E
:1086D00004001E4000D082E00300D0331800039352
:1086E00000F0EEFA00F0E6F928200DF0B7FE0500E4
:1086F00010300AF0A0FE6C4B18202B600DF0AEFE7F
:1087000007006A4B0460082231000C300C930D9670
:108710000DF0F3FE0CA9381D08220DF0D2FE644BBB
:10872000AF607B611223EE60AB802E626E62290027
:10873000039802F08DF8002805D028000AF0A0FD6B
:1087400028000DF087FE012322785A491343237035
:108750002300B433180005930CF004F85649049034
:1087600005980BF0FFFF00250690642000F0C6FB83
:108770002F002E0023006933FF33180007930BF0FE
:108780006CF800282DD1049B002B33D1069B002BC5
:1087900030D1E92549494A48AD0000F08FFC6359C2
:1087A000002B1CD100F09AF801000AA800F0D8FDB7
:1087B0000BA80AF026FCD6239B00E018069B0BAA08
:1087C0000AA90093039B03F04BFD0BA80AF0A2FD3E
:1087D0000AA80AF09FFDD8239B00E35863510FB00D
:1087E000F0BD20009130FF300BF037F80028CAD0E0
:1087F000182EC8DC2000653039B22AB2FF23FF30C2
:10880000013700F02BFEFFB2322000F077FB01367B
:10881000052F02D100270135EDB2049B192E06D099
:10882000002BA7D02349059802F042FC01E0002B61
:10883000F8D104980DF00EFE06980DF00BFE1F49BE
:108840001F4800F03BFCD6239B00E3180893E92364
:108850009B00E3580993002B1ED100F03FF8010064
:108860000AA800F07DFD0BA80AF0CBFB01230BAAA0
:108870000AA900930898039B03F0F2FC0BA80AF0E6
:1088800049FD0AA80AF046FDD8239B00E358099346
:10889000E923099A9B00E2502100079AF0310898D9
:1088A00003F0D8FE66E7C046FD0300008F2F0200EC
:1088B0004F2F0200FF7202000A7302000020002006
:1088C000001C0020BFF34F8F024B034ADA60BFF356
:1088D0004F8FFEE700ED00E00400FA05F0B58DB023
:1088E00005AF1922154938000DF0EBFD0022144B9D
:1088F00005245A7180225205566E012225000194EA
:10890000029203930199300008F09AF90800029945
:1089100008F010F9019B03996B430193029B361AEF
:108920006B430293631E2C1B6C433C19225C1C1E80
:10893000CA54E7D108000DB0F0BDC0461A7302005A
:1089400006280020F0B597B018220021060010A8D4
:108950000DF0D3FD132110A80DF0C4FB032110A8C6
:108960000DF08FFC4C4B1B68002B00D10133DBB2A8
:1089700002934A4A012300210BA807F0A9FE484BA5
:108980009E4200D9002672B6464B64211D68464BB4
:1089900030000793052408F057F960435030281839
:1089A00008900A21300008F04FF90A2108F032FA45
:1089B000614350316918099130000A2108F02AFA00
:1089C000802361430024503169189B010A9101936F
:1089D000029B002B5DD0002500272E1F07AB9B19A3
:1089E0000593032C03D1802300249B01019307AB43
:1089F0005B592E4A03936300D31804930023190094
:108A000006205843049A16187678B4466246039EA8
:108A1000B25C10269446049A105C624606411642E7
:108A200002D00120984001430133092BE8D1C9430A
:108A30001F4B059A090119401268039B934225D1E7
:108A4000312F23DC00210BA80DF0DCFCFA23159A52
:108A50001199DB00106801421BD0013B002BF9D1BA
:108A6000019B01345B000193FA230137E4B25B0000
:108A70009F42B6D10435102DAED1074B1B68002B99
:108A8000A6D0029F013FFBB20293A1E7019B1943CD
:108A9000D9E7FFF717FFC04688240020F0FF000049
:108AA000E703000004200020697302003373020012
:108AB000F01F0000F8B50023124C23600AF0C2FA40
:108AC000002808D0042120000AF0B8FA002801D0BC
:108AD0000D4B2360F8BD0122A12704250B4B0C4947
:108AE0001A602268FF0048604E68002EFCD0DE59F4
:108AF0001202013D3243002DF5D1226001225A605D
:108B0000E8E7C04684240020ED5EBC0B00D00040A6
:108B1000FCD00040F0B585B01F000AAB1B880600F2
:108B2000029115000393002F1BD028200DF096FC16
:108B30006B4604001989039BAAB200933B000AF01C
:108B400088FB336821005B6830009847002806D016
:108B500020000AF095FB20000DF07CFC024805B0D7
:108B6000F0BD0248FBE7C04616FCFFFF17FCFFFF05
:108B70000B4B70B51C68002C10D0656D00F0ACFB81
:108B8000A36C002901D1834206D820000AF08DFA97
:108B9000044920000AF077FA2C00ECE770BDC046CB
:108BA00090240020B0240020F0B593B007932A4B06
:108BB00004AC1E68049005910692002E4AD0274B03
:108BC000258867881C6800230293002C2ED0636DD3
:108BD00023480393A36C9AB2A36C1B0C99B28542F1
:108BE00014D12048824211D1002B01D0B9420BD1BF
:108BF000029B002B08D120000AF057FA1A492000E6
:108C00000AF041FA01230293039CDEE7002A01D017
:108C10009542F9D1002B01D0B942F5D120000AF0DC
:108C200044FA114920000AF02EFAEDE70F4BEB1839
:108C3000012B0FD910233A00009329000C4B08A8F0
:108C40000AF007FB336808A99B683000984708A81A
:108C50000AF016FB13B0F0BD8C240020BC240020C9
:108C6000FE030000FF030000B024002002FCFFFF11
:108C7000A98B010010B572B60B4B1C68002C08D0F4
:108C800020000AF012FA0023E364084B2000E3639B
:108C900010BD62B65C200DF0E1FB5C2200210400F7
:108CA0000DF02BFCEFE7C046B4240020004000206C
:108CB000024B1878012318407047C0460C2800204A
:108CC000F7B50600FFF7F4FF051E33D11A4C2660F6
:108CD000FFF7D0FF194B1A4918600AF0D4F9FFF7D3
:108CE000C9FF184B1860184B4363184B8363206807
:108CF00000280ED0C027164E2A00330015490097D1
:108D0000FFF708FF009733002A0013492068FFF798
:108D100001FF0C200DF0A2FB0023838083710F4B19
:108D200003600F4B836000F0EFFA01230D4A1178C6
:108D30000B431370F7BDC0468C240020C0240020D4
:108D4000B0240020B8240020FC3F00207131020034
:108D5000A98B0100FF030000FE030000D46702009E
:108D6000718B01000C280020F7B506000D001700DC
:108D70000193002802D100242000FEBD0029FAD072
:108D8000FFF778FF041EF6D0074B019A4363066095
:108D900045608760054B002A00D0054BA363054959
:108DA00020000AF070F9E7E7FC3F00203B310200A9
:108DB00059310200B0240020024B18684342584148
:108DC0007047C046B0240020002310B504499C0021
:108DD0006258002A01D00133F9E76050100010BD3D
:108DE00098240020002310B5044A99008C5884422E
:108DF00001D00133F9E70020885010BD98240020ED
:108E000010B50024084BA200D058002802D00368F7
:108E10005B6898470134062CF4D1044B1B68002B87
:108E200000D120BF10BDC04698240020B0240020EF
:108E3000F8B5FFF73DFF00281CD02A4D2C68E36CE5
:108E4000DA0718D502273B43E364274B1E68042347
:108E5000F26C30001343F364636BF3630AF04BF975
:108E60003000716C03F0EBFF2868C36C3B4201D00B
:108E700004F01FF8F8BD1D4F1D4E3A683168002AF6
:108E80001ED129602A68914208D11B0706D52C60A3
:108E9000FFF7B6FF3B68002BFAD02B6029688C42A5
:108EA000E8D03368994214D1124B4B63124B8B6359
:108EB00020000AF020F92968626C4B6C20000DE05C
:108EC000206DB84203D1606D002800D002002A60F6
:108ED000D8E79C42ECD1002210004B6C03F06EFFEF
:108EE000C8E7C046C024002094240020B0240020FD
:108EF000B8240020FC3F00207131020070B505004D
:108F0000FFF7D6FE002803D128000DF0AEF970BDA2
:108F10000C4B1C68E36CDB0706D5FFF7ABFE0A4B76
:108F20001860002800D0040000F0D6F92D18A564C0
:108F300020000AF0BAF8054920000AF0A4F8FFF76B
:108F400077FFE4E7C0240020942400209024002030
:108F5000F0B51E4B1E4F1C683B6885B006000391A0
:108F6000002B30D0FFF7A4FE00282CD0E36CDB07E9
:108F70000ED5FFF77FFE174B051E186008D00AF0CC
:108F800094F8154928000AF07EF82C00FFF750FFEE
:108F9000039B20001B043343A3640AF086F82000DF
:108FA0000E490AF070F80E4B0024F318012B07D974
:108FB000C0230093039A0B4B31003868FFF7AAFDDA
:108FC000200005B0F0BD084CFAE7C046C0240020E0
:108FD0008C24002094240020B0240020BC240020F5
:108FE00002FCFFFFA98B010016FCFFFF10B5FFF785
:108FF0005FFE002809D0054C20680AF056F80449A5
:1090000020680AF040F8FFF713FF10BDC0240020CD
:10901000B4240020F7B507000D0000282ED0FFF77C
:1090200047FE00282CD00724164E3068C36C1C4025
:1090300007D0154A290038000AF04EF80024200015
:10904000FEBD03F01EFF02213268D36C194001916E
:1090500003D003218B43D364F1E701242343D3647A
:109060002800B8473268D36C1900A143D164019C31
:109070005B07E4D528000AF067F8E0E7034CDEE779
:10908000034CDCE7C02400204931020017FCFFFF3D
:1090900016FCFFFF020010B5014B12CB12C210BD2F
:1090A000C4240020034B1A68034B1A607E225A60C6
:1090B0007047C04604200020C424002070B5114E23
:1090C0003278022A1AD081421AD90C1A072C17D9E1
:1090D0000D00032305432B4012D172B60A4DD20076
:1090E0005051AA1851608022A4081206144304604B
:1090F00032780132327062B6180070BD0348FCE766
:109100000348FAE70E280020CC24002013FCFFFFC0
:1091100017FCFFFF70B5134C06002378124D002B8F
:109120000CD1124912482B70FFF7C8FF114B98421F
:1091300002D11E20FFF706FC0123237000242B78A8
:10914000A34209DD0C49E300C91830000AF016F803
:10915000002805D10134F2E71420FFF7F3FB0020CB
:1091600070BDC0460D2800200E28002000380020C9
:10917000D828002017FCFFFFCC24002070B5002861
:1091800019D0104B10491C7800239C4216DDDA00E0
:109190005558854210D28A18526882420CD9041F51
:1091A0002368002B02DC1E20FFF7CCFB8023226803
:1091B0001B061343236070BD0133E6E71E20FFF753
:1091C000C1FBF8E70E280020CC24002070B5051E56
:1091D00014DD0B4E0B4C3368002B02D020680CF0D2
:1091E000BFFEFA2120680024074B89008361C46216
:1091F000694335600CF0BCFE200070BD0348FCE7FD
:10920000DC2400200C250020B592010017FCFFFF94
:10921000F8B5114F06003D68002D0AD130200DF041
:109220001DF9040006F0A8FE0C4BA5612360E56261
:109230003C600B4D2B68002B09D110200DF00EF96E
:1092400004000CF056FE20002C600CF02CFE3000C8
:10925000FFF7BCFFF8BDC0460C250020D46F02000C
:1092600008250020014B18687047C046DC24002008
:1092700070B50D4C2368002B03D00C4B1B68002BE2
:1092800002D10620FFF7C4FF20680CF023FE020085
:109290000749C3170D684E685219734120680A6068
:1092A0004B600CF01DFE70BD082500200C25002031
:1092B000A820002010B5FFF7DBFF0024054BA2001B
:1092C000D058002802D003681B68984701340A2C44
:1092D000F4D110BDE024002010B5FFF7C9FFFA2239
:1092E000034B920018685968002307F0D3FD10BDA6
:1092F000A820002010B5FFF7BBFF024B1868596883
:1093000010BDC046A82000200B4B10B51B68040000
:10931000002B03D0094B1B68002B02D10620FFF75E
:1093200077FF0023064A99008858002801D00133AE
:10933000F9E78C5010BDC046082500200C25002000
:10934000E0240020002310B5044A99008C58844280
:1093500001D00133F9E70020885010BDE02400203F
:1093600010B50400002902D00B78002B03D1034B69
:109370002360200010BD09F0D4FFFAE7E467020083
:10938000F8B504000E00150000290AD00B78002B58
:1093900007D0002A05D0080097B20DF0EEF88742FA
:1093A00003D90B4B23602000F8BD681DFFF7B2FE08
:1093B00020600AF05AF923682A005F802368310090
:1093C000181D0DF07EF823685D1900232B71EAE764
:1093D000E4670200014B03607047C046E467020087
:1093E00010B50548054C20600AF042F9044A0549C9
:1093F00020000DF028F810BDE467020010250020C1
:109400000020002015330200084B73B51C680500CE
:10941000002C0AD0010026680831082268460DF0A9
:1094200050F80CCD31682000884773BD142500200A
:10943000014B03607047C046EC67020010B50400A2
:10944000002903D1044B0360200010BD0160080017
:109450000AF00EF9F8E7C046EC67020030B5006884
:109460004488A1420CDA8588AA4209DA002907DB80
:10947000002A05DB5443401800198371002030BDD9
:109480000048FCE717FCFFFFF0B5070085B00E00B1
:109490001D00002921DD002A1FDD002B1DD00468DE
:1094A000638803938B4200DD0391A3880293934268
:1094B00000DD0292002306340193019B029A93423D
:1094C0000EDA29002000039A0CF0FBFF3B68AD196F
:1094D0005B88E418019B0133EEE7024805B0F0BD5C
:1094E0000020FBE717FCFFFFF8B504000D00160095
:1094F0001F00002901DB002A02DA0E4B2360F8BDB1
:10950000100048430630FFF705FE20600AF0ADF872
:1095100023685D8023689E80002F06D03B003200C8
:1095200029002000FFF7B0FFE9E7200009F0D4FF91
:10953000E5E7C046EC670200F7B506000D1E03D153
:10954000244B03603000FEBD00200F00040001002A
:1095500001903B78002B1AD03022524294469C4412
:109560006246092A11D90A2B0AD1019B241801331A
:109570000193A14200DA2100002004000137E8E74E
:109580000028FBD001340020F8E70120F6E76A4606
:109590000127928809B212B230007F42FFF7A4FF80
:1095A00039000A2033689A1D2C78002CCAD0230079
:1095B000303B092B08D8FB43DB173B4043431B19C7
:1095C000303B1F000135EFE7002FFBDB1770013246
:1095D0000F00F7E7EC670200F0B5040089B006A8B9
:1095E0000E0002921D00FFF755FD236802995A886C
:1095F000914235DA9B889D4232DA1F2E30D9079B83
:1096000001939E422CDC0523002273430393069BA7
:109610000493039B04999B18A03BCB5C002105930A
:10962000AE18029BCF1823685888019087420EDA43
:109630009888B0420BDDDB1910270F410198704369
:109640001B1805980740781E87417F429F710131A2
:109650000529E6D10132052ADBD1002009B0F0BD91
:109660000048FBE717FCFFFFF7B5046807006388B5
:109670000E1E01931EDD994218DA00230634009372
:109680003B68009A9B889A4212DA019BA1199D1BA4
:109690002A0020000CF015FF6019310009F0FFFED0
:1096A0003B685B88E418009B0133E8E709F014FF8E
:1096B000002000E00048FEBD17FCFFFF10B5054884
:1096C000054C206009F0D4FF044A054920000CF045
:1096D000BAFE10BDEC670200182500200020002013
:1096E0009134020010B5054C0121200009F0B4FFAF
:1096F000034A044920000CF0A6FE10BD1C250020E2
:1097000000200020153602000388074A10B501200A
:10971000934208D0834202D00020DB0703D41E20EE
:10972000FFF710F9002010BDFFFF00000048704750
:1097300016FCFFFF10B5124C002308348280046031
:1097400041620224142201008371847203638386C0
:10975000028136310A78C360A243F13422400361AA
:1097600043618361C36103620A7002004032137077
:10977000021DD387013343878387C38710BDC0464B
:109780000C680200F0B5514F97B03B680600059396
:10979000002B3FD106AC0B331C222121200001F00D
:1097A000D9F90EAD0B231D2222210AA801F0D2F90E
:1097B0000B231B222321280001F0CCF908200CF0F8
:1097C0004DFE0122059B110004900BF0F6FA3A21A0
:1097D00030000BF04CF8002827D0A38812ADAB80E6
:1097E000A3795C20AB713A4B1293A3681493237B4B
:1097F0002B73637B6B73A37BAB730CF02FFE042383
:109800000193363300932A00049B3100040001F0D9
:10981000BFFF3C602F4B2D4C1868002802D02168F8
:109820000AF089F8206817B0F0BD322130000BF043
:109830004CF800281CD0A38812ADAB80A3795C2023
:10984000AB71234B1293A3681493237B2B73637B1D
:109850006B73A37BAB730CF001FE042301932E33D7
:1098600000932A00049B3100040002F02FF9D0E796
:109870003C2130000AF0E4FF002822D0AB8812AC73
:10988000A380AB79A420A371114B1293AB681493FE
:109890002B7B23736B7B6373AB7BA3730CF0DEFDBD
:1098A000052305000293013B019338330093220006
:1098B000049B310001F08AFE064B3D6044351D607B
:1098C000A8E73220FFF73EF8A4E7C0462025002095
:1098D000FC67020024250020F0B56149C56885B009
:1098E0008D4254DA0300022236331B78134059D1DB
:1098F00004698C4264DA020036321278520768D466
:10990000426901920200019E40328E426FDA0100EC
:1099100036310978090774D4002B7DD1137802936E
:10992000002B16D006000127011DCB8F36360133E0
:109930009BB2CB8703963678BC46374000D188E08F
:109940001D2B06D963469E43039B1E700023CB87C5
:10995000137009F0D0FE434A0723904276D942495A
:10996000043B8D4272DBC8220133920095426DDCCC
:10997000023B8C426ADB013B944267DC0198043372
:10998000884263DB0133904260DC00235EE0C82242
:10999000002352009542ABDD030036331A780023D2
:1099A0009207A5D4012306001F00363632785408EA
:1099B000A7433C0002279C40BA432243327097E7FA
:1099C000C822520094429BDD0200363212785207C0
:1099D00096D406000122363633789F08BA439700A2
:1099E000042293431A003A433270012388E7C821C6
:1099F000019E49008E428FDD01003631097809074A
:109A00008AD40100012636310B78DF08BE430827CF
:109A1000F600BB4333430B701378032B00D97DE76B
:109A20000133DBB21370012B03D10021031DD98751
:109A300074E7042B00D071E7020036321178033B43
:109A40000B43137000230430C3870B33180005B099
:109A5000F0BD092B00D87CE7029BCF87013B77E75D
:109A600070FEFFFFFF700200E0FCFFFF70B5C369EE
:109A7000C1681A68451D8AB00400EB7F114255D0B9
:109A8000002B58D1EB7F082B0DD90122A37913426B
:109A900009D11343A371A188130006A809F0D5FCCE
:109AA000FFF71AFC2062EB7F012B23D80123A27958
:109AB0001A421FD00025A188A571022202A809F030
:109AC000C4FCA31DDE7F012E14D1FFF705FC2B0083
:109AD000226A801A994100900191019BA188AB42B2
:109AE00003D1174B009A9A4227D90123042206A8D2
:109AF00009F0ABFC0322A3791340012B14D1FFF72B
:109B0000EBFB0023226A801A9941994202D10D4B46
:109B1000984209D90223A279A1881343A37105228F
:109B2000012306A809F091FC0AB070BD0B2BA9D83F
:109B30000133EB77A6E7013BFBE733000322D6E7CF
:109B4000E7030000DB05000010B50400034B0833F9
:109B50000360FFF7F7FB200010BDC046406802001D
:109B6000F0B5070000250E0085B002930AAB1B7804
:109B700008370393104B040008330360019285807B
:109B800085712900182238000CF0B7FC039A3100C7
:109B900038000CF0ACFA6B466A469B88127AA380B8
:109BA000A31DE671DA77631D25622000DD77FFF7DC
:109BB000ABFB200005B0F0BD4068020000487047D4
:109BC00016FCFFFF002310B50400838083710D484D
:109BD0002164083020608020C000A061E061206224
:109BE000E3602000236163616362A362E362236335
:109BF0006363A363E3636364110009F074FE2000F0
:109C000010BDC04658680200F0B5504F97B03B6891
:109C100006000593002B3FD10B331C22212106A8FF
:109C20000AAC00F097FF0EAD0B231D22222120006D
:109C300000F090FF0B231B222321280000F08AFF55
:109C400008200CF00BFC0122059B110004900BF086
:109C5000B4F81D2130000AF021FE002825D0A38889
:109C600012ADAB80A3796020AB71394B1293A3681E
:109C70001493237B2B73637B6B73A37BAB730CF00D
:109C8000EDFB05230193183300932A00049B310058
:109C9000040001F051FE3C602E4B2C4A1B681068FA
:109CA000002B00D0436417B0F0BD3C2130000AF017
:109CB00023FE00281CD0A38812ADAB80A3796020BE
:109CC000AB71234B1293A3681493237B2B73637B99
:109CD0006B73A37BAB730CF0C1FB0523019337338C
:109CE00000932A00049B3100040001F091FFD2E7A9
:109CF0003C2130000AF0A4FD002822D0AB8812AC31
:109D0000A380AB79A420A371114B1293AB68149379
:109D10002B7B23736B7B6373AB7BA3730CF09EFB7A
:109D2000052305000293013B019338330093220081
:109D3000049B310001F04AFC064B1D6044353D6038
:109D4000AAE73320FEF7FEFDA6E7C0462425002043
:109D5000FC6702002025002082B0F0B50400EDB0C1
:109D60006420739372920CF080FA052210A81100FF
:109D700009F0BBFB974911A8FFF7DEFB002221ABDE
:109D80006CA91A605A609A600C339942F9D1192271
:109D9000002113A80CF0B1FBA0680AF063F90026BB
:109DA0000B90FF21A06800F0B9FC8B4FA06800F079
:109DB0005FFB07960996884B9F4203D0874B9F42D3
:109DC00000DBFDE0A0680AF04FF9A56884491AA8F5
:109DD000FFF7C6FA78221AA9280000F0E7FB1AA8B4
:109DE00009F098FA00267C4F0322099B6068013332
:109DF0001A40099209F017FD0500606809F01AFD84
:109E00000022784B05929D4210DB013205922A0018
:109E1000C8320BDBAA22042192000591954205DC91
:109E200002220592C82D01DD013205920022069220
:109E3000984210DB012306930300C8330BDBAA23EF
:109E400004329B000692984205DC02230693C82840
:109E500001DD0133069310A809F03EFB002513AB8A
:109E6000EB5C012B08D160496B00CA185278C95CC1
:109E700010A8FF23FFF7F2FA0135192DEFD16B4639
:109E800018229A5E6B4610A81421595E099BFFF7B1
:109E9000E5FA002F01DB0F2E07D90023A0680093FD
:109EA00074301A0010A909F02DFB01230893089BB8
:109EB00005995A004C4B9B189A1E12788A4226D15B
:109EC000013B1B78069A934221D1089A6CAB9B18F0
:109ED000663BFF3B0A931B78012B18D00C23079A93
:109EE000216853431D0000220CA809F026FD21AA79
:109EF0002B0094460CAA634423CA23C301220A9B65
:109F000001361A70079BF6B20133DBB20793089B48
:109F1000013308931A2BCAD164200CF0A6F9079BD1
:109F2000643F3FB2182B00D845E71A0021A91AA8B0
:109F300009F011FF6A461DAB23CB23C21B681360D7
:109F40001A991B9A1C9B206809F0DFFCE568002D1C
:109F50000CD0264912A8FFF703FA1C231AAA12A94B
:109F600028000AF038FC12A809F0D4F9A0680AF019
:109F70007BF811A912A8A56809F097FA00221C4BDA
:109F8000009212A901932800130000F0B3FA12A85E
:109F900009F07EFAFA2080000CF067F9A0680AF058
:109FA00063F80B99A06800F0B9FB11A809F070FAEA
:109FB00010A809F06DFA6DB0F0BC08BC02B01847EB
:109FC000002F02D00F2E00D00EE7A06800F050FA4C
:109FD0000AE7C046497502008C3C0000D18AFFFFA9
:109FE0008E75020058FDFFFFAE750200A3750200DA
:109FF000DC050000F0B587B001930EAB1B880600AE
:10A0000003930D9B0D000093019B02920C9F002B6C
:10A010003DD0002F02D1009BDB0738D528200CF063
:10A020001DFA0400103009F006FA6B461B8918204F
:10A03000258063800CF012FA0500009B082205932E
:10A04000019B002103600C3004970CF056FA0822A3
:10A0500004A9281D0CF035FA0E4B02226B61002377
:10A060000399E3602362636233680A43A560A280B8
:10A070005B68210030009847002806D0200009F0D6
:10A08000FFF820000CF0E6F9034807B0F0BD0348E4
:10A09000FBE7C0467B39020016FCFFFF17FCFFFF01
:10A0A00070B58CB08360109B01604260C360040097
:10A0B000184918000AF056FB051E14D001001C2296
:10A0C000103105A80CF0FDF96A4608AB43CB43C23A
:10A0D0001B68136020680599069A079B09F015FC18
:10A0E00028000CF0B7F90C4B186800280ED00B4A6A
:10A0F00005AB059200220692C03202926A4622CB3C
:10A1000022C2230003220521FFF774FF20000CB0B8
:10A1100070BDC046A375020014250020599D0100A2
:10A12000F0B5040085B0637A9C46002B04D1200072
:10A1300009F02FFE05B0F0BDA37A266F019310231E
:10A14000019AF35600259B1801229A402900F368D2
:10A1500003920293029BAB4231DDB368019A6B43D9
:10A160009B1872695B00E77AD3181A785878E379FC
:10A17000012F14D15F1E3F1A10003A005B004343C9
:10A18000606F8218D3189B79634500DD6346627B5C
:10A190001A4202D00123AB4019430135DAE7022FFE
:10A1A00005D15F1EBA1A277A013F381AE6E7032F56
:10A1B000E4D1277A013FBF1A02003800DEE71123FD
:10A1C000C943F356606C994023691940039B1943B6
:10A1D0000CF018F9A27B072AACD8637B0C495B0012
:10A1E0006373531CDBB290004158A373022A03D857
:10A1F00008000CF02FF896E7064B2000236300239D
:10A200006363054BE462236414300BF0B1FE91E705
:10A210008468020021A101007D3D020010B5040008
:10A22000044B03600BF09CFE200005F0BBFE2000F9
:10A2300010BDC046D46F020010B504000E4B0833A9
:10A240000360FFF77FF82000743009F021F9200047
:10A25000603009F01DF92000583009F05BF820004B
:10A26000503009F057F82000044B14306361FFF7B9
:10A27000D5FF200010BDC046A4680200087002008F
:10A28000F8B500250400324B8580083303608571E2
:10A29000143016000F0005F06FFE20002D4BE56214
:10A2A000636125645030FFF795F820005830FFF7C0
:10A2B00091F820006030FFF7BBF820000423F25E25
:10A2C00033682667590009B2743009F00EF9336813
:10A2D000226FE37173680126237210236581A780C2
:10A2E0002561D35691685918994204DD3000984091
:10A2F00001330543F8E711230120D356D1685918DB
:10A30000994206DD02009A402669013332432261F8
:10A31000F6E714200CF0A2F8226900212A43012359
:10A32000060006F0D5F9FF23220063720133A381F2
:10A33000002348326664A37320001370A366FEF7FF
:10A34000E3FF0123A27920001343A371F8BDC046A7
:10A35000A468020008700200F0B5437A85B00400DA
:10A36000002B04D1200009F014FD05B0F0BD01223E
:10A37000837A11009C461023066F0025F356039242
:10A380006344994002912900F3680193019BAB4219
:10A390002CDDB36872696B4363445B00E77AD318C2
:10A3A0001A785878E379012F10D15F1E3F1A1000F8
:10A3B0003A005B004343606F8218D3189B79002BEF
:10A3C00002D0039BAB4019430135DFE7022F05D1D3
:10A3D0005F1EBA1A277A013F381AEAE7032FE8D13D
:10A3E000277A013FBF1A02003800E2E71123C94370
:10A3F000F356606C994023691940029B19430CF095
:10A4000001F8667AB31EDBB2FC2B14D8FEF72AFFE4
:10A410000B4B0500236300230A4863630A4BFF21AB
:10A42000E4622364704306F00FFC290041432000DE
:10A4300014300BF09DFD637A012B00D995E791E76D
:10A44000933D0200B60300007D3D02001FB50123CD
:10A4500081881A00684608F0F8FF012303491A00B2
:10A46000684608F0F2FF05B000BDC046FE030000DC
:10A470001FB5030048331A780400002A0DD00022CB
:10A480001A70012381881A00684608F0DEFF012354
:10A4900004491A00684608F0D8FF2000743009F01B
:10A4A0001BF81FBDFF03000010B548300378002BD8
:10A4B00006D00378012B03D00121024808F034FEB6
:10A4C00010BDC046FF03000010B5012104000620A6
:10A4D00008F02AFE064B984208D148342378002B16
:10A4E00004D02378012B01D020BFF7E710BDC04670
:10A4F00016FCFFFF73B5079C0500002C1CDB060053
:10A5000048363078002802D03078012816D10698D5
:10A510001BB2C0B20090280012B2743008F0F2FFF3
:10A52000002C07D02B004A331C80002407234C3515
:10A530002C803370200076BD014CFBE7014CF9E71D
:10A5400017FCFFFF12FCFFFFF0B587B00D9C060063
:10A550000F0002920393002C20DBFFF7A5FF3300CE
:10A5600048331D78EDB2002D1AD1390005A808F046
:10A570009CFF0C9B01940093029A039B05A9300059
:10A58000FFF7B8FF05A808F083FF002C03D03000C8
:10A59000FFF79AFF2C00200007B0F0BD014CFAE74E
:10A5A000014CF8E717FCFFFF11FCFFFFF8B50400B2
:10A5B000171E1DDD060048363378002B02D0337895
:10A5C000012B17D12200E3795632013B137023008F
:10A5D0000025200054331D80503008F0FAFE23007F
:10A5E0004A331F80022328004C3425803370F8BD85
:10A5F0000148FCE70148FAE717FCFFFF12FCFFFFE8
:10A60000F7B505000F00161E18DDFFF74DFF2B00F4
:10A6100048331C78E4B2002C12D1390001A808F0AC
:10A62000D0FE320001A92800FFF7C0FF01A808F002
:10A6300071FE2800FFF748FF2000FEBD0148FCE73F
:10A640000148FAE717FCFFFF11FCFFFFF8B5040013
:10A65000171E2DDD060048363278002A02D03278E7
:10A66000012A27D15D42069BFF331FD16B1D2200BB
:10A670001BB2643213802300200066331D706030EB
:10A6800008F01BFF230000226C331A70954200D0A3
:10A690003D0023004A331D80079B00205A1E934132
:10A6A000013F4C34053327803370F8BD069BDEE74D
:10A6B0000148FAE70148F8E717FCFFFF12FCFFFF2B
:10A6C000F0B587B005000F00161E03931EDDFFF7DF
:10A6D000EBFE2B0048331C78E4B2002C18D1390073
:10A6E00005A808F0E2FE0D9B320001930C9B05A922
:10A6F00000932800039BFFF7A9FF05A808F0C8FEF8
:10A700002800FFF7E1FE200007B0F0BD0148FBE79D
:10A710000148F9E717FCFFFF11FCFFFFFF2902D8F2
:10A720004172002070470148FCE7C04617FCFFFF5C
:10A7300013B5040004A80078009020000BF03EFC44
:10A74000002801D1207516BD0048FCE70EFCFFFF74
:10A7500013B5040004A80078009020000BF016FC4C
:10A76000002801D1207516BD0048FCE70EFCFFFF54
:10A770007FB50D0011000F226A4404001E1E1170E7
:10A7800016D0089B002B13DD012329000093FFF74F
:10A79000DFFF002802D0074804B070BD0090089B7E
:10A7A000320029002000FFF7C3FF0028F4D0F2E7B1
:10A7B0000148F1E70EFCFFFF17FCFFFFF7B50700AC
:10A7C0000D1E3FD00023022604690193002C35D0D2
:10A7D000AA88A3885340334204D1324204D1AB88C3
:10A7E000334226D0646AF1E7A968A0680AF0CAFA81
:10A7F0000028F4D02B88002B02D022889A42F1D175
:10A800006B88002B02D062889A42EBD1EB68E26839
:10A81000934201D0002BE5D17B68002B01D02000B2
:10A820009847A288084B1343A380019B01330193EF
:10A83000D8E7A368AA689342D4D1DBE7019B200044
:10A84000002B00DC0148FEBD0080FFFF17FCFFFF6E
:10A85000F0B5060085B00D1E5DD001270469002CFF
:10A8600026D00221AA8800230A4202D0A3885B08CE
:10A870003B40226829688A4214D1A068A968002B4D
:10A880000ED00AF07FFA00280CD0EB68E268934201
:10A8900008D1A3881AB2002A06DB204805B0F0BD13
:10A8A0008842F2D0646ADAE75B045B0CA380F4E7C9
:10A8B00030692A88002807D1356101231849684684
:10A8C00008F0C3FD0020E9E7010003001C88944262
:10A8D00006D25C6A1900002C0DD02300F6E7230095
:10A8E0001C88944207D15F886C88A74203D85C6AB1
:10A8F0001900002CF3D1884209D10B889A4204D365
:10A9000005D148886B88984201D96962D4E74B6ABF
:10A910006B624D62D1E70348C0E7C04616FCFFFFFB
:10A92000FD03000017FCFFFF064B10B51A000400E2
:10A9300008322C33026083600830FEF753FA20009F
:10A9400010BDC046BC68020008B4024B9C460838E3
:10A9500008BC604729A9010008B4024B9C4608388E
:10A9600008BC60470B4202000C4A002311002C3245
:10A97000083110B543608381837382600361436152
:10A980008361C383016004000830FEF71DFA044BA5
:10A990001A68002A00D11C60200010BDBC680200AB
:10A9A00014250020F7B50E00012504690192002C42
:10A9B00036D0238832889A4201D0002B23D1638875
:10A9C00072889A4201D0002B1DD1FEF771F9012344
:10A9D000002806D0C022A3881340C03B5A425341EE
:10A9E000DBB2019A934219D1A7883BB2002B15DB49
:10A9F00010223100A0180BF064FD40231F4204D048
:10AA0000200009F00BFC646AD1E7FEF751F9002839
:10AA1000F6D021000348FEF7FDFAF4E70025F2E73F
:10AA20002800FEBD1D42020008B4024B9C460838B7
:10AA300008BC6047A5430200F0B587B001930EAB98
:10AA40001B88060003930D9B0D000093019B02924F
:10AA50000C9F002B3DD0002F02D1009BDB0738D587
:10AA600028200BF0FBFC0400103008F0E4FC6B46DF
:10AA70001B891820258063800BF0F0FC0500009BEB
:10AA800008220593019B002103600C3004970BF012
:10AA900034FD082204A9281D0BF013FD0E4B0222E1
:10AAA0006B6100230399E3602362636233680A43A6
:10AAB000A560A2805B68210030009847002806D07E
:10AAC000200008F0DDFB20000BF0C4FC034807B0B9
:10AAD000F0BD0348FBE7C046DF43020016FCFFFF62
:10AAE00017FCFFFFF0B50400160000258380164A0E
:10AAF000164B85710260218146810573186889B003
:10AB00008C46A8421DD0124A05950492C02202929A
:10AB10006A4604AB82CB82C223002A006146FFF75B
:10AB20008BFFC022094B0A49186802926A460691B7
:10AB300006AB079582CB82C223002A003100FFF7C3
:10AB40007BFF200009B0F0BD006902001425002041
:10AB50000945020030B5002403730123034D8471BD
:10AB60000560818082734373846030BDFC6702009E
:10AB700070B583790400DB0702D580680BF06AFCAE
:10AB8000A3799B0702D5A0680BF064FCA3795B074F
:10AB900007D5A0230021144ADB00D150A0680BF098
:10ABA00059FCA3791B0708D5A568002D05D02800FE
:10ABB0000AF059F928000BF04DFCA379DB0605D506
:10ABC000A068002802D00368DB6898476023A27958
:10ABD0001A4205D0A068002802D003685B68984735
:10ABE0000023A360A37170BD00700040F7B5022779
:10ABF000037B04000D003B4226D0012926D886792C
:10AC00003E40009614D1FFF7B3FF18200BF026FC4E
:10AC10000E230600E3561822009901930BF06DFCF9
:10AC2000019930000BF075FAA379A6603B43A3713C
:10AC3000A3685A68002D04D00025DB681A6028003C
:10AC4000FEBD1B691A60FAE7014DF8E7014DF6E712
:10AC500016FCFFFF17FCFFFFF7B50126037B04007E
:10AC600033422AD0612385791D4017D1FFF780FF39
:10AC700018200BF0F3FB0E230700E3561822009375
:10AC8000637B290001930BF038FC019A009938008E
:10AC90000BF02DFAA379A7603343A3716023A27947
:10ACA000A0681A4202D00BF0D7F8FEBD4369406895
:10ACB0001B681840431E9841F7E70148F5E7C04676
:10ACC00016FCFFFF10B50124837941731C4004D0AA
:10ACD00080680BF0D6FA002010BD6022134203D02A
:10ACE00080680BF0C0F8F6E70048F5E716FCFFFFB8
:10ACF00070B5040000250C4B0E000833858085716B
:10AD000003602100183009F0B0FC20002100203041
:10AD100009F0CEFC054BA680E5802572E560256133
:10AD2000656120001C6070BD1069020028250020AC
:10AD30008379DB0702D5C160002070470048FCE73B
:10AD400016FCFFFF8379DB0701D5C0687047014817
:10AD5000FCE7C04616FCFFFF70B545690400002DF6
:10AD600022D0037A032B21D8FFF7ECFFA8622C2016
:10AD70000BF074FB2C22002105000BF0BEFB00221F
:10AD800063695A622369934208D163692361002091
:10AD9000237A65610133237270BD13005A6A002A59
:10ADA000FBD162695A62F2E70148F5E70148F3E72F
:10ADB00017FCFFFF13FCFFFF144B70B55A68144CCF
:10ADC000002A03D000225A600132A2601A69002AC8
:10ADD00017D0002119618023DB000E4DE35828684D
:10ADE000012B0FD1A923DB00E1584942FFF7A0FF57
:10ADF0002868FFF7B1FF2B685A69074BE25001231F
:10AE0000A36070BDFFF794FFF9E7C046FC10004057
:10AE10000010004028250020040500000300006900
:10AE2000002809D00221054AD167426A1A611A7ABC
:10AE3000013A1A72024B19607047C04604E100E003
:10AE400000E100E010B5002903DB024B19600BF0B4
:10AE500005F910BD2C25002070B504001E0004ABC0
:10AE60001D7805F0D1F820000E4B40302360FEF72E
:10AE7000B1FA230001364C33013522001E701D73D8
:10AE80000023E1214E32A3646365138053809381D4
:10AE9000D381013B200063644902FFF7D3FF200008
:10AEA00070BDC046AC660200F7B580277F053D69DE
:10AEB0007C690822113C6C430600210068460BF0B7
:10AEC00000FB104B009A9A4219D000930023019383
:10AED000796930001339694309F0FFFB019A009941
:10AEE000300009F012FC2100300009F0F6FB79690E
:10AEF000AB08133969432200300009F0F8FB0198D0
:10AF0000FEBDC046FECA0000F0B50D00A9B00D920E
:10AF100000213022060010A80B930BF0EEFA280057
:10AF20000BF02BFB431C0C93102B00D9B5E00B9BB3
:10AF3000202B00D9B1E02900300009F013FC071ED6
:10AF400050D129000C9A10A80BF0BBFA0D990B9A5E
:10AF500014A80BF0B6FA80235B051A695F690C929E
:10AF6000113F7A4330005D690B92FFF79DFF30225D
:10AF7000002104001CA80BF0C0FA290000270C9B3C
:10AF800013395943300009F0A8FB0D9730257D4354
:10AF90000B9B0833ED18A74242DA290030221CA887
:10AFA0000BF08FFA10A91CA80BF0DDFA002827D1AE
:10AFB0003C49300022000E910F9409F0A6FB6A462E
:10AFC000099513AB23CB23C223CB23C223CB23C2AC
:10AFD0003000129B1099119A09F0A5FB01230D93E3
:10AFE0000137D3E710300B9A0D990BF05BFA040090
:10AFF00038000BF02FFA002CA3D1200029B0F0BDAF
:10B000006A4609951FAB23CB23C223CB23C223CB94
:10B0100023C230001C991D9A1E9B09F084FBDFE7B8
:10B02000E5433023ED1725405D430B9B08355D1943
:10B030000D9B002B1DD10C9B3021981E05F07AFD35
:10B04000A0422CD017490134300022000E910F94F9
:10B0500009F05BFB6A46099513AB23CB23C223CBD4
:10B0600023C223CB23C230001099119A129B09F0FE
:10B070005AFB0B99300009F030FB80235B055969BE
:10B080000C230C9A133963434A43023311003000F6
:10B090000B9A09F02CFB0024AFE7034CADE7034CFF
:10B0A000ABE7C046FECA000017FCFFFF13FCFFFF22
:10B0B0008023F0B55B051A6995B003925A69059132
:10B0C0000399113A51435D69039B133D04000291BA
:10B0D0005D43FFF7E9FE061E3BD00027302200212A
:10B0E000083508A801950BF008FA0199200009F02D
:10B0F000F4FA049730237B43029D0835ED18B742DC
:10B100001FDA2900302208A80BF0DBF9059908A8FE
:10B110000BF029FA00280AD11949721E2000069165
:10B12000079209F0F2FA012304930137E2E70C23B6
:10B13000019A2900200009F0DAFA019B30330193CB
:10B14000F3E7049B002B06D10D493200200009F0E3
:10B15000DCFA0C4812E00299200009F0BEFA8023C4
:10B160005B0559690C23039A13394A437343110051
:10B1700020000233029A09F0BAFA002015B0F0BD9F
:10B18000FECA00000CFCFFFF70B50400A280FA228A
:10B19000002308000C49920008312160A37160610E
:10B1A000E260A3606382094909F0DCFA051E09D058
:10B1B000010020001031022212300BF082F9280029
:10B1C0000BF048F9200070BD28690200E07502000C
:10B1D00030B50225837987B004002B4204D1FDF7F6
:10B1E000F3FDA3791D43A571200009F005FB00289C
:10B1F0001CD06B46DD1C280009F0F5FA2B78002BDB
:10B2000017D001A809F0EDFA0321019AD3170B40DA
:10B210009B189B102382FEF75FF8E368A18818183B
:10B220000123A0601A0002A808F00FF9002007B05F
:10B2300030BD0122064B1A60064A51680029FCD035
:10B2400000215160044A1268019201225A60DBE732
:10B2500000C00040FCC0004008C50040022802D1E8
:10B260000122014B1A7070470F28002070B5064C60
:10B2700005002378002B04D1044801F0D9FF0123F5
:10B280002370280070BDC046102800205DB2010068
:10B2900070B50C0007F0D6FE002810D00023144D26
:10B2A000A40A2B70200009F0BBFA002803D00A2062
:10B2B0000AF0DBFFF6E72B78002BFCD070BD0221F3
:10B2C0000C4B0D4A99508021C90008005D58002D93
:10B2D000FCD0A121C9005C5019580029FCD00021E4
:10B2E00099508021C9005A58002AFCD0E6E7C04690
:10B2F0000F28002000E0014004050000F8B50C0014
:10B3000015001E0007F09EFE002811D00023174FE5
:10B310003B7032002900200009F080FA002803D099
:10B320000A200AF0A2FFF4E73B78002BFCD0F8BD1E
:10B3300001210F480F4B844619508021C9005A58EB
:10B34000002AFCD080270022FF00964207DD9100F2
:10B3500068586050D9590029FCD00132F5E7002225
:10B3600061465A50DA59002AFCD0E0E70F28002045
:10B370000405000000E0014008B4024B9C4644383C
:10B3800008BC604725480200FA21F8B50389C900C6
:10B3900004005943324809F00BFDFA21890005F0F9
:10B3A000C9FB304F2081A17A380009F001FD23004C
:10B3B0002600250022894C33A072A0361A808C35D5
:10B3C000317800232A22286808F05BFE002801D08B
:10B3D0002548F8BD31781F235B22286808F051FE0C
:10B3E0000028F5D1317820235C22286808F049FE36
:10B3F0000028EDD1317801232C22286808F041FE85
:10B400000028E5D1317801232D22286808F039FE83
:10B410000028DDD1317801232E22286808F031FE82
:10B420000028D5D1A17A380009F0BDFC3178C3B22B
:10B430000E22286808F025FE0028C9D1FA212389A8
:10B4400089005943064809F0AEFC01230343DBB2EF
:10B4500031782A22286808F014FE0028B9D0B7E70E
:10B4600048690200406902000EFCFFFF08B4024B6D
:10B470009C46443808BC604789B30100074B10B5AF
:10B480001A00040008323C3302604364443008F080
:10B49000F8F9200008F028F9200010BDA869020082
:10B4A00008B4024B9C46443808BC60477DB4010098
:10B4B00008B4024B9C46443808BC60472F48020041
:10B4C000F0B5042583798BB004002B4204D1FDF73D
:10B4D0007BFCA3791D43A57120009030FFF7BCFBD6
:10B4E0000026B0420FD12300A033197820000C238E
:10B4F00007AD00938C302B0001220068FFF738F96C
:10B50000061E03D02C4E30000BB0F0BD0A2304AA57
:10B510009B182A785A706A781A700022985EAA7866
:10B520005A70EA781A700022995E03912A795A704B
:10B530006A791A7000229F5EAA795A70EA791A70A5
:10B5400000215A5E04922A7A5A706A7A1A7000218F
:10B550005A5E0592AA7A5A70EA7A1F251A7000225A
:10B560009B5EA27A03999C46514349425043CB17B4
:10B570002B407A435B185B11A361C3172B4018184B
:10B58000D3171D406423AD18059A5B425343A3674C
:10B5900064236146049A40115A434B43E2676D119C
:10B5A000221DE06125622000D36708F00FF920001A
:10B5B000443008F06DF9A6E70EFCFFFF08B4024B1B
:10B5C0009C46443808BC6047C1B40100F7B51E0072
:10B5D000040008AB1B881500019309AB00911A8881
:10B5E00031000AAB1F88FEF7A5F820003A003100B1
:10B5F0004430FEF7E7FA134B20001A003C33636433
:10B60000230008322260009A8C331A60AB88903095
:10B610008380AB796A4683710B4B92880360AB6879
:10B62000032183602B7B03736B7B4373AB7B83733F
:10B630002300A0331A80FFF745FB2000FFF7A4FE8C
:10B640002000FEBDA8690200FC670200F8B5FA26DA
:10B650000189B60004007143264809F0A9FB3100B6
:10B6600005F068FA244F2081A17A380009F0A0FB88
:10B670002500A0725835297800232A22606C08F032
:10B6800000FD002801D01D48F8BD297810232B2289
:10B69000606C08F0F6FC0028F5D1297801232D22F2
:10B6A000606C08F0EEFC0028EDD1297801232E22F1
:10B6B000606C08F0E6FC0028E5D1A17A380009F0BA
:10B6C00072FB2978C3B20E22606C08F0DAFC002805
:10B6D000D9D121890748714309F065FB0123034350
:10B6E000DBB229782A22606C08F0CBFC0028CBD092
:10B6F000C9E7C046106A0200086A02000EFCFFFF9C
:10B7000010B50400034B0833036007F0EDFF200081
:10B7100010BDC046706A02007FB50425837904001D
:10B720002B4204D1FDF750FBA3791D43A5712000E6
:10B730004830FFF791FA0025A8420DD12300583375
:10B740001978062302AE009301223300606CFFF7E4
:10B750000FF8051E03D00D4D280004B070BD022364
:10B7600000210420F356A27ADB0071563056534371
:10B77000C000C900514342435B42A3612368E161B9
:10B7800022629B6A20009847E6E7C0460EFCFFFF56
:10B79000F8B50400150006AA168807AA0F0012883B
:10B7A0001900FDF7C7FF0F4B6764083323602300C0
:10B7B000AA8848339A80AA7920009A710A4AA2641A
:10B7C000AA6822652A7B1A736A7B5A73AA7B9A73CA
:10B7D0000023A371230058331E80FFF737FF20009A
:10B7E000F8BDC046706A0200FC67020010B5040094
:10B7F000034B0833036008F044F8200010BDC04636
:10B80000046B0200F0B507005C3787B0040039789C
:10B8100000231022806C08F034FC0326002802D09C
:10B820001F4807B0F0BD0F2502ABED180123397892
:10B8300008220093A06C2B00FEF79AFF184B984249
:10B84000EED02B78334203D06420FDF757FBEAE7B4
:10B85000FA262189134DB6007143280009F0A8FA91
:10B86000310005F067F920813978A0231122A06CFE
:10B8700008F007FC0028D3D1A36C218903937143FE
:10B8800028003F7809F08FFA01231843C3B2102231
:10B890003900039808F0F5FB0028C2D0C0E7C04685
:10B8A0000EFCFFFFA46A020070B50825837986B0FC
:10B8B00004002B4204D1FDF787FAA3791D43A5713B
:10B8C00020004C30FFF7C8F9061E0DD023005C3372
:10B8D0001978062304AD009301222B00A06CFEF71B
:10B8E00047FF061E03D0134E300006B070BD0E2376
:10B8F0002A786B445A706A7820001A700022995E88
:10B9000064224A43A263AA785A70EA781A70002225
:10B91000995E642252425143616329795970697971
:10B92000197000215B5E5A432368E2631B6A9847E3
:10B93000DAE7C0460EFCFFFFF8B50400150006AAC2
:10B94000168807AA0F0012881900FEF73BF90D4B65
:10B95000A764083323602300AA884C339A80AA790D
:10B9600020009A71084AE264AA6862652A7B1A7309
:10B970006A7B5A73AA7B1E829A73FFF743FF2000EB
:10B98000F8BDC046046B0200FC670200F7B5FA255B
:10B990000189204FAD0004006943380009F008FA1E
:10B9A000290005F0C7F8A17A20811B4809F000FAA8
:10B9B0002600636CA072009321895836337869435E
:10B9C0003800019309F0EFF907230343DBB220228B
:10B9D0000199009808F055FB002801D00F48FEBDE2
:10B9E000317810232222606C08F04BFB0028F5D13F
:10B9F000A17A0948656C377809F0D5F980235B4254
:10BA00000343DBB223223900280008F03AFB002868
:10BA1000E5D0E3E7386B0200306B02000EFCFFFF5D
:10BA200010B50400034B0833036007F05DFE2000EF
:10BA300010BDC046A86B0200F0B50425837985B01F
:10BA400004002B4204D1FDF7BFF9A3791D43A57172
:10BA500020004830FFF700F9061E0DD023005833B0
:10BA60001978062302AD0093A8222B00606CFEF724
:10BA70007FFE061E03D0144E300005B0F0BD1F201F
:10BA80000023EA5ED31703409B180222A95E5B11D4
:10BA9000CA170240521804216F5E5211F917014073
:10BAA000C91949112B806A80A980A07A4343424377
:10BAB00041435B42E36123685242A26121629B6A77
:10BAC00020009847D8E7C0460EFCFFFFF8B50400F9
:10BAD000150006AA168807AA0F0012881900FDF79C
:10BAE00029FE0F4B6764083323602300AA8848337C
:10BAF0009A80AA7920009A710A4AA264AA682265EB
:10BB00002A7B1A736A7B5A73AA7B9A730023A371E8
:10BB1000230058331E80FFF739FF2000F8BDC046D0
:10BB2000A86B0200FC670200F7B5FA250400018942
:10BB3000134EAD006943300009F03AF9290004F0D2
:10BB4000F9FF2700A36C208100935C373B7881B21A
:10BB500069433000019309F026F96022C3B20199CC
:10BB6000009808F08EFA002801D00648FEBD39780A
:10BB700001236222A06C08F084FA0028F6D0F4E7D2
:10BB8000DC6B02000EFCFFFF10B50400034B083312
:10BB9000036007F076FE200010BDC046046C020072
:10BBA0007FB50825837904002B4204D1FDF70CF9F9
:10BBB000A3791D43A57120004C30FFF74DF8051EF9
:10BBC0000DD023005C331978062302AE0093E822DF
:10BBD0003300A06CFEF7CCFD051E03D00B4D2800F2
:10BBE00004B070BD0223F25E96235B425A43626347
:10BBF0000021725E20005343A3630423F25E962368
:10BC00005343E36323681B6A9847E8E70EFCFFFF92
:10BC1000F8B50400150006AA168807AA0F001288B6
:10BC20001900FDF7CFFF0D4BA764083323602300F5
:10BC3000AA884C339A80AA7920009A71084AE26453
:10BC4000AA6862652A7B1A736A7B5A73AA7B1E8272
:10BC50009A73FFF769FF2000F8BDC046046C02002C
:10BC6000FC67020010B50400054B083303601C306C
:10BC700007F050FB2000183007F04CFB200010BDEF
:10BC8000306C0200FF23F0B52C4D8DB02B700023DB
:10BC9000040069460088009303F01EFB002802D1CF
:10BCA0006B469B782B70264E3368DB68002B07D1E0
:10BCB000002320881A00190008F029FE0DB0F0BDFD
:10BCC0002B78032BF4D81F4901A8FDF749FB3368F3
:10BCD00001A9DE6804A807F074FB04A9300008F08D
:10BCE00074FD0027060004A807F014FBBE421ED016
:10BCF00031002022103104A80AF0E3FB30000AF0E2
:10BD0000A9FB297804ABC9005918082202A80AF037
:10BD1000D8FB20880123082202A908F0F8FD01378A
:10BD2000002804D12088084A0C2108F0EEFD01A863
:10BD300007F0F0FA002FBBD0C0E7C04680200020FB
:10BD40003C25002073760200FFFF0000F0B58379E8
:10BD500091B004005B071BD5FDF7BEFA00232269F2
:10BD6000801A9941994203D1F423FF3398420FD9A5
:10BD7000A068002808D0364B1D8809F091F80368A8
:10BD800015221B6A290098470422A3799343A371C3
:10BD9000A3799B0759D52F4D2B68DB68002B50D01A
:10BDA0002D4B1B78032B4CD8294B2C491B8804A8FE
:10BDB0000193FDF7D5FA2B6804A9DE6808A807F0FF
:10BDC00000FB08A9300008F000FD070008A807F0F4
:10BDD000A1FA02AB9E1D08233200338006A9073B5F
:10BDE000019808F096FD002F08D03900202210316C
:10BDF00008A80AF066FB38000AF02CFB164B3288C4
:10BE00001B7806A9DE0008AB9E1930000AF04AFB39
:10BE1000002813D0082206A930000AF052FB2B6834
:10BE200004A9DD6805A807F0CCFA202308AA05A913
:10BE3000280008F0D0FC05A807F06CFA04A807F069
:10BE400069FA0222A3799343A37111B0F0BDC046F1
:10BE5000B82700203C2500208020002073760200B7
:10BE6000F7B5089E0500152922D8012007008F404C
:10BE7000244C27421CD0E97FCC181F2C41DC6918C8
:10BE80003418A14210D80021C8B2834204D9545CAE
:10BE9000701884700131F7E732789A183270EA7FAF
:10BEA0009B18EB7700202CE00878C8540139E8E7AC
:10BEB0003478013CE4B2A34208D10023D9B28C42C9
:10BEC000F0D9D05CF11888700133F7E7EF7F0120DB
:10BED000FF183F1B1F2F14DC0227A01C7F423618BF
:10BEE000381B0190E87F2F18BE4204D23078019FA2
:10BEF000F0550136F6E7041B023CEC77280008F009
:10BF000052FDFEBDFC002000F0B585B001930AABE8
:10BF10001E880BAB1B78451C02930EAB1B780400EC
:10BF200003930B78170003704B8A10224382013170
:10BF300028000AF0C6FA6B469B88268363836B460B
:10BF40001B7B002623776B4601221B7A6761E68301
:10BF5000EB77A31CDA770C9B0C256362230020008F
:10BF60000D9A28331A705E709E702A0031002C30B2
:10BF70000AF0C3FA2000074BE663A3632A003100EE
:10BF800040300AF0BAFA2000034B2665E36405B09E
:10BF9000F0BDC046294902001B49020070B50D00E2
:10BFA00008F07EFF04000368002D09D15B69984703
:10BFB000FA2080006843074904F0BCFDE08070BDB2
:10BFC0009B6898478542F3D2236820009B68984776
:10BFD0000500EDE771020000F0B507001600A1B002
:10BFE00002C704006B4918A81D0008F023FD331E8A
:10BFF00003D030000AF0C1FA83B201220492002279
:10C0000003920292023201920093320018A9380082
:10C01000FFF77AFF23006049583318A8079308F008
:10C0200009FD2B1E03D028000AF0A7FA83B20122D3
:10C0300004920022039202920232019200932A009B
:10C0400018A90798FFF760FF23005449AC3318A8DC
:10C05000089308F0EFFC269B002B03D018000AF091
:10C060008CFA83B2012204920022039202920232DD
:10C0700001920093269A18A90898FFF745FF631CC0
:10C08000FF33474918A8099308F0D4FC279B002BDD
:10C0900003D018000AF071FA83B201220492002240
:10C0A000601C03920292023201920093279A18A90F
:10C0B000FF30FFF729FF23005533FF33394918A814
:10C0C000099308F0B7FC289B002B03D018000AF056
:10C0D00054FA83B2012204920022039202920232A5
:10C0E00001920093289A18A90998FFF70DFF2300E1
:10C0F000A933FF332C4918A80A9308F09BFC299B0D
:10C10000002B03D018000AF038FA83B201220492FF
:10C11000002218AD03920292023201920093299AF2
:10C1200029000A98FFF7F0FE204B1B780B93002B99
:10C130002DD1079B12971393089B0DAF1493631C8B
:10C14000FF331593099B1A4916930A9B38001793DE
:10C1500008F070FC1D2149203B7810222B707B8A4F
:10C1600012AE6B8206ABC918C0180AF0AAF90623F2
:10C170002B756B469B8D2068AB83AE6108F094FEF7
:10C18000036829001B6898470122084B1A70200099
:10C1900021B0F0BD292A0000242A0000252A000031
:10C1A000272A0000262A0000282A00001128002043
:10C1B0000A18000070B5002504000B4B8580083379
:10C1C00085710360C1601830FDF704F920001C3050
:10C1D000FDF700F90123621CD377044AA56065616D
:10C1E00020001460A37170BD306C02003C2500205B
:10C1F000FA2130B585B00500012302228900684686
:10C2000007F023F9074C2068002809D008F04BFC00
:10C210002988054B22681980022391790B43937179
:10C2200005B030BD3C250020B827002010B50C001B
:10C2300007290DD8806808F033FE064B19570368AC
:10C240005B6C9847431E9841034B4042184010BD19
:10C250000248FCE76B76020016FCFFFF17FCFFFFAD
:10C26000F0B5A44C0D00A544040007939AAB1B78CD
:10C27000A14909A804930692FDF772F8200029004D
:10C280001C3007F0A6F8C020800000F0C7FF08208F
:10C290000AF0E4F80600002100F0AEFE15ADA6603D
:10C2A00000210C220EA80AF028F92B000EAA83CA3E
:10C2B00083C3924B2900EB60002330002B6108F010
:10C2C000D8FDA06808F0ECFD08220021059016A812
:10C2D0000AF013F914200AF0C1F829000200884B73
:10C2E0001593C8C9C8C2874B059EC3600023A436F6
:10C2F00003613368002B00D0F5E03060A06808F0DF
:10C30000D3FD08220021060016A80AF0F6F8142032
:10C310000AF0A4F87C4B1593030086CD86C37B4BB3
:10C32000C36000230361336B002B00D0DDE030637A
:10C33000A06808F0B5FD08220021050016A80AF043
:10C34000DCF814200AF08AF8714B15AE159303003F
:10C3500086CE86C36F4B9835C360002303612B687C
:10C36000002B00D0C3E02860012504AB1B7C04AA8D
:10C370002B4308A92800137408F0CDFAA06808F030
:10C3800097FD036864495B6A9847A06808F090FDD0
:10C39000036862499B699847A06808F089FD0023FB
:10C3A00002680093166804992A00B047049B002B8A
:10C3B0000AD0200008F080FB032805DDA06808F003
:10C3C00077FD0368DB6898470EA808F0E3FA2F2092
:10C3D00004ABC01808F0DEFA362004ABC01808F031
:10C3E000D9FA3D20042504ABC01808F0D3FA0EABEF
:10C3F0000A93A06804AB5D7708F05AFD03680AA9A8
:10C400001B699847A06808F04BFD03680AA95B6D9B
:10C410009847A06808F044FD03680021DB6D984749
:10C42000A06808F03DFD036802219B6D984700213C
:10C430002000FFF7FBFE18200AF010F8A16800F0BA
:10C4400055FA374B374A1B68A1680393364B15A83A
:10C450001B6800260293354B0CAF1B680193069BAB
:10C460001B685B190093324B12681B68FFF7B4FD21
:10C47000302009F0F3FF079AA16800F0F7FAA068EE
:10C4800008F00EFD036839009B6A9847294BBE806F
:10C49000A0680C9308F004FD03683900DB6A984734
:10C4A0002900A06808F0D2FA099A09219378A068B7
:10C4B000521908F0DEFAA06808F0F2FC3221067189
:10C4C000A068FFF76BFD04AB1B7FB34204D0A068EC
:10C4D00008F0E6FC08F0A4FA09A806F01BFF952373
:10C4E0009B009D44F0BD036107E703611FE7036103
:10C4F00039E7C046ACFDFFFF58770200374902001C
:10C50000F1C101004549020085BC01005349020008
:10C51000814902006149020039C501006DC5010071
:10C520003825002034250020082000203025002058
:10C530000C2000200800100013B506226846FCF706
:10C540001FFF094B1C68002C0AD0694601A806F0A1
:10C5500038FF200001A908F0D0FA01A806F0DAFEA1
:10C56000684606F0D7FE13BD3C250020002373B5B6
:10C5700001AE0C0031000500019302F0ADFE002871
:10C5800002D1B278064B1A70064B1868002806D004
:10C5900061426141044BC9B21D8008F0B6FA73BD17
:10C5A000802000203C250020B827002030B5284CF2
:10C5B000A9B06A220D000DA8210009F082FF0DA983
:10C5C00003A8FCF73BFF03A906A806F06EFF0123B2
:10C5D0000193013BFF3B00930533FF33642206A91F
:10C5E0002800FEF76DF806A806F052FF2100192278
:10C5F0006A3106A809F065FF05220024110006AB88
:10C6000004A806F079FF04A905A806F04EFF0194DE
:10C6100000942300220005A92800FDF795FF05A836
:10C6200006F036FF21002800FEF778F805340520D3
:10C63000FCF764FCFF2CF5D1FA208000FCF75EFCCF
:10C6400004A806F025FF03A806F022FF29B030BD9C
:10C65000E8750200F0B59C4B95B005921A68082366
:10C6600004000391D16C06A80B43D3649749FCF7EF
:10C6700077FE974907A8FCF773FE220000250DAE50
:10C6800030001C3206A906F0B3FE07AA310008A844
:10C6900006F0AEFE300006F03DFE631CDD77A068BC
:10C6A00008F0FEFB03680BAF5B699847300008F0A9
:10C6B00071F92B2004ABC01808F06CF9322004ABE0
:10C6C000C01808F067F9392004ABC01808F062F907
:10C6D0008023DB00BB80A0680B9608F0E1FB0368B9
:10C6E00039005B6D9847A06808F0DAFB0368290001
:10C6F0009B6D9847A06808F0D3FB070006000A3737
:10C700001F222900380009F0F8FEFD77300008F0FC
:10C710007EF90621A06808F099F9089A0921937812
:10C72000A068043208F0A5F9A06808F0B9FBC82198
:10C730000571A068FFF732FCA06808F0B1FBFF2785
:10C740002E000581A06808F0ABFB08F069F903989A
:10C75000FDF78EFE2000FCF737FB03992000FFF762
:10C7600025FF0399200008F0E3F90495012563698A
:10C770001D402DD0574909A8FCF7DEFE09A90AA8DB
:10C7800006F093FE00220AA913000192009203987A
:10C79000FDF7DAFE0AA806F07BFE049B002B42D1CF
:10C7A000043F282F41DD0025FE2F00DC049D059865
:10C7B00007F053F8002806D0012362699A4313005A
:10C7C000042213436361002609A806F061FE049564
:10C7D00004226369134233D0FF210398C826FDF772
:10C7E0009DFF0025B600A36902229B5EAB4222DDBD
:10C7F000200029B2183006F011FE00230100039832
:10C800001A007430FCF7E8FE3000FCF777FB039861
:10C8100007F02AFCC820FCF771FB0222636913426F
:10C8200009D10135DFE70437BBE7039807F01CFCAB
:10C83000002FBCDDBAE7FA208000FCF75FFB002682
:10C84000022365691D421CD006331D4024D02249B5
:10C8500009A8FCF771FE09A90AA806F026FE002225
:10C860000AA90192009213000398FDF76DFE0AA831
:10C8700006F00EFE1948FCF741FB09A806F008FE79
:10C88000174E6420FCF73AFB164B01369E4200DC43
:10C890006CE706F0E9FB69E7134909A8FCF74CFED1
:10C8A00009A90AA806F001FE2B002A000AA9019591
:10C8B00000950398FDF748FE0AA806F0E9FD09A8CF
:10C8C00006F0E6FDDDE7C046C02400207F760200CA
:10C8D0008F76020091760200D6760200983A000028
:10C8E0008C0A00008B0A0000137702000022594BCB
:10C8F000F0B50833060003600F001000A9B0B16066
:10C900000BAB991801324870102AFAD10F3A524CE9
:10C910001A700E32105D991A0874013AFAD2997B96
:10C920005A7B09020A4331000C31039125211B78FF
:10C9300013AD2B7002ABC918452302A81B186A82DD
:10C940001800102209F0BDFD039B64216B610123D7
:10C95000002402AA2B7752181993093313701DABC8
:10C960001C706D2302AA9B181C706E2321009B185B
:10C970001EA80C22EC836C621C7009F0BEFD374BC4
:10C980000C22210023A8AB63EC6309F0B6FD344B05
:10C9900002AAEB6446239B180322DA7722002C6557
:10C9A0000595347306AD2B1901345A70102CFAD149
:10C9B00001232C482B700E33195CEA1A1174013BC9
:10C9C000FAD211212520AA7B6B7B12020BAC1343F8
:10C9D0002A78638202ABC9182270C018102209F0AD
:10C9E00070FD0123237505ABA36100233800A383E9
:10C9F00008F05AFA036821001B68984713ABDB8BD9
:10CA0000B068B38208F050FA002203680092B18A3D
:10CA1000039ADC680123A047B06808F045FA0700D4
:10CA2000142009F01BFD002201230400026106927C
:10CA300040C008322900079309F043FD0A4BE36028
:10CA4000BB69002B03D13000BC6129B0F0BD23616C
:10CA5000F9E7C046486C02006F77020029490200DE
:10CA60001B4902007F770200914B0200F0B50026BF
:10CA70000400724BDDB0083303608160C2608680C1
:10CA8000867132006E4947A808F022F9230014335A
:10CA90000125042708931223009704950193089A0F
:10CAA000330047A9039602961DA8FFF72DFA32001E
:10CAB000644947A808F00CF90C23220000971032B3
:10CAC00015AF0495019347A933000396029632A847
:10CAD000FFF71AFA32005C49380008F0F9F8210033
:10CAE0001C31099104230821049501910093390018
:10CAF0003300099A0396029647A8FFF705FA320019
:10CB00005249380008F0E4F8542009F0A7FC21004D
:10CB100012220423183107910495019200930A0010
:10CB200033003900039602960690FFF7EDF9069A56
:10CB3000474B1000A262D4620AA9082230300A933F
:10CB40000B9609F0BEFC434B069A09999363293270
:10CB5000157026610422E661079809F0B2FC0422F0
:10CB60000799089809F0ADFC6622032304A952181E
:10CB7000D377BA225218D377872252005218D3772C
:10CB8000069A35490232D3771DAA0C9232AA0D9229
:10CB900047AA0E92069AA6850F9210A8320008F0B6
:10CBA00097F83021452004AA52181378123104AAAC
:10CBB0003B705218138811397B8204AB1022C918BC
:10CBC000C01809F07EFC04230CADA0683B75BD6164
:10CBD000BE8308F069F9036839001B689847822210
:10CBE00004AB9B181B885432238404AB9B181B880E
:10CBF0005432A38404AB9B181B88A068638408F09C
:10CC000053F90700142009F029FC0500134B0661B5
:10CC1000082210C010A91093119609F052FC104B75
:10CC2000EB60BB69B34206D1BD612000FCF7CCF8D4
:10CC300020005DB0F0BD2B61F6E7C046546C0200E9
:10CC4000AF7702008F7702009F770200BF77020064
:10CC5000A34C02000F4C0200CF770200CDCC0100A4
:10CC6000394C0200F0B504000E00150085B01F001D
:10CC70000CAB1B881030019306F0DDFB268065802D
:10CC8000182009F0EBFB02AE050033000AAA03CA24
:10CC900003C32F602800082700213A000C3009F058
:10CCA0002CFC3A003100281D09F00BFC064B022237
:10CCB0006B61200000230199A5600A43E360A28014
:10CCC0002362636205B0F0BD634C0200F0B50B89CE
:10CCD0008DB00593CB68050004934B88828C9A42F3
:10CCE0000ED1049C049B059A9B181B1B032B39DD5A
:10CCF00062882188012308A806F0A7FB0434F1E725
:10CD0000428C9A422ED1049C049B059A9B181B1BB3
:10CD1000032B27DD2388282006936388EF68079379
:10CD2000114B08930023099309F098FBC0236A462E
:10CD30000600029308AB03CB03C22B000699079AA7
:10CD40003000FFF78FFF3B6831005B683800984781
:10CD5000002805D0300006F093FA300009F07AFB85
:10CD60000434D1E70DB0F0BD214D020070B50400D0
:10CD700090B0806807F0CFFF022101401AD1A38D47
:10CD8000002B17D00C4B6A4604931023E568A1854D
:10CD90000591029304AB41CB41C20A00230006A8CF
:10CDA000FFF760FF2B6806A99B682800984706A834
:10CDB00006F066FA10B070BD214D0200002815D0B3
:10CDC000006041608260C360046145618661C76143
:10CDD000444604624C464462544684625C46C462E3
:10CDE000644604636E46466374468463002A06D034
:10CDF000C46B043C043A25681560B442F9D18C6BCD
:10CE0000A6464E6BB546002B06D0CC6B043C043BCB
:10CE10001D682560B442F9D10C6BA446CC6AA346C8
:10CE20008C6AA2464C6AA1460C6AA046CF698E69FC
:10CE30004D690C69CB688A6808684968704700606A
:10CE400041608260C360046145618661C761444698
:10CE500004624C464462544684625C46C462644642
:10CE600004636E46466374468463C46B043C0439B1
:10CE700025680D60B442F9D1C769866945690469BE
:10CE80007047006041608260C360046145618661F3
:10CE9000C761444604624C464462544684625C4620
:10CEA000C462644604636C464463744684630469E4
:10CEB0007047846BA646446BA546046BA446C46ABF
:10CEC000A346846AA246446AA146046AA046C7698A
:10CED000866945690469C36882680068416870476B
:10CEE00010B5041E0CD009F048FB431EE3189C4209
:10CEF00008D222781978013B21705A700134F6E784
:10CF0000014810BD0020FCE717FCFFFFF0B585B01D
:10CF100002900C1E2AD00023C217161A5640019305
:10CF2000019B30005D1C63190A215F1E039303F00F
:10CF300071FF49423031397030000A2103F084FE1C
:10CF400047420600002F0FD1029B002B04DA2D234D
:10CF5000019D039A02351370002320006355FFF7EB
:10CF6000BFFF380005B0F0BD0195D9E7004FF8E7E5
:10CF700017FCFFFF0268084B406810B5C018C000DE
:10CF8000101803009A4205D81C688C4202D318007E
:10CF9000083BF7E710BDC046FFFFFF1F70B5002834
:10CFA00017D1114D2E68002E11D1083009F056FA14
:10CFB000066046600D4E04003368002B02D108F075
:10CFC000B6F9306023682C609B00F35863602868D2
:10CFD00070BD0122064907480B681340F8D1026072
:10CFE00043600A60F4E7C046442500205025002035
:10CFF0004025002048250020002370B50400016072
:10D00000436099420AD1064D2B68002B02D108F0EB
:10D010008EF9286023689B00EB586360200070BD88
:10D0200050250020436810B50400002B02D10448AD
:10D0300009F022F9606803681B69984710BDC04673
:10D04000DF770200436810B50400002B02D10448CA
:10D0500009F012F9606803689B69984710BDC046E3
:10D06000DF770200436810B50400002B02D10448AA
:10D0700009F002F9606803685B6A984710BDC04612
:10D08000DF77020010B5040002F0F8FC034B1B68C8
:10D09000002B01D02000984710BDC0465825002025
:10D0A000F0B58BB0050001F057FF002000F0D2FB77
:10D0B000036807001B6998473B6804009B693800B8
:10D0C00098473B6806005B6A380098470300288849
:10D0D00010380B2862D803F023FD063E6161615BC6
:10D0E000616161676179AF882000390008F043FB16
:10D0F00022006B7B583201931378A8799C46022357
:10D1000061460B43137004AB1F80012304AA937084
:10D11000D07013006A461279E91D9A722B0006221C
:10D12000163305A8099309F0CCF929000B2004ABAC
:10D1300006220E31C01809F0C4F994346368A36064
:10D14000A06800282AD0C36804A99847A368002BC8
:10D15000F4D01B69F3E720002F49AF8808F00BFBE0
:10D160002200022058321378A9798343137004AB4C
:10D170001F809970A0346368A360A06800280DD058
:10D18000C36804A99847A368002BF4D01B69F3E790
:10D190005B69A888A91D002B00D0984729003000A2
:10D1A00008F0C3FB0BB0F0BD636E002BF6D0AF7977
:10D1B000A366A06E0028F1D0C36839009847A36E1B
:10D1C000002B01D1636EF3E71B69F1E70122694689
:10D1D0000D27AB7BEF571A4001925A07920FDB08DD
:10D1E0000A720B730622E91D04A809F06AF96A465F
:10D1F000127904ABDA716A46127A9F711A726A4622
:10D20000127B20005A722B000F3307938C3480302E
:10D21000236804A99847C1E7FFFF00000723D72828
:10D2200002D9024B186000231800704754250020D3
:10D23000014B18607047C046582500201FB580225A
:10D24000A323D205DB00D3580820DB0700D4053028
:10D250001C4B48221C4901F0EBF900280AD080B28F
:10D26000002807D1BFF34F8F184B194ADA60BFF37C
:10D270004F8FFEE7002302A8029301330370154B82
:10D280001B68436007F01CFE002802D0072005B091
:10D2900000BD684607F012FE0028F7D1694607F086
:10D2A0000BFE0028F2D10C4801F0F2F980B2002800
:10D2B000EDD10A4801F0F6F980B20028E7D100F07C
:10D2C0004BFBE4E7C54E02005C25002000ED00E0CA
:10D2D0000400FA0554250020A1D0010085D00100EA
:10D2E00080B2002807D1BFF34F8F034B034ADA60A7
:10D2F000BFF34F8FFEE7704700ED00E00400FA0532
:10D3000000487047FFFF0000F0B597B00593036831
:10D3100007AD1B680491039311002B00060091C90F
:10D3200091C30024D36821000C220CA8EB602C616F
:10D3300009F0E3F822000B4B10940F9311AB1C7013
:10D34000191901344A70102CFAD15A820193059BA5
:10D350002A00009304990CAB3000039CA04717B03F
:10D36000F0BDC046E74F020070B5FC30046C05000C
:10D37000002C0DD1242009F071F8064B4460836124
:10D38000054B8460C46004614461C4610360286427
:10D39000286C70BD406D0200286E020070B5FC3034
:10D3A000C56B0400002D11D1342009F057F8084B4B
:10D3B00085604360074B45610361074B0562C361AC
:10D3C000064BC5628362064BE0630360E06B70BD91
:10D3D000706D0200606D0200D06D0200E06D020011
:10D3E000F06D02007FB503791548002B22D0154E51
:10D3F000154C33782000002B1CD102AD280007F01B
:10D40000CFFD002810D16B88592B0DD12B78AA881D
:10D41000D91F012910D800920C4A2021200005F0C4
:10D4200007FA0123337004E020220949200009F0A3
:10D43000ABF8200004B070BD0092064AEDE7C0468C
:10D4400002780200322800201228002024780200EE
:10D450001C7802004178020010B50400024B08C09D
:10D4600007F07EFE200010BD606D020010B50400C4
:10D47000024B08C007F089FE200010BD706D02004D
:10D48000064B70B5040003604068002804D00569AD
:10D4900008F0E0FF2800F8E7200070BD506D0200A2
:10D4A000064B70B5040003604068002804D005698D
:10D4B00008F0D0FF2800F8E7200070BD806D020062
:10D4C000064B70B5040003604068002804D005696D
:10D4D00008F0C0FF2800F8E7200070BD906D020042
:10D4E000064B70B5040003604068002804D005694D
:10D4F00008F0B0FF2800F8E7200070BDD06D0200F2
:10D50000064B70B5040003604068002804D005692C
:10D5100008F0A0FF2800F8E7200070BDE06D0200D1
:10D52000064B70B5040003604068002804D005690C
:10D5300008F090FF2800F8E7200070BD746C02002E
:10D54000064B70B5040003604068002804D00569EC
:10D5500008F080FF2800F8E7200070BD846C02000E
:10D56000064B70B5040003604068002804D00569CC
:10D5700008F070FF2800F8E7200070BD946C0200EE
:10D58000064B70B5040003604068002804D00569AC
:10D5900008F060FF2800F8E7200070BDA46C0200CE
:10D5A000064B70B5040003604068002804D005698C
:10D5B00008F050FF2800F8E7200070BD406D020021
:10D5C00070B5FC30046C0500002C0DD1242008F04F
:10D5D00045FF064B44608361054B8460C460046171
:10D5E0004461C46103602864286C70BD406D020012
:10D5F000286E0200104B10B5083303600F4B040077
:10D60000C36080230E4A5B00C250C018FCF706FEC0
:10D6100020000C4BB830E360FFF7B2FF2000AC30C5
:10D62000FFF79EFF2000A030FFF78AFF20006C303C
:10D63000FFF776FF200010BD546E02009C6E0200C2
:10D6400008700200B46C0200F8B505000400AC35A7
:10D650006B68AB60A868002807D0C36821009847B2
:10D66000AB68002BF4D01B69F3E72500B0352868C0
:10D67000002804D0066908F0EDFE3000F8E722002B
:10D68000FC212860583213780B40137023005C3360
:10D69000187020000A3007F041FE2000343007F0F7
:10D6A0003DFE606E002804D0056908F0D3FE280016
:10D6B000F8E72500983560662868002804D00669D8
:10D6C00008F0C8FE3000F8E72600A4362860356868
:10D6D000002D05D02F69280008F0BCFE3D00F7E7BB
:10D6E0002000356029000C226C3008F006FF200075
:10D6F000074BE567A36729000C22803008F0FDFE88
:10D700002300044A8C33903428001A602560F8BD49
:10D71000CB4F0200BD4F0200444AF0B50600C26084
:10D72000A022434B163608330360010000234282D7
:10D730000400320085B00371836003748382353145
:10D74000137001329142FBD1802580222000AD0070
:10D75000D201F3773584110000933830002300F0B4
:10D76000FBFD23002100403303931A002B0000250A
:10D770005F31157001328A42FBD1039AFC21D577C3
:10D78000220060321380137920000B4013712300B4
:10D7900068331D70274B2567E3660C220021783023
:10D7A00008F0ABFE2300270088331D60224B0837AA
:10D7B000FB67843700210C22380008F09EFE1F4BC7
:10D7C0001F4AFB602300A0333D611A601D4A5D6063
:10D7D000DA601D4A1D619A61DD61300007F09EFD2F
:10D7E000039807F09BFD194B601CE3602300C433D2
:10D7F0001D705D709D70FF3002F0BEFB8C235B00DE
:10D80000E55023001933FF335D618023104A5B002C
:10D81000E250230001222000FE3352425A86023B8E
:10D820009D63DD631D6405B0F0BDC046B46C0200AD
:10D83000546E0200746C0200CB4F0200BD4F020018
:10D84000846C0200946C0200A46C02009C6E0200C6
:10D850000870020070B5074C2368002B07D1A02088
:10D86000400008F0FBFD0500FFF756FF256020682B
:10D8700070BDC046A425002070B50C220D0000210B
:10D88000040008F03AFE00232361024B25602000CB
:10D89000E36070BDD94F020070B500250400254B30
:10D8A00085800360244BC5608360244B85614361A0
:10D8B000234B45620362234B0563C362224BC5635E
:10D8C000836329004430FFF7D7FF20002900583038
:10D8D000FFF7D2FF200029006C30FFF7CDFF1B4B74
:10D8E0002200236023008032F83320C29342FCD10F
:10D8F00026001D00E936FF362800082200210835E1
:10D9000008F0FBFDAE42F7D18E2300229B00E11808
:10D9100004C6B142FCD18E2300219B00E2540C4B83
:10D920000C4AE318A218198002339A42FBD1200056
:10D9300070BDC046A06D0200506D0200606D020017
:10D94000706D0200806D0200906D0200286F020071
:10D950003A020000620200001FB5002302ACA3805F
:10D96000104B01A80293C8235B00E380803BFF3B80
:10D97000037005220C4907F062FD80B200280FD128
:10D980008020800007F057FD80B2002808D12000D9
:10D9900007F053FD80B2002802D107F04AFD80B2A3
:10D9A00004B010BD280090016678020070B5002018
:10D9B0000D00FFF74FFF03685B6A98472B78040060
:10D9C000142B1ED003D8132B0CD0002070BD152BA8
:10D9D0001FD0222BF9D16B6818882369002BF4D053
:10D9E0009847F2E76B68012518889B7864681900EE
:10D9F0005A08DB0629402A405B0F002CE5D0A047DF
:10DA0000E3E76B6818889978A368002BDDD0984706
:10DA1000DBE76868827813091207120F012A03D026
:10DA2000022A0BD0002106E0013BDBB20021022BD1
:10DA300001D8064AD15C0088E368E6E70421012B9F
:10DA4000F9D00131022BF6D0ECE7C0466C78020029
:10DA5000014B18787047C04633280020F0B51D00F0
:10DA60000023304F87B000923A7806000C009A42AB
:10DA700004D102F037F8002803D00B23180007B0B8
:10DA8000F0BD002D0ED003A92220039507F0DBFC8A
:10DA9000002807D006230828F0D01138434243411C
:10DAA0000433EBE7002302AA1000137001F00EF814
:10DAB0000028E2D101251C4902220B782E40AB43FD
:10DAC0003343072693430193009B2C4033409340FC
:10DAD000AC409C46019B02AA1C431C239C4363460A
