:020000021000EC
:10800000004000208D080200C9080200CB080200D1
:108010000000000000000000000000000000000060
:10802000000000000000000000000000CD08020079
:108030000000000000000000CF080200D10802008C
:10804000D30802004DAD010039050200D30802003B
:10805000D3080200000000008D060200D3080200D1
:10806000D3080200A1000200FD050200D3080200AF
:10807000D3080200D3080200D3080200D30802008C
:10808000D3080200D3080200D3080200D30802007C
:10809000D308020005F10100E9FD0100D308020048
:1080A000D3080200D3080200000000000000000016
:1080B00000000000000000000000000000000000C0
:1080C00010B5064C2378002B07D1054B002B02D0AE
:1080D000044800E000BF0123237010BDB020002041
:1080E0000000000068770200044B10B5002B03D09D
:1080F0000349044800E000BF10BDC0460000000076
:10810000B420002068770200164B002B00D1144BDE
:108110009D46402292029A1A924600218B460F46B3
:108120001348144A121A0EF0DCF90F4B002B00D042
:1081300098470E4B002B00D09847002000210400E8
:108140000D000D48002802D00C4800E000BF0AF0E6
:10815000F9FA200029000DF04AFF0AF0DDFAC046C6
:1081600000000800004000200000000000000000A7
:10817000A8200020D82800200000000000000000F7
:1081800010B50400034B036040300BF0B7F820003B
:1081900010BDC0469466020003000120002B0FD0E2
:1081A0000020084A58611A60074A98615A60074AD5
:1081B00098839A60064A1866DA60064A58661A6119
:1081C0007047C0460123456789ABCDEFFEDCBA9806
:1081D00076543210F0E1D2C302000021F0B51E3215
:1081E000D9B0137854781B0624042343D47823434E
:1081F000947804322402234308AC0B510431402903
:10820000EFD123001F2448A91D6A5A6B6A409D685C
:108210006A401D6804336A40E241DA639942F3D14F
:10822000036802934368029F03938368039A04934D
:10823000C368049D05930369059E06939C4600232D
:10824000019329007140114071400C001B2339003B
:10825000D941464BC918019B61189C0008ABE458F2
:108260000223DA41019B091901336144140001938F
:108270003A00B446142B68D13A0062406A409446F2
:108280001B230A00DA413A4BD218130063440793C8
:10829000019B9B009C46624608ABD3589C46079BBB
:1082A00063449A190223DF41019BBC4601330193C9
:1082B0000F002E00282B4CD16646674626430E4001
:1082C000274037431B231600DE412A4BF618019B3B
:1082D000BE199F0008ABFF580223D941019BF61934
:1082E000013376190F000193110025003C2B34D186
:1082F000150063467D405D4031001B23D9411E4B74
:10830000C918019B69189D0008ABED580223DA419A
:10831000019B491901330919150001933200644684
:10832000502B1ED1029B5918039B01609E19049B80
:1083300046605D19059B8560DF19069BC760634435
:1083400003610023838359B0F0BD2E000F00250088
:1083500077E72500110064468EE764463200BC468C
:10836000AAE7BC460E002F00C2E7C0469979825AA0
:10837000A1EBD96EDCBC1B8FD6C162CA30B52C48CC
:10838000C7B000F06BF92CA813ACFFF705FF032270
:1083900028492CA80AF000FD21002CA80AF075FD40
:1083A000E17C637822781191A17C18A81091617CFE
:1083B0000F91217C0E91E17B0D91A17B0C91617B52
:1083C0000B91217B0A91E17A0991A17A0891617A56
:1083D0000791217A0691E1790591A179049161795A
:1083E000039121790291E1780191A178FA24009119
:1083F00011490AF019FA18A912A800F07BFF782297
:1084000012A90E4802F0C6F812A80AF077FF64001D
:108410000B4D0121280002F0B3FB200000F038FDD5
:108420000021280002F0ACFB200000F031FDEFE756
:10843000DC2000200C71020010710200CC21002011
:10844000CC20002070B50B4C200000F049F80A4DFC
:108450000A492A0020000DF0EAFF094C03230222FA
:108460000821200002F040FB2A00064920000DF000
:10847000DEFF70BDDC200020002000208984010088
:10848000CC200020852D0200D623144A9B0010B575
:10849000C2501C330400C0180AF030FFDC239B00DC
:1084A000E0180AF02BFF20009130FF3001F016FB9E
:1084B00020006930FF3001F011FB2000F03001F0A6
:1084C00085FE2000D03002F0F9F92000643007F07A
:1084D000EDFC201DFFF754FE200010BD206B0200B4
:1084E0001423F0B5040097B000931922182104302A
:1084F00002F07CFC2200250026006432B4351321F2
:1085000010001492B83607F0DDFC28000CF018F9C2
:1085100000221E2130000BF0A0FD2000D03002F020
:10852000EDF92200F03215920621494A159801F022
:1085300071FE20000027012369301A0000971121E5
:10854000FF3001F0D7FA200091300097012302227A
:108550001A21FF3001F0CEFA2000B9301A23012190
:108560000222FF3002F088FA300001F0D5F8E42250
:108570005200A050300001F011FBE6235B00E050F8
:108580000100E42220005200D130159BA258009532
:10859000FF3001F04FFD2000E13029001C22FF30A8
:1085A00002F0BCFD232320001293013B1193013BF9
:1085B0001093083B0F93013B0E93013B0D93013B3E
:1085C0000C93013B0B93013B0A93013B0993013B45
:1085D0000893013B0793013B0693013B0593013B45
:1085E0000493013B0393013B0293013B0193F93058
:1085F000013B082200930721013BFF300BF04EFDA9
:10860000D6239B00E018290003F09EFDDF239B008A
:10861000E0181D2102F036FBE9239B00E750149877
:10862000277003210DF013FC2300220020000949CC
:108630009C33A0321C6011605760074A80305A6139
:108640000221012208F0D4F8200017B0F0BDC04686
:108650009C660200052F0200EF2E02000123F0B5F8
:1086600006788FB004001E4000D082E00300D033B3
:108670001800039300F0EEFA00F0E6F928200DF060
:10868000E1FE050010300AF0CAFE6C4B18202B608A
:108690000DF0D8FE07006A4B0460082231000C3050
:1086A0000C930D960DF01DFF0CA9381D08220DF03E
:1086B000FCFE644BAF607B611223EE60AB802E62E8
:1086C0006E622900039802F08DF8002805D028007A
:1086D0000AF0CAFD28000DF0B1FE012322785A49A4
:1086E000134323702300B433180005930CF02EF8C5
:1086F0005649049005980CF029F80025069064204E
:1087000000F0C6FB2F002E0023006933FF33180052
:1087100007930BF096F800282DD1049B002B33D142
:10872000069B002B30D1E92549494A48AD0000F0AD
:108730008FFC6359002B1CD100F09AF801000AA8A5
:1087400000F0D8FD0BA80AF050FCD6239B00E018DF
:10875000069B0BAA0AA90093039B03F04BFD0BA8F1
:108760000AF0CCFD0AA80AF0C9FDD8239B00E35803
:1087700063510FB0F0BD20009130FF300BF061F875
:108780000028CAD0182EC8DC2000653039B22AB2C1
:10879000FF23FF30013700F02BFEFFB2322000F044
:1087A00077FB0136052F02D100270135EDB2049B7E
:1087B000192E06D0002BA7D02349059802F042FCC1
:1087C00001E0002BF8D104980DF038FE06980DF06A
:1087D00035FE1F491F4800F03BFCD6239B00E318E1
:1087E0000893E9239B00E3580993002B1ED100F066
:1087F0003FF801000AA800F07DFD0BA80AF0F5FB88
:1088000001230BAA0AA900930898039B03F0F2FC2A
:108810000BA80AF073FD0AA80AF070FDD8239B008C
:10882000E3580993E923099A9B00E2502100079A33
:10883000F031089803F0D8FE66E7C046FD0300005B
:10884000772F0200372F0200AB710200B6710200D1
:1088500000200020001C0020BFF34F8F024B034A72
:10886000DA60BFF34F8FFEE700ED00E00400FA0589
:10887000F0B58DB005AF1922154938000DF015FE81
:108880000022144B05245A7180225205566E012293
:1088900025000194029203930199300008F09AF99F
:1088A0000800029908F010F9019B03996B430193AA
:1088B000029B361A6B430293631E2C1B6C433C19BC
:1088C000225C1C1ECA54E7D108000DB0F0BDC046A2
:1088D000C671020006280020F0B597B018220021CA
:1088E000060010A80DF0FDFD132110A80DF0EEFB01
:1088F000032110A80DF0B9FC4C4B1B68002B00D1D4
:108900000133DBB202934A4A012300210BA807F08E
:10891000A9FE484B9E4200D9002672B6464B642100
:108920001D68464B30000793052408F057F9604353
:108930005030281808900A21300008F04FF90A2119
:1089400008F032FA614350316918099130000A2168
:1089500008F02AFA802361430024503169189B01F2
:108960000A910193029B002B5DD0002500272E1F4A
:1089700007AB9B190593032C03D1802300249B0193
:10898000019307AB5B592E4A03936300D3180493FA
:108990000023190006205843049A16187678B44626
:1089A0006246039EB25C10269446049A105C6246AE
:1089B0000641164202D00120984001430133092BA1
:1089C000E8D1C9431F4B059A090119401268039B5E
:1089D000934225D1312F23DC00210BA80DF006FD99
:1089E000FA23159A1199DB00106801421BD0013B54
:1089F000002BF9D1019B01345B000193FA2301376D
:108A0000E4B25B009F42B6D10435102DAED1074BC6
:108A10001B68002BA6D0029F013FFBB20293A1E787
:108A2000019B1943D9E7FFF717FFC04688240020B0
:108A3000F0FF0000E7030000042000201572020090
:108A4000DF710200F01F0000F8B50023124C236014
:108A50000AF0ECFA002808D0042120000AF0E2FA1B
:108A6000002801D00D4B2360F8BD0122A127042569
:108A70000B4B0C491A602268FF0048604E68002EBC
:108A8000FCD0DE591202013D3243002DF5D12260A7
:108A900001225A60E8E7C04684240020ED5EBC0B4A
:108AA00000D00040FCD00040F0B585B01F000AABFC
:108AB0001B880600029115000393002F1BD028206D
:108AC0000DF0C0FC6B4604001989039BAAB2009309
:108AD0003B000AF0B2FB336821005B683000984726
:108AE000002806D020000AF0BFFB20000DF0A6FCF5
:108AF000024805B0F0BD0248FBE7C04616FCFFFF88
:108B000017FCFFFF0B4B70B51C68002C10D0656D77
:108B100000F0ACFBA36C002901D1834206D82000F1
:108B20000AF0B7FA044920000AF0A1FA2C00ECE799
:108B300070BDC04690240020B0240020F0B593B052
:108B400007932A4B04AC1E68049005910692002EF0
:108B50004AD0274B258867881C6800230293002C85
:108B60002ED0636D23480393A36C9AB2A36C1B0CA5
:108B700099B2854214D12048824211D1002B01D0F4
:108B8000B9420BD1029B002B08D120000AF081FAD8
:108B90001A4920000AF06BFA01230293039CDEE7D6
:108BA000002A01D09542F9D1002B01D0B942F5D16C
:108BB00020000AF06EFA114920000AF058FAEDE799
:108BC0000F4BEB18012B0FD910233A00009329000B
:108BD0000C4B08A80AF031FB336808A99B683000E9
:108BE000984708A80AF040FB13B0F0BD8C24002081
:108BF000BC240020FE030000FF030000B02400207E
:108C000002FCFFFF3D8B010010B572B60B4B1C68D8
:108C1000002C08D020000AF03CFA0023E364084B43
:108C20002000E36310BD62B65C200DF00BFC5C22FB
:108C3000002104000DF055FCEFE7C046B4240020ED
:108C400000400020024B1878012318407047C046AE
:108C50000C280020F7B50600FFF7F4FF051E33D1FE
:108C60001A4C2660FFF7D0FF194B1A4918600AF01A
:108C7000FEF9FFF7C9FF184B1860184B4363184BF8
:108C80008363206800280ED0C027164E2A003300C8
:108C900015490097FFF708FF009733002A00134992
:108CA0002068FFF701FF0C200DF0CCFB0023838030
:108CB00083710F4B03600F4B836000F0EFFA0123C9
:108CC0000D4A11780B431370F7BDC0468C24002069
:108CD000C0240020B0240020B8240020FC3F002045
:108CE000593102003D8B0100FF030000FE0300002C
:108CF000BC660200058B01000C280020F7B50600B9
:108D00000D0017000193002802D100242000FEBDB1
:108D10000029FAD0FFF778FF041EF6D0074B019A1E
:108D20004363066045608760054B002A00D0054B11
:108D3000A363054920000AF09AF9E7E7FC3F002009
:108D40002331020041310200B0240020024B186898
:108D5000434258417047C046B0240020002310B55C
:108D600004499C006258002A01D00133F9E76050A1
:108D7000100010BD98240020002310B5044A99006B
:108D80008C58844201D00133F9E70020885010BD8F
:108D90009824002010B50024084BA200D0580028C9
:108DA00002D003685B6898470134062CF4D1044B69
:108DB0001B68002B00D120BF10BDC04698240020A6
:108DC000B0240020F8B5FFF73DFF00281CD02A4D45
:108DD0002C68E36CDA0718D502273B43E364274B82
:108DE0001E680423F26C30001343F364636BF36377
:108DF0000AF075F93000716C03F0EBFF2868C36C62
:108E00003B4201D004F01FF8F8BD1D4F1D4E3A68DB
:108E10003168002A1ED129602A68914208D11B07B7
:108E200006D52C60FFF7B6FF3B68002BFAD02B600D
:108E300029688C42E8D03368994214D1124B4B63B5
:108E4000124B8B6320000AF04AF92968626C4B6C64
:108E500020000DE0206DB84203D1606D002800D0E5
:108E600002002A60D8E79C42ECD1002210004B6C33
:108E700003F06EFFC8E7C046C02400209424002001
:108E8000B0240020B8240020FC3F0020593102000B
:108E900070B50500FFF7D6FE002803D128000DF0BD
:108EA000D8F970BD0C4B1C68E36CDB0706D5FFF7E7
:108EB000ABFE0A4B1860002800D0040000F0D6F981
:108EC0002D18A56420000AF0E4F8054920000AF0F6
:108ED000CEF8FFF777FFE4E7C024002094240020B9
:108EE00090240020F0B51E4B1E4F1C683B6885B0D7
:108EF00006000391002B30D0FFF7A4FE00282CD0F1
:108F0000E36CDB070ED5FFF77FFE174B051E1860DD
:108F100008D00AF0BEF8154928000AF0A8F82C007D
:108F2000FFF750FF039B20001B043343A3640AF0A8
:108F3000B0F820000E490AF09AF80E4B0024F318FE
:108F4000012B07D9C0230093039A0B4B31003868DB
:108F5000FFF7AAFD200005B0F0BD084CFAE7C046B7
:108F6000C02400208C24002094240020B024002061
:108F7000BC24002002FCFFFF3D8B010016FCFFFF1C
:108F800010B5FFF75FFE002809D0054C20680AF0F5
:108F900080F8044920680AF06AF8FFF713FF10BD53
:108FA000C0240020B4240020F7B507000D000028DD
:108FB0002ED0FFF747FE00282CD00724164E30682D
:108FC000C36C1C4007D0154A290038000AF078F815
:108FD00000242000FEBD03F01EFF02213268D36C86
:108FE0001940019103D003218B43D364F1E701249D
:108FF0002343D3642800B8473268D36C1900A143D7
:10900000D164019C5B07E4D528000AF091F8E0E701
:10901000034CDEE7034CDCE7C024002031310200C2
:1090200017FCFFFF16FCFFFF020010B5014B12CB2F
:1090300012C210BDC4240020034B1A68034B1A60EF
:109040007E225A607047C04604200020C4240020BD
:1090500070B5114E3278022A1AD081421AD90C1AF0
:10906000072C17D90D00032305432B4012D172B6EC
:109070000A4DD2005051AA1851608022A40812064D
:109080001443046032780132327062B6180070BD49
:109090000348FCE70348FAE70E280020CC24002010
:1090A00013FCFFFF17FCFFFF70B5134C060023787D
:1090B000124D002B0CD1124912482B70FFF7C8FF3C
:1090C000114B984202D11E20FFF706FC01232370AA
:1090D00000242B78A34209DD0C49E300C9183000B5
:1090E0000AF040F8002805D10134F2E71420FFF718
:1090F000F3FB002070BDC0460D2800200E28002084
:1091000000380020D828002017FCFFFFCC240020C6
:1091100070B5002819D0104B10491C7800239C42D0
:1091200016DDDA005558854210D28A1852688242FC
:109130000CD9041F2368002B02DC1E20FFF7CCFB98
:10914000802322681B061343236070BD0133E6E7CA
:109150001E20FFF7C1FBF8E70E280020CC240020DA
:1091600070B5051E14DD0B4E0B4C3368002B02D07E
:1091700020680CF0E9FEFA2120680024074B8900E2
:109180008361C462694335600CF0E6FE200070BD67
:109190000348FCE7DC2400200C2500204992010054
:1091A00017FCFFFFF8B5114F06003D68002D0AD1EE
:1091B00030200DF047F9040006F0A8FE0C4BA56125
:1091C0002360E5623C600B4D2B68002B09D1102019
:1091D0000DF038F904000CF080FE20002C600CF03B
:1091E00056FE3000FFF7BCFFF8BDC0460C2500203E
:1091F000BC6E020008250020014B18687047C0466D
:10920000DC24002070B50D4C2368002B03D00C4BE0
:109210001B68002B02D10620FFF7C4FF20680CF06A
:109220004DFE02000749C3170D684E68521973417D
:1092300020680A604B600CF047FE70BD08250020D6
:109240000C250020A820002010B5FFF7DBFF00242C
:10925000054BA200D058002802D003681B6898472D
:1092600001340A2CF4D110BDE024002010B5FFF722
:10927000C9FFFA22034B920018685968002307F0CF
:10928000D3FD10BDA820002010B5FFF7BBFF024B97
:109290001868596810BDC046A82000200B4B10B5B7
:1092A0001B680400002B03D0094B1B68002B02D164
:1092B0000620FFF777FF0023064A99008858002808
:1092C00001D00133F9E78C5010BDC04608250020BD
:1092D0000C250020E0240020002310B5044A99004A
:1092E0008C58844201D00133F9E70020885010BD2A
:1092F000E024002010B50400002902D00B78002BD8
:1093000003D1034B2360200010BD09F0FEFFFAE7F4
:10931000CC660200F8B504000E00150000290AD042
:109320000B78002B07D0002A05D0080097B20DF06B
:1093300018F9874203D90B4B23602000F8BD681D44
:10934000FFF7B2FE20600AF084F923682A005F80EC
:1093500023683100181D0DF0A8F823685D1900235B
:109360002B71EAE7CC660200014B03607047C046F0
:10937000CC66020010B50548054C20600AF06CF977
:10938000044A054920000DF052F810BDCC660200D9
:109390001025002000200020FD320200084B73B58C
:1093A0001C680500002C0AD001002668083108223C
:1093B00068460DF07AF80CCD31682000884773BDFF
:1093C00014250020014B03607047C046D46602009C
:1093D00010B50400002903D1044B0360200010BD28
:1093E000016008000AF038F9F8E7C046D4660200C8
:1093F00030B500684488A1420CDA8588AA4209DAAF
:10940000002907DB002A05DB54434018001983714B
:10941000002030BD0048FCE717FCFFFFF0B5070057
:1094200085B00E001D00002921DD002A1FDD002B64
:109430001DD00468638803938B4200DD0391A388E9
:109440000293934200DD0292002306340193019BB4
:10945000029A93420EDA29002000039A0DF025F8B3
:109460003B68AD195B88E418019B0133EEE70248C5
:1094700005B0F0BD0020FBE717FCFFFFF8B50400C6
:109480000D0016001F00002901DB002A02DA0E4B36
:109490002360F8BD100048430630FFF705FE20604A
:1094A0000AF0D7F823685D8023689E80002F06D0DD
:1094B0003B00320029002000FFF7B0FFE9E7200061
:1094C00009F0FEFFE5E7C046D4660200F7B50600E6
:1094D0000D1E03D1244B03603000FEBD00200F00A1
:1094E0000400010001903B78002B1AD03022524238
:1094F00094469C446246092A11D90A2B0AD1019B41
:10950000241801330193A14200DA21000020040055
:109510000137E8E70028FBD001340020F8E70120FC
:10952000F6E76A460127928809B212B230007F42FC
:10953000FFF7A4FF39000A2033689A1D2C78002C0D
:10954000CAD02300303B092B08D8FB43DB173B4034
:1095500043431B19303B1F000135EFE7002FFBDBB6
:10956000177001320F00F7E7D4660200F0B504006F
:1095700089B006A80E0002921D00FFF755FD236872
:1095800002995A88914235DA9B889D4232DA1F2E21
:1095900030D9079B01939E422CDC052300227343A4
:1095A0000393069B0493039B04999B18A03BCB5CFD
:1095B00000210593AE18029BCF18236858880190AC
:1095C00087420EDA9888B0420BDDDB1910270F4175
:1095D000019870431B1805980740781E87417F4209
:1095E0009F7101310529E6D10132052ADBD1002026
:1095F00009B0F0BD0048FBE717FCFFFFF7B50468B2
:10960000070063880E1E01931EDD994218DA0023BD
:10961000063400933B68009A9B889A4212DA019BB9
:10962000A1199D1B2A0020000CF03FFF601931009A
:1096300009F029FF3B685B88E418009B0133E8E7E9
:1096400009F03EFF002000E00048FEBD17FCFFFFD0
:1096500010B50548054C206009F0FEFF044A054995
:1096600020000CF0E4FE10BDD46602001825002096
:10967000002000207934020010B5054C01212000A3
:1096800009F0DEFF034A044920000CF0D0FE10BDB3
:109690001C25002000200020FD3502000388074A19
:1096A00010B50120934208D0834202D00020DB078E
:1096B00003D41E20FFF710F9002010BDFFFF0000AB
:1096C0000048704716FCFFFF10B5124C0023083409
:1096D000828004604162022414220100837184723A
:1096E00003638386028136310A78C360A243F13472
:1096F0002240036143618361C36103620A70020017
:1097000040321370021DD387013343878387C38799
:1097100010BDC046F4660200F0B5514F97B03B68EB
:1097200006000593002B3FD106AC0B331C222121F0
:10973000200001F0D9F90EAD0B231D2222210AA829
:1097400001F0D2F90B231B222321280001F0CCF9D0
:1097500008200CF077FE0122059B110004900BF00D
:1097600020FB3A2130000BF076F8002827D0A388A0
:1097700012ADAB80A3795C20AB713A4B1293A36816
:109780001493237B2B73637B6B73A37BAB730CF002
:1097900059FE04230193363300932A00049B3100C1
:1097A000040001F0BFFF3C602F4B2D4C18680028CF
:1097B00002D021680AF0B3F8206817B0F0BD32215A
:1097C00030000BF076F800281CD0A38812ADAB80D7
:1097D000A3795C20AB71234B1293A3681493237B72
:1097E0002B73637B6B73A37BAB730CF02BFE042397
:1097F00001932E3300932A00049B3100040002F0F1
:109800002FF9D0E73C2130000BF00EF8002822D0D1
:10981000AB8812ACA380AB79A420A371114B129337
:10982000AB6814932B7B23736B7B6373AB7BA3734A
:109830000CF008FE052305000293013B0193383329
:1098400000932200049B310001F08AFE064B3D602C
:1098500044351D60A8E73220FFF73EF8A4E7C04674
:1098600020250020E466020024250020F0B561498F
:10987000C56885B08D4254DA0300022236331B7866
:10988000134059D104698C4264DA020036321278EE
:10989000520768D4426901920200019E40328E4212
:1098A0006FDA010036310978090774D4002B7DD1B5
:1098B00013780293002B16D006000127011DCB8FD1
:1098C000363601339BB2CB8703963678BC46374099
:1098D00000D188E01D2B06D963469E43039B1E7072
:1098E0000023CB87137009F0FAFE434A0723904206
:1098F00076D94249043B8D4272DBC8220133920083
:1099000095426DDC023B8C426ADB013B944267DC92
:1099100001980433884263DB0133904260DC00230A
:109920005EE0C822002352009542ABDD03003633CF
:109930001A7800239207A5D4012306001F003636AB
:1099400032785408A7433C0002279C40BA43224384
:10995000327097E7C822520094429BDD02003632F3
:109960001278520796D406000122363633789F08C3
:10997000BA439700042293431A003A4332700123FA
:1099800088E7C821019E49008E428FDD01003631F3
:10999000097809078AD40100012636310B78DF08DF
:1099A000BE430827F600BB4333430B701378032BE9
:1099B00000D97DE70133DBB21370012B03D1002105
:1099C000031DD98774E7042B00D071E702003632FB
:1099D0001178033B0B43137000230430C3870B3310
:1099E000180005B0F0BD092B00D87CE7029BCF879B
:1099F000013B77E770FEFFFFFF700200E0FCFFFF16
:109A000070B5C369C1681A68451D8AB00400EB7F50
:109A1000114255D0002B58D1EB7F082B0DD90122D4
:109A2000A379134209D11343A371A188130006A897
:109A300009F0FFFCFFF71AFC2062EB7F012B23D813
:109A40000123A2791A421FD00025A188A571022204
:109A500002A809F0EEFCA31DDE7F012E14D1FFF752
:109A600005FC2B00226A801A994100900191019B0C
:109A7000A188AB4203D1174B009A9A4227D9012300
:109A8000042206A809F0D5FC0322A3791340012B78
:109A900014D1FFF7EBFB0023226A801A9941994207
:109AA00002D10D4B984209D90223A279A188134310
:109AB000A3710522012306A809F0BBFC0AB070BD02
:109AC0000B2BA9D80133EB77A6E7013BFBE733006B
:109AD0000322D6E7E7030000DB05000010B5040011
:109AE000034B08330360FFF7F7FB200010BDC046AF
:109AF00028670200F0B5070000250E0085B002932C
:109B00000AAB1B7808370393104B0400083303603B
:109B10000192858085712900182238000CF0E1FC43
:109B2000039A310038000CF0D6FA6B466A469B88DF
:109B3000127AA380A31DE671DA77631D25622000E7
:109B4000DD77FFF7ABFB200005B0F0BD2867020012
:109B50000048704716FCFFFF002310B50400838007
:109B600083710D482164083020608020C000A0610E
:109B7000E0612062E3602000236163616362A362AD
:109B8000E36223636363A363E3636364110009F027
:109B90009EFE200010BDC04640670200F0B5504F49
:109BA00097B03B6806000593002B3FD10B331C2276
:109BB000212106A80AAC00F097FF0EAD0B231D2251
:109BC0002221200000F090FF0B231B2223212800DC
:109BD00000F08AFF08200CF035FC0122059B1100E3
:109BE00004900BF0DEF81D2130000AF04BFE002837
:109BF00025D0A38812ADAB80A3796020AB71394B1F
:109C00001293A3681493237B2B73637B6B73A37BE7
:109C1000AB730CF017FC05230193183300932A0053
:109C2000049B3100040001F051FE3C602E4B2C4A95
:109C30001B681068002B00D0436417B0F0BD3C21B6
:109C400030000AF04DFE00281CD0A38812ADAB8076
:109C5000A3796020AB71234B1293A3681493237BE9
:109C60002B73637B6B73A37BAB730CF0EBFB052354
:109C70000193373300932A00049B3100040001F064
:109C800091FFD2E73C2130000AF0CEFD002822D01F
:109C9000AB8812ACA380AB79A420A371114B1293B3
:109CA000AB6814932B7B23736B7B6373AB7BA373C6
:109CB0000CF0C8FB052305000293013B01933833E8
:109CC00000932200049B310001F04AFC064B1D600A
:109CD00044353D60AAE73320FEF7FEFDA6E7C04607
:109CE00024250020E46602002025002082B0F0B583
:109CF0000400EDB06420739372920CF0AAFA05226E
:109D000010A8110009F0E5FB974911A8FFF7DEFB49
:109D1000002221AB6CA91A605A609A600C339942F8
:109D2000F9D11922002113A80CF0DBFBA0680AF07E
:109D30008DF900260B90FF21A06800F0B9FC8B4F35
:109D4000A06800F05FFB07960996884B9F4203D0FE
:109D5000874B9F4200DBFDE0A0680AF079F9A56817
:109D600084491AA8FFF7C6FA78221AA9280000F039
:109D7000E7FB1AA809F0C2FA00267C4F0322099BD0
:109D8000606801331A40099209F041FD05006068DE
:109D900009F044FD0022784B05929D4210DB013210
:109DA00005922A00C8320BDBAA22042192000591F9
:109DB000954205DC02220592C82D01DD0132059293
:109DC00000220692984210DB012306930300C83359
:109DD0000BDBAA2304329B000692984205DC022387
:109DE0000693C82801DD0133069310A809F068FB2B
:109DF000002513ABEB5C012B08D160496B00CA183E
:109E00005278C95C10A8FF23FFF7F2FA0135192D2B
:109E1000EFD16B4618229A5E6B4610A81421595E4A
:109E2000099BFFF7E5FA002F01DB0F2E07D900236E
:109E3000A068009374301A0010A909F057FB0123A1
:109E40000893089B05995A004C4B9B189A1E127850
:109E50008A4226D1013B1B78069A934221D1089A67
:109E60006CAB9B18663BFF3B0A931B78012B18D009
:109E70000C23079A216853431D0000220CA809F007
:109E800050FD21AA2B0094460CAA634423CA23C385
:109E900001220A9B01361A70079BF6B20133DBB22E
:109EA0000793089B013308931A2BCAD164200CF046
:109EB000D0F9079B643F3FB2182B00D845E71A0042
:109EC00021A91AA809F03BFF6A461DAB23CB23C288
:109ED0001B6813601A991B9A1C9B206809F009FDE6
:109EE000E568002D0CD0264912A8FFF703FA1C23C1
:109EF0001AAA12A928000AF062FC12A809F0FEF9B9
:109F0000A0680AF0A5F811A912A8A56809F0C1FA7D
:109F100000221C4B009212A901932800130000F0AC
:109F2000B3FA12A809F0A8FAFA2080000CF091F90F
:109F3000A0680AF08DF80B99A06800F0B9FB11A891
:109F400009F09AFA10A809F097FA6DB0F0BC08BCB5
:109F500002B01847002F02D00F2E00D00EE7A068E5
:109F600000F050FA0AE7C046F57302008C3C00008E
:109F7000D18AFFFF3A74020058FDFFFF5A740200B5
:109F80004F740200DC050000F0B587B001930EAB02
:109F90001B88060003930D9B0D000093019B02920A
:109FA0000C9F002B3DD0002F02D1009BDB0738D542
:109FB00028200CF047FA0400103009F030FA6B4604
:109FC0001B891820258063800CF03CFA0500009B5B
:109FD00008220593019B002103600C3004970CF0CC
:109FE00080FA082204A9281D0CF05FFA0E4B022209
:109FF0006B6100230399E3602362636233680A4361
:10A00000A560A2805B68210030009847002806D038
:10A01000200009F029F920000CF010FA034807B0DD
:10A02000F0BD0348FBE7C0466339020016FCFFFFA2
:10A0300017FCFFFF70B58CB08360109B016042601D
:10A04000C3600400184918000AF080FB051E14D0F4
:10A0500001001C22103105A80CF027FA6A4608AB53
:10A0600043CB43C21B68136020680599069A079B7F
:10A0700009F03FFC28000CF0E1F90C4B18680028AF
:10A080000ED00B4A05AB059200220692C032029216
:10A090006A4622CB22C2230003220521FFF774FF68
:10A0A00020000CB070BDC0464F7402001425002083
:10A0B000ED9C0100F0B5040085B0637A9C46002B4E
:10A0C00004D1200009F059FE05B0F0BDA37A266F37
:10A0D00001931023019AF35600259B1801229A4000
:10A0E0002900F36803920293029BAB4231DDB3680F
:10A0F000019A6B439B1872695B00E77AD3181A7850
:10A100005878E379012F14D15F1E3F1A10003A00EE
:10A110005B004343606F8218D3189B79634500DD71
:10A120006346627B1A4202D00123AB4019430135DA
:10A13000DAE7022F05D15F1EBA1A277A013F381AD3
:10A14000E6E7032FE4D1277A013FBF1A0200380067
:10A15000DEE71123C943F356606C99402369194027
:10A16000039B19430CF042F9A27B072AACD8637B0E
:10A170000C495B006373531CDBB290004158A3731E
:10A18000022A03D808000CF059F896E7064B200085
:10A19000236300236363054BE462236414300BF0F4
:10A1A000DBFE91E76C670200B5A00100653D02008F
:10A1B00010B50400044B03600BF0C6FE200005F050
:10A1C000BBFE200010BDC046BC6E020010B50400EE
:10A1D0000E4B08330360FFF77FF82000743009F05E
:10A1E0004BF92000603009F047F92000583009F0A1
:10A1F00085F82000503009F081F82000044B14301D
:10A200006361FFF7D5FF200010BDC0468C670200D8
:10A21000F06E0200F8B500250400324B858008334B
:10A2200003608571143016000F0005F06FFE2000EA
:10A230002D4BE562636125645030FFF795F82000EF
:10A240005830FFF791F820006030FFF7BBF820008E
:10A250000423F25E33682667590009B2743009F0AE
:10A2600038F93368226FE371736801262372102373
:10A270006581A7802561D35691685918994204DDFC
:10A280003000984001330543F8E711230120D356ED
:10A29000D1685918994206DD02009A4026690133B7
:10A2A00032432261F6E714200CF0CCF82269002139
:10A2B0002A430123060006F0D5F9FF23220063722A
:10A2C0000133A381002348326664A3732000137016
:10A2D000A366FEF7E3FF0123A27920001343A371D5
:10A2E000F8BDC0468C670200F06E0200F0B5437AFC
:10A2F00085B00400002B04D1200009F03EFD05B01C
:10A30000F0BD0122837A11009C461023066F0025C0
:10A31000F35603926344994002912900F368019334
:10A32000019BAB422CDDB36872696B4363445B00F5
:10A33000E77AD3181A785878E379012F10D15F1E85
:10A340003F1A10003A005B004343606F8218D31835
:10A350009B79002B02D0039BAB4019430135DFE70B
:10A36000022F05D15F1EBA1A277A013F381AEAE791
:10A37000032FE8D1277A013FBF1A02003800E2E735
:10A380001123C943F356606C994023691940029B1D
:10A3900019430CF02BF8667AB31EDBB2FC2B14D8F1
:10A3A000FEF72AFF0B4B0500236300230A48636373
:10A3B0000A4BFF21E4622364704306F00FFC29007E
:10A3C0004143200014300BF0C7FD637A012B00D904
:10A3D00095E791E77B3D0200B6030000653D020072
:10A3E0001FB5012381881A00684609F022F801236D
:10A3F00003491A00684609F01CF805B000BDC046C4
:10A40000FE0300001FB5030048331A780400002A39
:10A410000DD000221A70012381881A00684609F0C5
:10A4200008F8012304491A00684609F002F82000E0
:10A43000743009F045F81FBDFF03000010B5483027
:10A440000378002B06D00378012B03D001210248AA
:10A4500008F05EFE10BDC046FF03000010B50121EC
:10A460000400062008F054FE064B984208D14834F8
:10A470002378002B04D02378012B01D020BFF7E7ED
:10A4800010BDC04616FCFFFF73B5079C0500002CED
:10A490001CDB060048363078002802D030780128CE
:10A4A00016D106981BB2C0B20090280012B27430C8
:10A4B00009F01CF8002C07D02B004A331C80002424
:10A4C00007234C352C803370200076BD014CFBE710
:10A4D000014CF9E717FCFFFF12FCFFFFF0B587B056
:10A4E0000D9C06000F0002920393002C20DBFFF767
:10A4F000A5FF330048331D78EDB2002D1AD1390085
:10A5000005A808F0C6FF0C9B01940093029A039BD8
:10A5100005A93000FFF7B8FF05A808F0ADFF002C33
:10A5200003D03000FFF79AFF2C00200007B0F0BDE9
:10A53000014CFAE7014CF8E717FCFFFF11FCFFFFA5
:10A54000F8B50400171E1DDD060048363378002BD1
:10A5500002D03378012B17D12200E3795632013B28
:10A56000137023000025200054331D80503008F064
:10A5700024FF23004A331F80022328004C34258007
:10A580003370F8BD0148FCE70148FAE717FCFFFF0C
:10A5900012FCFFFFF7B505000F00161E18DDFFF7D0
:10A5A0004DFF2B0048331C78E4B2002C12D1390047
:10A5B00001A808F0FAFE320001A92800FFF7C0FF49
:10A5C00001A808F09BFE2800FFF748FF2000FEBD11
:10A5D0000148FCE70148FAE717FCFFFF11FCFFFF09
:10A5E000F8B50400171E2DDD060048363278002A23
:10A5F00002D03278012A27D15D42069BFF331FD15A
:10A600006B1D22001BB264321380230020006633CE
:10A610001D70603008F045FF230000226C331A7073
:10A62000954200D03D0023004A331D80079B002047
:10A630005A1E9341013F4C34053327803370F8BDD7
:10A64000069BDEE70148FAE70148F8E717FCFFFF41
:10A6500012FCFFFFF0B587B005000F00161E039334
:10A660001EDDFFF7EBFE2B0048331C78E4B2002C14
:10A6700018D1390005A808F00CFF0D9B320001939A
:10A680000C9B05A900932800039BFFF7A9FF05A8D1
:10A6900008F0F2FE2800FFF7E1FE200007B0F0BD51
:10A6A0000148FBE70148F9E717FCFFFF11FCFFFF3A
:10A6B000FF2902D84172002070470148FCE7C046DC
:10A6C00017FCFFFF13B5040004A8007800902000D9
:10A6D0000BF068FC002801D1207516BD0048FCE78E
:10A6E0000EFCFFFF13B5040004A8007800902000C2
:10A6F0000BF040FC002801D1207516BD0048FCE796
:10A700000EFCFFFF7FB50D0011000F226A4404000C
:10A710001E1E117016D0089B002B13DD012329008B
:10A720000093FFF7DFFF002802D0074804B070BD98
:10A730000090089B320029002000FFF7C3FF00288B
:10A74000F4D0F2E70148F1E70EFCFFFF17FCFFFF32
:10A75000F7B507000D1E3FD00023022604690193C0
:10A76000002C35D0AA88A3885340334204D132420A
:10A7700004D1AB88334226D0646AF1E7A968A068A7
:10A780000AF0F4FA0028F4D02B88002B02D022889B
:10A790009A42F1D16B88002B02D062889A42EBD1A9
:10A7A000EB68E268934201D0002BE5D17B68002B77
:10A7B00001D020009847A288084B1343A380019B37
:10A7C00001330193D8E7A368AA689342D4D1DBE7A9
:10A7D000019B2000002B00DC0148FEBD0080FFFF34
:10A7E00017FCFFFFF0B5060085B00D1E5DD00127F8
:10A7F0000469002C26D00221AA8800230A4202D034
:10A80000A3885B083B40226829688A4214D1A0686B
:10A81000A968002B0ED00AF0A9FA00280CD0EB682A
:10A82000E268934208D1A3881AB2002A06DB2048C6
:10A8300005B0F0BD8842F2D0646ADAE75B045B0CD5
:10A84000A380F4E730692A88002807D13561012305
:10A850001849684608F0EDFD0020E9E70100030013
:10A860001C88944206D25C6A1900002C0DD023008B
:10A87000F6E723001C88944207D15F886C88A742C2
:10A8800003D85C6A1900002CF3D1884209D10B88E7
:10A890009A4204D305D148886B88984201D96962ED
:10A8A000D4E74B6A6B624D62D1E70348C0E7C0460C
:10A8B00016FCFFFFFD03000017FCFFFF064B10B561
:10A8C0001A00040008322C33026083600830FEF75F
:10A8D00053FA200010BDC046A467020008B4024B22
:10A8E0009C46083808BC6047BDA8010008B4024B6C
:10A8F0009C46083808BC6047F34102000C4A00231C
:10A9000011002C32083110B543608381837382605B
:10A91000036143618361C383016004000830FEF773
:10A920001DFA044B1A68002A00D11C60200010BDDB
:10A93000A467020014250020F7B50E000125046964
:10A940000192002C36D0238832889A4201D0002B05
:10A9500023D1638872889A4201D0002B1DD1FEF763
:10A9600071F90123002806D0C022A3881340C03B00
:10A970005A425341DBB2019A934219D1A7883BB2A4
:10A98000002B15DB10223100A0180BF08EFD4023A8
:10A990001F4204D0200009F035FC646AD1E7FEF7BD
:10A9A00051F90028F6D021000348FEF7FDFAF4E73C
:10A9B0000025F2E72800FEBD0542020008B4024B64
:10A9C0009C46083808BC60478D430200F0B587B04C
:10A9D00001930EAB1B88060003930D9B0D000093A3
:10A9E000019B02920C9F002B3DD0002F02D1009BB7
:10A9F000DB0738D528200BF025FD0400103008F0C7
:10AA00000EFD6B461B891820258063800BF01AFD14
:10AA10000500009B08220593019B002103600C3078
:10AA200004970BF05EFD082204A9281D0BF03DFDE4
:10AA30000E4B02226B6100230399E3602362636281
:10AA400033680A43A560A2805B6821003000984704
:10AA5000002806D0200008F007FC20000BF0EEFCD8
:10AA6000034807B0F0BD0348FBE7C046C7430200F8
:10AA700016FCFFFF17FCFFFFF0B5040016000025D1
:10AA80008380164A164B85710260218146810573C9
:10AA9000186889B08C46A8421DD0124A05950492C8
:10AAA000C02202926A4604AB82CB82C223002A00F3
:10AAB0006146FFF78BFFC022094B0A4918680292D2
:10AAC0006A46069106AB079582CB82C223002A0014
:10AAD0003100FFF77BFF200009B0F0BDE8670200FE
:10AAE00014250020F144020030B500240373012333
:10AAF000034D84710560818082734373846030BD2F
:10AB0000E466020070B583790400DB0702D5806833
:10AB10000BF094FCA3799B0702D5A0680BF08EFC88
:10AB2000A3795B0707D5A0230021144ADB00D1508D
:10AB3000A0680BF083FCA3791B0708D5A568002D3E
:10AB400005D028000AF083F928000BF077FCA379E0
:10AB5000DB0605D5A068002802D00368DB689847AB
:10AB60006023A2791A4205D0A068002802D00368A9
:10AB70005B6898470023A360A37170BD007000401C
:10AB8000F7B50227037B04000D003B4226D00129C4
:10AB900026D886793E40009614D1FFF7B3FF1820DF
:10ABA0000BF050FC0E230600E35618220099019387
:10ABB0000BF097FC019930000BF09FFAA379A66087
:10ABC0003B43A371A3685A68002D04D00025DB68BD
:10ABD0001A602800FEBD1B691A60FAE7014DF8E70C
:10ABE000014DF6E716FCFFFF17FCFFFFF7B5012646
:10ABF000037B040033422AD0612385791D4017D19D
:10AC0000FFF780FF18200BF01DFC0E230700E35612
:10AC100018220093637B290001930BF062FC019AD8
:10AC2000009938000BF057FAA379A7603343A3715A
:10AC30006023A279A0681A4202D00BF001F9FEBD90
:10AC4000436940681B681840431E9841F7E7014874
:10AC5000F5E7C04616FCFFFF10B501248379417368
:10AC60001C4004D080680BF000FB002010BD602267
:10AC7000134203D080680BF0EAF8F6E70048F5E7E6
:10AC800016FCFFFF70B5040000250C4B0E000833C6
:10AC90008580857103602100183009F0DAFC2000FE
:10ACA0002100203009F0F8FC054BA680E5802572D4
:10ACB000E5602561656120001C6070BDF8670200D9
:10ACC000282500208379DB0702D5C160002070476A
:10ACD0000048FCE716FCFFFF8379DB0701D5C0685D
:10ACE00070470148FCE7C04616FCFFFF70B5456998
:10ACF0000400002D22D0037A032B21D8FFF7ECFFAC
:10AD0000A8622C200BF09EFB2C22002105000BF0EA
:10AD1000E8FB002263695A622369934208D16369A0
:10AD200023610020237A65610133237270BD130013
:10AD30005A6A002AFBD162695A62F2E70148F5E7D4
:10AD40000148F3E717FCFFFF13FCFFFF144B70B53E
:10AD50005A68144C002A03D000225A600132A260C3
:10AD60001A69002A17D0002119618023DB000E4DDB
:10AD7000E3582868012B0FD1A923DB00E158494291
:10AD8000FFF7A0FF2868FFF7B1FF2B685A69074B50
:10AD9000E2500123A36070BDFFF794FFF9E7C046BE
:10ADA000FC10004000100040282500200405000091
:10ADB00003000069002809D00221054AD167426AD0
:10ADC0001A611A7A013A1A72024B19607047C0462A
:10ADD00004E100E000E100E010B5002903DB024BD4
:10ADE00019600BF02FF910BD2C25002070B5040060
:10ADF0001E0004AB1D7805F0D1F820000E4B40304A
:10AE00002360FEF7B1FA230001364C3301352200EE
:10AE10001E701D730023E1214E32A364636513800D
:10AE200053809381D381013B200063644902FFF783
:10AE3000D3FF200070BDC04694660200F7B580279E
:10AE40007F053D697C690822113C6C4306002100A6
:10AE500068460BF02AFB104B009A9A4219D00093D7
:10AE600000230193796930001339694309F029FC03
:10AE7000019A0099300009F03CFC2100300009F0F3
:10AE800020FC7969AB08133969432200300009F0CE
:10AE900022FC0198FEBDC046FECA0000F0B50D00C0
:10AEA000A9B00D9200213022060010A80B930BF0E0
:10AEB00018FB28000BF055FB431C0C93102B00D9FA
:10AEC000B5E00B9B202B00D9B1E02900300009F040
:10AED0003DFC071E50D129000C9A10A80BF0E5FA92
:10AEE0000D990B9A14A80BF0E0FA80235B051A6900
:10AEF0005F690C92113F7A4330005D690B92FFF756
:10AF00009DFF3022002104001CA80BF0EAFA290062
:10AF100000270C9B13395943300009F0D2FB0D97E1
:10AF200030257D430B9B0833ED18A74242DA2900F8
:10AF300030221CA80BF0B9FA10A91CA80BF007FBD3
:10AF4000002827D13C49300022000E910F9409F0CF
:10AF5000D0FB6A46099513AB23CB23C223CB23C274
:10AF600023CB23C23000129B1099119A09F0CFFB1A
:10AF700001230D930137D3E710300B9A0D990BF095
:10AF800085FA040038000BF059FA002CA3D12000F8
:10AF900029B0F0BD6A4609951FAB23CB23C223CB52
:10AFA00023C223CB23C230001C991D9A1E9B09F09B
:10AFB000AEFBDFE7E5433023ED1725405D430B9BF8
:10AFC00008355D190D9B002B1DD10C9B3021981E5F
:10AFD00005F07AFDA0422CD0174901343000220040
:10AFE0000E910F9409F085FB6A46099513AB23CBAC
:10AFF00023C223CB23C223CB23C230001099119A42
:10B00000129B09F084FB0B99300009F05AFB802356
:10B010005B0559690C230C9A133963434A43023385
:10B02000110030000B9A09F056FB0024AFE7034CE7
:10B03000ADE7034CABE7C046FECA000017FCFFFFBC
:10B0400013FCFFFF8023F0B55B051A6995B00392EE
:10B050005A6905910399113A51435D69039B133D68
:10B06000040002915D43FFF7E9FE061E3BD0002776
:10B0700030220021083508A801950BF032FA019919
:10B08000200009F01EFB049730237B43029D083506
:10B09000ED18B7421FDA2900302208A80BF005FA94
:10B0A000059908A80BF053FA00280AD11949721E15
:10B0B00020000691079209F01CFB0123049301373D
:10B0C000E2E70C23019A2900200009F004FB019B10
:10B0D00030330193F3E7049B002B06D10D49320076
:10B0E000200009F006FB0C4812E00299200009F04C
:10B0F000E8FA80235B0559690C23039A13394A4304
:10B100007343110020000233029A09F0E4FA002090
:10B1100015B0F0BDFECA00000CFCFFFF70B50400C6
:10B12000A280FA22002308000C4992000831216015
:10B13000A3716061E260A3606382094909F006FBC4
:10B14000051E09D0010020001031022212300BF040
:10B15000ACF928000BF072F9200070BD10680200F5
:10B160008C74020030B50225837987B004002B422D
:10B1700004D1FDF7F3FDA3791D43A571200009F06B
:10B180002FFB00281CD06B46DD1C280009F01FFB9C
:10B190002B78002B17D001A809F017FB0321019A87
:10B1A000D3170B409B189B102382FEF75FF8E368D0
:10B1B000A18818180123A0601A0002A808F039F924
:10B1C000002007B030BD0122064B1A60064A5168C4
:10B1D0000029FCD000215160044A1268019201222A
:10B1E0005A60DBE700C00040FCC0004008C50040DA
:10B1F000022802D10122014B1A7070470F2800204B
:10B2000070B5064C05002378002B04D1044802F0E9
:10B210003DFC01232370280070BDC046102800208B
:10B22000F1B1010070B50C0007F000FF002810D04C
:10B230000023144DA40A2B70200009F0E5FA002821
:10B2400003D00A200BF005F8F6E72B78002BFCD092
:10B2500070BD02210C4B0D4A99508021C900080095
:10B260005D58002DFCD0A121C9005C50195800295F
:10B27000FCD0002199508021C9005A58002AFCD0E6
:10B28000E6E7C0460F28002000E00140040500006A
:10B29000F8B50C0015001E0007F0C8FE002811D0FC
:10B2A0000023174F3B7032002900200009F0AAFA52
:10B2B000002803D00A200AF0CCFFF4E73B78002BEB
:10B2C000FCD0F8BD01210F480F4B84461950802156
:10B2D000C9005A58002AFCD080270022FF0096425D
:10B2E00007DD910068586050D9590029FCD001321F
:10B2F000F5E7002261465A50DA59002AFCD0E0E70F
:10B300000F2800200405000000E0014008B4024BB3
:10B310009C46443808BC60470D480200FA21F8B545
:10B320000389C90004005943324809F035FDFA2168
:10B33000890005F0C9FB304F2081A17A380009F05F
:10B340002BFD23002600250022894C33A072A03655
:10B350001A808C35317800232A22286808F085FE6F
:10B36000002801D02548F8BD31781F235B222868CA
:10B3700008F07BFE0028F5D1317820235C22286874
:10B3800008F073FE0028EDD1317801232C222868C3
:10B3900008F06BFE0028E5D1317801232D222868C2
:10B3A00008F063FE0028DDD1317801232E222868C1
:10B3B00008F05BFE0028D5D1A17A380009F0E7FC3F
:10B3C0003178C3B20E22286808F04FFE0028C9D198
:10B3D000FA21238989005943064809F0D8FC012342
:10B3E0000343DBB231782A22286808F03EFE0028A9
:10B3F000B9D0B7E730680200286802000EFCFFFFF2
:10B4000008B4024B9C46443808BC60471DB3010099
:10B41000074B10B51A00040008323C330260436445
:10B42000443008F022FA200008F052F9200010BD44
:10B430009068020008B4024B9C46443808BC604740
:10B4400011B4010008B4024B9C46443808BC604764
:10B4500017480200F0B5042583798BB004002B4215
:10B4600004D1FDF77BFCA3791D43A571200090302A
:10B47000FFF7BCFB0026B0420FD12300A0331978A0
:10B4800020000C2307AD00938C302B0001220068B4
:10B49000FFF738F9061E03D02C4E30000BB0F0BD7C
:10B4A0000A2304AA9B182A785A706A781A70002214
:10B4B000985EAA785A70EA781A700022995E039111
:10B4C0002A795A706A791A7000229F5EAA795A7096
:10B4D000EA791A7000215A5E04922A7A5A706A7ABE
:10B4E0001A7000215A5E0592AA7A5A70EA7A1F25CC
:10B4F0001A7000229B5EA27A03999C4651434942EE
:10B500005043CB172B407A435B185B11A361C317E1
:10B510002B401818D3171D406423AD18059A5B42C1
:10B520005343A36764236146049A40115A434B4333
:10B53000E2676D11221DE06125622000D36708F0EB
:10B5400039F92000443008F097F9A6E70EFCFFFF18
:10B5500008B4024B9C46443808BC604755B401000F
:10B56000F7B51E00040008AB1B881500019309AB5A
:10B5700000911A8831000AAB1F88FEF7A5F8200059
:10B580003A0031004430FEF7E7FA134B20001A006E
:10B590003C336364230008322260009A8C331A60C3
:10B5A000AB8890308380AB796A4683710B4B92886D
:10B5B0000360AB68032183602B7B03736B7B437356
:10B5C000AB7B83732300A0331A80FFF745FB200079
:10B5D000FFF7A4FE2000FEBD90680200E4660200B2
:10B5E000F8B5FA260189B60004007143264809F02F
:10B5F000D3FB310005F068FA244F2081A17A38008E
:10B6000009F0CAFB2500A0725835297800232A22A8
:10B61000606C08F02AFD002801D01D48F8BD29788B
:10B6200010232B22606C08F020FD0028F5D129782A
:10B6300001232D22606C08F018FD0028EDD1297837
:10B6400001232E22606C08F010FD0028E5D1A17ABC
:10B65000380009F09CFB2978C3B20E22606C08F018
:10B6600004FD0028D9D121890748714309F08FFBD7
:10B6700001230343DBB229782A22606C08F0F5FC31
:10B680000028CBD0C9E7C046F8680200F068020085
:10B690000EFCFFFF10B50400034B0833036008F0F5
:10B6A00017F8200010BDC046586902007FB5042578
:10B6B000837904002B4204D1FDF750FBA3791D438D
:10B6C000A57120004830FFF791FA0025A8420DD15E
:10B6D000230058331978062302AE00930122330069
:10B6E000606CFFF70FF8051E03D00D4D280004B065
:10B6F00070BD022300210420F356A27ADB007156AC
:10B7000030565343C000C900514342435B42A361DA
:10B710002368E16122629B6A20009847E6E7C04601
:10B720000EFCFFFFF8B50400150006AA168807AA4C
:10B730000F0012881900FDF7C7FF0F4B676408332D
:10B7400023602300AA8848339A80AA7920009A713E
:10B750000A4AA264AA6822652A7B1A736A7B5A7312
:10B76000AA7B9A730023A371230058331E80FFF72E
:10B7700037FF2000F8BDC04658690200E4660200A9
:10B7800010B50400034B0833036008F06EF8200086
:10B7900010BDC046EC690200F0B507005C3787B009
:10B7A0000400397800231022806C08F05EFC032628
:10B7B000002802D01F4807B0F0BD0F2502ABED18DE
:10B7C0000123397808220093A06C2B00FEF79AFF22
:10B7D000184B9842EED02B78334203D06420FDF70B
:10B7E00057FBEAE7FA262189134DB600714328007A
:10B7F00009F0D2FA310005F067F920813978A023E9
:10B800001122A06C08F031FC0028D3D1A36C21894F
:10B810000393714328003F7809F0B9FA01231843D4
:10B82000C3B210223900039808F01FFC0028C2D0D0
:10B83000C0E7C0460EFCFFFF8C69020070B508250A
:10B84000837986B004002B4204D1FDF787FAA379EF
:10B850001D43A57120004C30FFF7C8F9061E0DD01E
:10B8600023005C331978062304AD009301222B00DA
:10B87000A06CFEF747FF061E03D0134E300006B043
:10B8800070BD0E232A786B445A706A7820001A70B3
:10B890000022995E64224A43A263AA785A70EA7829
:10B8A0001A700022995E64225242514361632979E1
:10B8B00059706979197000215B5E5A432368E2630D
:10B8C0001B6A9847DAE7C0460EFCFFFFF8B5040094
:10B8D000150006AA168807AA0F0012881900FEF79D
:10B8E0003BF90D4BA764083323602300AA884C332F
:10B8F0009A80AA7920009A71084AE264AA6862656F
:10B900002A7B1A736A7B5A73AA7B1E829A73FFF78B
:10B9100043FF2000F8BDC046EC690200E466020067
:10B92000F7B5FA250189204FAD00040069433800BE
:10B9300009F032FA290005F0C7F8A17A20811B48E6
:10B9400009F02AFA2600636CA07200932189583608
:10B95000337869433800019309F019FA0723034348
:10B96000DBB220220199009808F07FFB002801D06B
:10B970000F48FEBD317810232222606C08F075FB61
:10B980000028F5D1A17A0948656C377809F0FFF9EC
:10B9900080235B420343DBB223223900280008F0F6
:10B9A00064FB0028E5D0E3E7206A0200186A020081
:10B9B0000EFCFFFF10B50400034B0833036007F0D3
:10B9C00087FE200010BDC046906A0200F0B5042535
:10B9D000837985B004002B4204D1FDF7BFF9A37928
:10B9E0001D43A57120004830FFF700F9061E0DD059
:10B9F000230058331978062302AD0093A8222B00A8
:10BA0000606CFEF77FFE061E03D0144E300005B0BA
:10BA1000F0BD1F200023EA5ED31703409B180222CB
:10BA2000A95E5B11CA170240521804216F5E5211C1
:10BA3000F9170140C91949112B806A80A980A07AA1
:10BA40004343424341435B42E36123685242A26164
:10BA500021629B6A20009847D8E7C0460EFCFFFF92
:10BA6000F8B50400150006AA168807AA0F00128868
:10BA70001900FDF729FE0F4B67640833236023008C
:10BA8000AA8848339A80AA7920009A710A4AA26447
:10BA9000AA6822652A7B1A736A7B5A73AA7B9A73F7
:10BAA0000023A371230058331E80FFF739FF2000C5
:10BAB000F8BDC046906A0200E4660200F7B5FA25B8
:10BAC00004000189134EAD006943300009F064F9A8
:10BAD000290004F0F9FF2700A36C208100935C3754
:10BAE0003B7881B269433000019309F050F960223C
:10BAF000C3B20199009808F0B8FA002801D00648AE
:10BB0000FEBD397801236222A06C08F0AEFA00284D
:10BB1000F6D0F4E7C46A02000EFCFFFF10B5040083
:10BB2000034B0833036007F0A0FE200010BDC046A1
:10BB3000EC6A02007FB50825837904002B4204D10A
:10BB4000FDF70CF9A3791D43A57120004C30FFF7D8
:10BB50004DF8051E0DD023005C331978062302AE84
:10BB60000093E8223300A06CFEF7CCFD051E03D045
:10BB70000B4D280004B070BD0223F25E96235B4299
:10BB80005A4362630021725E20005343A36304237F
:10BB9000F25E96235343E36323681B6A9847E8E702
:10BBA0000EFCFFFFF8B50400150006AA168807AAC8
:10BBB0000F0012881900FDF7CFFF0D4BA764083363
:10BBC00023602300AA884C339A80AA7920009A71B6
:10BBD000084AE264AA6862652A7B1A736A7B5A7310
:10BBE000AA7B1E829A73FFF769FF2000F8BDC0464A
:10BBF000EC6A0200E466020010B50400054B08334D
:10BC000003601C3007F07AFB2000183007F076FB49
:10BC1000200010BD186B0200FF23F0B52C4D8DB035
:10BC20002B700023040069460088009303F046FA55
:10BC3000002802D16B469B782B70264E3368DB6858
:10BC4000002B07D1002320881A00190008F053FEAA
:10BC50000DB0F0BD2B78032BF4D81F4901A8FDF7D8
:10BC600049FB336801A9DE6804A807F09EFB04A91C
:10BC7000300008F09EFD0027060004A807F03EFBF8
:10BC8000BE421ED031002022103104A80AF00DFC63
:10BC900030000AF0D3FB297804ABC90059180822F8
:10BCA00002A80AF002FC20880123082202A908F059
:10BCB00022FE0137002804D12088084A0C2108F010
:10BCC00018FE01A807F01AFB002FBBD0C0E7C04642
:10BCD000802000203C2500201F750200FFFF00008F
:10BCE000F0B5837991B004005B071BD5FDF7BEFA70
:10BCF00000232269801A9941994203D1F423FF332A
:10BD000098420FD9A068002808D0364B1D8809F04A
:10BD1000BBF8036815221B6A290098470422A379FF
:10BD20009343A371A3799B0759D52F4D2B68DB68EB
:10BD3000002B50D02D4B1B78032B4CD8294B2C4972
:10BD40001B8804A80193FDF7D5FA2B6804A9DE68C7
:10BD500008A807F02AFB08A9300008F02AFD070010
:10BD600008A807F0CBFA02AB9E1D082332003380EF
:10BD700006A9073B019808F0C0FD002F08D0390044
:10BD80002022103108A80AF090FB38000AF056FB78
:10BD9000164B32881B7806A9DE0008AB9E193000CE
:10BDA0000AF074FB002813D0082206A930000AF01C
:10BDB0007CFB2B6804A9DD6805A807F0F6FA2023B0
:10BDC00008AA05A9280008F0FAFC05A807F096FAC9
:10BDD00004A807F093FA0222A3799343A37111B048
:10BDE000F0BDC046B82700203C2500208020002060
:10BDF0001F750200F7B5089E0500152922D80120FD
:10BE000007008F40244C27421CD0E97FCC181F2C00
:10BE100041DC69183418A14210D80021C8B283420D
:10BE200004D9545C701884700131F7E732789A189D
:10BE30003270EA7F9B18EB7700202CE00878C8541A
:10BE40000139E8E73478013CE4B2A34208D1002389
:10BE5000D9B28C42F0D9D05CF11888700133F7E781
:10BE6000EF7F0120FF183F1B1F2F14DC0227A01CAF
:10BE70007F423618381B0190E87F2F18BE4204D24B
:10BE80003078019FF0550136F6E7041B023CEC7751
:10BE9000280008F07CFDFEBDFC002000F0B585B058
:10BEA00001930AAB1E880BAB1B78451C02930EABAB
:10BEB0001B78040003930B78170003704B8A102241
:10BEC0004382013128000AF0F0FA6B469B882683F2
:10BED00063836B461B7B002623776B4601221B7A0C
:10BEE0006761E683EB77A31CDA770C9B0C25636212
:10BEF000230020000D9A28331A705E709E702A006D
:10BF000031002C300AF0EDFA2000074BE663A36302
:10BF10002A00310040300AF0E4FA2000034B266585
:10BF2000E36405B0F0BDC0461149020003490200B8
:10BF300070B50D0008F0A8FF04000368002D09D1BA
:10BF40005B699847FA2080006843074904F0BCFD0C
:10BF5000E08070BD9B6898478542F3D2236820003B
:10BF60009B6898470500EDE771020000F0B50700F7
:10BF70001600A1B002C704006B4918A81D0008F004
:10BF80004DFD331E03D030000AF0EBFA83B20122DC
:10BF90000492002203920292023201920093320034
:10BFA00018A93800FFF77AFF23006049583318A812
:10BFB000079308F033FD2B1E03D028000AF0D1FAB6
:10BFC00083B2012204920022039202920232019271
:10BFD00000932A0018A90798FFF760FF230054492F
:10BFE000AC3318A8089308F019FD269B002B03D04A
:10BFF00018000AF0B6FA83B20122049200220392DA
:10C000000292023201920093269A18A90898FFF72B
:10C0100045FF631CFF33474918A8099308F0FEFC4D
:10C02000279B002B03D018000AF09BFA83B2012251
:10C0300004920022601C0392029202320192009349
:10C04000279A18A9FF30FFF729FF23005533FF3344
:10C05000394918A8099308F0E1FC289B002B03D06C
:10C0600018000AF07EFA83B20122049200220392A1
:10C070000292023201920093289A18A90998FFF7B8
:10C080000DFF2300A933FF332C4918A80A9308F0A9
:10C09000C5FC299B002B03D018000AF062FA83B27A
:10C0A00001220492002218AD039202920232019200
:10C0B0000093299A29000A98FFF7F0FE204B1B787D
:10C0C0000B93002B2DD1079B12971393089B0DAF59
:10C0D0001493631CFF331593099B1A4916930A9B0B
:10C0E0003800179308F09AFC1D2149203B78102254
:10C0F0002B707B8A12AE6B8206ABC918C0180AF08F
:10C10000D4F906232B756B469B8D2068AB83AE61FB
:10C1100008F0BEFE036829001B6898470122084BFF
:10C120001A70200021B0F0BD292A0000242A000046
:10C13000252A0000272A0000262A0000282A0000BD
:10C14000112800200A18000070B5002504000B4BD0
:10C150008580083385710360C1601830FDF704F9EC
:10C1600020001C30FDF700F90123621CD377044A3C
:10C17000A560656120001460A37170BD186B02009A
:10C180003C250020FA2130B585B0050001230222AC
:10C190008900684607F04DF9074C2068002809D04F
:10C1A00008F075FC2988054B2268198002239179D3
:10C1B0000B43937105B030BD3C250020B82700200B
:10C1C00010B50C0007290DD8806808F05DFE064BFD
:10C1D000195703685B6C9847431E9841034B4042D4
:10C1E000184010BD0248FCE71775020016FCFFFF5F
:10C1F00017FCFFFFF0B5A44C0D00A5440400079305
:10C200009AAB1B78A14909A804930692FDF772F82E
:10C21000200029001C3007F0D0F8C020800001F079
:10C220002BFC08200AF00EF90600002100F0AEFEFB
:10C2300015ADA66000210C220EA80AF052F92B00C1
:10C240000EAA83CA83C3924B2900EB6000233000FF
:10C250002B6108F002FEA06808F016FE08220021FB
:10C26000059016A80AF03DF914200AF0EBF8290011
:10C270000200884B1593C8C9C8C2874B059EC3608E
:10C280000023A43603613368002B00D0F5E0306052
:10C29000A06808F0FDFD08220021060016A80AF09B
:10C2A00020F914200AF0CEF87C4B1593030086CDBC
:10C2B00086C37B4BC36000230361336B002B00D02C
:10C2C000DDE03063A06808F0DFFD082200210500F2
:10C2D00016A80AF006F914200AF0B4F8714B15AE4E
:10C2E0001593030086CE86C36F4B9835C360002339
:10C2F00003612B68002B00D0C3E02860012504AB4C
:10C300001B7C04AA2B4308A92800137408F0F7FA31
:10C31000A06808F0C1FD036864495B6A9847A0689B
:10C3200008F0BAFD036862499B699847A06808F065
:10C33000B3FD002302680093166804992A00B047F1
:10C34000049B002B0AD0200008F0AAFB032805DD7F
:10C35000A06808F0A1FD0368DB6898470EA808F004
:10C360000DFB2F2004ABC01808F008FB362004ABEF
:10C37000C01808F003FB3D20042504ABC01808F0EA
:10C38000FDFA0EAB0A93A06804AB5D7708F084FD5C
:10C3900003680AA91B699847A06808F075FD03683F
:10C3A0000AA95B6D9847A06808F06EFD036800213C
:10C3B000DB6D9847A06808F067FD036802219B6D5C
:10C3C000984700212000FFF7FBFE18200AF03AF8FA
:10C3D000A16800F055FA374B374A1B68A1680393F0
:10C3E000364B15A81B6800260293354B0CAF1B6813
:10C3F0000193069B1B685B190093324B12681B6804
:10C40000FFF7B4FD30200AF01DF8079AA16800F08C
:10C41000F7FAA06808F038FD036839009B6A98476E
:10C42000294BBE80A0680C9308F02EFD03683900EC
:10C43000DB6A98472900A06808F0FCFA099A0921EC
:10C440009378A068521908F008FBA06808F01CFD5A
:10C4500032210671A068FFF76BFD04AB1B7FB3426E
:10C4600004D0A06808F010FD08F0CEFA09A806F084
:10C4700045FF95239B009D44F0BD036107E70361E1
:10C480001FE7036139E7C046ACFDFFFF04760200F9
:10C490001F49020085C101002D49020019BC01009D
:10C4A0003B4902006949020049490200CDC401002C
:10C4B00001C5010038250020342500200820002077
:10C4C000302500200C2000200800100013B50622A3
:10C4D0006846FCF71FFF094B1C68002C0AD0694610
:10C4E00001A806F062FF200001A908F0FAFA01A8ED
:10C4F00006F004FF684606F001FF13BD3C2500204E
:10C50000002373B501AE0C0031000500019302F069
:10C51000D5FD002802D1B278064B1A70064B186878
:10C52000002806D061426141044BC9B21D8008F069
:10C53000E0FA73BD802000203C250020B8270020B1
:10C5400030B5284CA9B06A220D000DA8210009F0D1
:10C55000ACFF0DA903A8FCF73BFF03A906A806F052
:10C5600098FF01230193013BFF3B00930533FF3309
:10C57000642206A92800FEF76DF806A806F07CFFE5
:10C58000210019226A3106A809F08FFF0522002434
:10C59000110006AB04A806F0A3FF04A905A806F045
:10C5A00078FF019400942300220005A92800FDF7DC
:10C5B00095FF05A806F060FF21002800FEF778F837
:10C5C00005340520FCF764FCFF2CF5D1FA2080002F
:10C5D000FCF75EFC04A806F04FFF03A806F04CFF32
:10C5E00029B030BD94740200F0B59C4B95B0059213
:10C5F0001A68082304000391D16C06A80B43D36486
:10C600009749FCF777FE974907A8FCF773FE2200CD
:10C6100000250DAE30001C3206A906F0DDFE07AA8B
:10C62000310008A806F0D8FE300006F067FE631C53
:10C63000DD77A06808F028FC03680BAF5B699847BA
:10C64000300008F09BF92B2004ABC01808F096F9D5
:10C65000322004ABC01808F091F9392004ABC0189F
:10C6600008F08CF98023DB00BB80A0680B9608F0F3
:10C670000BFC036839005B6D9847A06808F004FC68
:10C68000036829009B6D9847A06808F0FDFB070030
:10C6900006000A371F222900380009F022FFFD7723
:10C6A000300008F0A8F90621A06808F0C3F9089A3C
:10C6B00009219378A068043208F0CFF9A06808F047
:10C6C000E3FBC8210571A068FFF732FCA06808F001
:10C6D000DBFBFF272E000581A06808F0D5FB08F0E2
:10C6E00093F90398FDF78EFE2000FCF737FB0399C2
:10C6F0002000FFF725FF0399200008F00DFA0495AC
:10C70000012563691D402DD0574909A8FCF7DEFEBD
:10C7100009A90AA806F0BDFE00220AA91300019289
:10C7200000920398FDF7DAFE0AA806F0A5FE049B26
:10C73000002B42D1043F282F41DD0025FE2F00DCD5
:10C74000049D059807F07DF8002806D00123626952
:10C750009A431300042213436361002609A806F0DC
:10C760008BFE049504226369134233D0FF210398A2
:10C77000C826FDF79DFF0025B600A36902229B5E37
:10C78000AB4222DD200029B2183006F03BFE002328
:10C79000010003981A007430FCF7E8FE3000FCF743
:10C7A00077FB039807F054FCC820FCF771FB0222CA
:10C7B0006369134209D10135DFE70437BBE703980A
:10C7C00007F046FC002FBCDDBAE7FA208000FCF73A
:10C7D0005FFB0026022365691D421CD006331D4005
:10C7E00024D0224909A8FCF771FE09A90AA806F07D
:10C7F00050FE00220AA90192009213000398FDF74F
:10C800006DFE0AA806F038FE1948FCF741FB09A89E
:10C8100006F032FE174E6420FCF73AFB164B013649
:10C820009E4200DC6CE706F013FC69E7134909A897
:10C83000FCF74CFE09A90AA806F02BFE2B002A00E3
:10C840000AA9019500950398FDF748FE0AA806F08D
:10C8500013FE09A806F010FEDDE7C046C024002044
:10C860002B7502003B7502003D75020082750200C7
:10C87000983A00008C0A00008B0A0000BF75020085
:10C880000022594BF0B50833060003600F0010007A
:10C89000A9B0B1600BAB991801324870102AFAD1D7
:10C8A0000F3A524C1A700E32105D991A0874013A00
:10C8B000FAD2997B5A7B09020A4331000C31039169
:10C8C00025211B7813AD2B7002ABC918452302A894
:10C8D0001B186A821800102209F0E7FD039B6421EF
:10C8E0006B610123002402AA2B7752181993093394
:10C8F00013701DAB1C706D2302AA9B181C706E2355
:10C9000021009B181EA80C22EC836C621C7009F09D
:10C91000E8FD374B0C22210023A8AB63EC6309F040
:10C92000E0FD344B02AAEB6446239B180322DA771E
:10C9300022002C650595347306AD2B1901345A700D
:10C94000102CFAD101232C482B700E33195CEA1AF3
:10C950001174013BFAD211212520AA7B6B7B1202B4
:10C960000BAC13432A78638202ABC9182270C0183B
:10C97000102209F09AFD0123237505ABA361002362
:10C980003800A38308F084FA036821001B689847E5
:10C9900013ABDB8BB068B38208F07AFA002203682D
:10C9A0000092B18A039ADC680123A047B06808F0BE
:10C9B0006FFA0700142009F045FD0022012304004E
:10C9C0000261069240C008322900079309F06DFD0C
:10C9D0000A4BE360BB69002B03D13000BC6129B076
:10C9E000F0BD2361F9E7C046306B02001B76020000
:10C9F00011490200034902002B760200794B020024
:10CA0000F0B500260400724BDDB00833036081608E
:10CA1000C2608680867132006E4947A808F04CF9E2
:10CA2000230014330125042708931223009704954B
:10CA30000193089A330047A9039602961DA8FFF7B1
:10CA40002DFA3200644947A808F036F90C23220079
:10CA50000097103215AF0495019347A93300039650
:10CA6000029632A8FFF71AFA32005C49380008F043
:10CA700023F921001C310991042308210495019117
:10CA8000009339003300099A0396029647A8FFF7EE
:10CA900005FA32005249380008F00EF9542009F026
:10CAA000D1FC210012220423183107910495019230
:10CAB00000930A0033003900039602960690FFF7B0
:10CAC000EDF9069A474B1000A262D4620AA9082227
:10CAD00030300A930B9609F0E8FC434B069A09990B
:10CAE00093632932157026610422E661079809F0E4
:10CAF000DCFC04220799089809F0D7FC662203237E
:10CB000004A95218D377BA225218D3778722520039
:10CB10005218D377069A35490232D3771DAA0C9260
:10CB200032AA0D9247AA0E92069AA6850F9210A8D5
:10CB3000320008F0C1F83021452004AA52181378B9
:10CB4000123104AA3B705218138811397B8204AB4E
:10CB50001022C918C01809F0A8FC04230CADA06865
:10CB60003B75BD61BE8308F093F9036839001B680B
:10CB70009847822204AB9B181B885432238404AB51
:10CB80009B181B885432A38404AB9B181B88A06895
:10CB9000638408F07DF90700142009F053FC0500B8
:10CBA000134B0661082210C010A91093119609F0CA
:10CBB0007CFC104BEB60BB69B34206D1BD61200029
:10CBC000FCF7CCF820005DB0F0BD2B61F6E7C04665
:10CBD0003C6B02005B7602003B7602004B76020063
:10CBE0006B7602008B4C0200F74B02007B76020052
:10CBF00061CC0100214C0200F0B504000E001500CC
:10CC000085B01F000CAB1B881030019306F007FCA9
:10CC100026806580182009F015FC02AE050033005F
:10CC20000AAA03CA03C32F602800082700213A007C
:10CC30000C3009F056FC3A003100281D09F035FC93
:10CC4000064B02226B61200000230199A5600A4374
:10CC5000E360A2802362636205B0F0BD4B4C02002A
:10CC6000F0B50B898DB00593CB68050004934B8814
:10CC7000828C9A420ED1049C049B059A9B181B1B24
:10CC8000032B39DD62882188012308A806F0D1FB37
:10CC90000434F1E7428C9A422ED1049C049B059AFD
:10CCA0009B181B1B032B27DD2388282006936388F2
:10CCB000EF680793114B08930023099309F0C2FB17
:10CCC000C0236A460600029308AB03CB03C22B00C5
:10CCD0000699079A3000FFF78FFF3B6831005B68C9
:10CCE00038009847002805D0300006F0BDFA300023
:10CCF00009F0A4FB0434D1E70DB0F0BD094D0200EA
:10CD000070B5040090B0806807F0F9FF022101407F
:10CD10001AD1A38D002B17D00C4B6A460493102315
:10CD2000E568A1850591029304AB41CB41C20A009D
:10CD3000230006A8FFF760FF2B6806A99B68280060
:10CD4000984706A806F090FA10B070BD094D020091
:10CD5000002815D0006041608260C36004614561B5
:10CD60008661C761444604624C464462544684620C
:10CD70005C46C462644604636E46466374468463DC
:10CD8000002A06D0C46B043C043A25681560B442FE
:10CD9000F9D18C6BA6464E6BB546002B06D0CC6BFA
:10CDA000043C043B1D682560B442F9D10C6BA446D9
:10CDB000CC6AA3468C6AA2464C6AA1460C6AA0467D
:10CDC000CF698E694D690C69CB688A6808684968C3
:10CDD0007047006041608260C360046145618661A4
:10CDE000C761444604624C464462544684625C46D1
:10CDF000C462644604636E46466374468463C46BCF
:10CE0000043C043925680D60B442F9D1C7698669CC
:10CE1000456904697047006041608260C3600461D5
:10CE200045618661C761444604624C46446254468B
:10CE300084625C46C462644604636C464463744620
:10CE4000846304697047846BA646446BA546046BF3
:10CE5000A446C46AA346846AA246446AA146046AF8
:10CE6000A046C769866945690469C3688268006825
:10CE70004168704710B5041E0CD009F072FB431EC8
:10CE8000E3189C4208D222781978013B21705A702D
:10CE90000134F6E7014810BD0020FCE717FCFFFF56
:10CEA000F0B585B002900C1E2AD00023C217161AC6
:10CEB00056400193019B30005D1C63190A215F1EDF
:10CEC000039303F071FF49423031397030000A2179
:10CED00003F084FE47420600002F0FD1029B002B77
:10CEE00004DA2D23019D039A0235137000232000DC
:10CEF0006355FFF7BFFF380005B0F0BD0195D9E7D6
:10CF0000004FF8E717FCFFFF0268084B406810B5B8
:10CF1000C018C000101803009A4205D81C688C4243
:10CF200002D31800083BF7E710BDC046FFFFFF1F04
:10CF300070B5002817D1114D2E68002E11D1083080
:10CF400009F080FA066046600D4E04003368002B3D
:10CF500002D108F0D4F9306023682C609B00F358AC
:10CF60006360286870BD0122064907480B681340BA
:10CF7000F8D1026043600A60F4E7C046442500200F
:10CF8000502500204025002048250020002370B5B2
:10CF900004000160436099420AD1064D2B68002BC2
:10CFA00002D108F0ACF9286023689B00EB5863605D
:10CFB000200070BD50250020436810B50400002BF0
:10CFC00002D1044809F04CF9606803681B6998476E
:10CFD00010BDC0468B760200436810B50400002BDC
:10CFE00002D1044809F03CF9606803689B699847DE
:10CFF00010BDC0468B760200436810B50400002BBC
:10D0000002D1044809F02CF9606803685B6A98470C
:10D0100010BDC0468B76020000487047FFFF00003D
:10D02000F0B597B00593036807AD1B6804910393AF
:10D0300011002B00060091C991C30024D368210080
:10D040000C220CA8EB602C6109F04BFA22000B4B70
:10D0500010940F9311AB1C70191901344A70102CE5
:10D06000FAD15A820193059B2A00009304990CABD4
:10D070003000039CA04717B0F0BDC046B74F020078
:10D0800070B5FC30046C0500002C0DD1242009F093
:10D09000D9F9064B44608361054B8460C460046128
:10D0A0004461C46103602864286C70BD286C020070
:10D0B000106D020070B5FC30C56B0400002D11D15D
:10D0C000342009F0BFF9084B85604360074B456188
:10D0D0000361074B0562C361064BC5628362064B61
:10D0E000E0630360E06B70BD586C0200486C0200A6
:10D0F000B86C0200C86C0200D86C02007FB50379DE
:10D100001548002B22D0154E154C33782000002BEB
:10D110001CD102AD280007F02BFF002810D16B882E
:10D12000592B0DD12B78AA88D91F012910D800922C
:10D130000C4A2021200005F045FB0123337004E058
:10D1400020220949200009F013FA200004B070BD24
:10D150000092064AEDE7C046AE7602003228002073
:10D1600012280020D0760200C8760200ED76020078
:10D1700010B50400024B08C007F0DAFF200010BD14
:10D18000486C020010B50400024B08C007F0E5FF30
:10D19000200010BD586C0200064B70B504000360FF
:10D1A0004068002804D0056909F048F92800F8E72C
:10D1B000200070BD386C0200064B70B5040003609F
:10D1C0004068002804D0056909F038F92800F8E71C
:10D1D000200070BD686C0200064B70B5040003604F
:10D1E0004068002804D0056909F028F92800F8E70C
:10D1F000200070BD786C0200064B70B5040003601F
:10D200004068002804D0056909F018F92800F8E7FB
:10D21000200070BDB86C0200064B70B504000360BE
:10D220004068002804D0056909F008F92800F8E7EB
:10D23000200070BDC86C0200064B70B5040003608E
:10D240004068002804D0056909F0F8F82800F8E7DC
:10D25000200070BD5C6B0200064B70B504000360DB
:10D260004068002804D0056909F0E8F82800F8E7CC
:10D27000200070BD6C6B0200064B70B504000360AB
:10D280004068002804D0056909F0D8F82800F8E7BC
:10D29000200070BD7C6B0200064B70B5040003607B
:10D2A0004068002804D0056909F0C8F82800F8E7AC
:10D2B000200070BD8C6B0200064B70B5040003604B
:10D2C0004068002804D0056909F0B8F82800F8E79C
:10D2D000200070BD286C020070B5FC30046C0500A5
:10D2E000002C0DD1242009F0ADF8064B4460836179
:10D2F000054B8460C46004614461C46103602864B8
:10D30000286C70BD286C0200106D0200104B10B527
:10D31000083303600F4B0400C36080230E4A5B0098
:10D32000C250C018FCF744FF20000C4BB830E3603B
:10D33000FFF7B2FF2000AC30FFF79EFF2000A030C7
:10D34000FFF78AFF20006C30FFF776FF200010BD4A
:10D350003C6D0200B46D0200F06E02009C6B020096
:10D36000F8B505000400AC356B68AB60A868002810
:10D3700007D0C36821009847AB68002BF4D01B6925
:10D38000F3E72500B0352868002804D0066909F0C5
:10D3900055F83000F8E72200FC2128605832137855
:10D3A0000B40137023005C33187020000A3007F024
:10D3B0009DFF2000343007F099FF606E002804D0F4
:10D3C000056909F03BF82800F8E725009835606604
:10D3D0002868002804D0066909F030F83000F8E722
:10D3E0002600A43628603568002D05D02F69280056
:10D3F00009F024F83D00F7E72000356029000C22F1
:10D400006C3009F06EF82000074BE567A367290030
:10D410000C22803009F065F82300044A8C339034E4
:10D4200028001A602560F8BD9B4F02008D4F020056
:10D43000444AF0B50600C260A022434B16360833BA
:10D4400003600100002342820400320085B00371B2
:10D450008360037483823531137001329142FBD1B2
:10D46000802580222000AD00D201F37735841100A1
:10D4700000933830002300F039FF230021004033AF
:10D4800003931A002B0000255F31157001328A4288
:10D49000FBD1039AFC21D5772200603213801379E7
:10D4A00020000B401371230068331D70274B256744
:10D4B000E3660C220021783009F013F823002700DE
:10D4C00088331D60224B0837FB67843700210C220C
:10D4D000380009F006F81F4B1F4AFB602300A033F9
:10D4E0003D611A601D4A5D60DA601D4A1D619A61E6
:10D4F000DD61300007F0FAFE039807F0F7FE194BE4
:10D50000601CE3602300C4331D705D709D70FF30AC
:10D5100002F0FCFC8C235B00E55023001933FF3341
:10D520005D618023104A5B00E2502300012220004D
:10D53000FE3352425A86023B9D63DD631D6405B093
:10D54000F0BDC0469C6B02003C6D02005C6B0200AB
:10D550009B4F02008D4F02006C6B02007C6B02003F
:10D560008C6B0200B46D0200F06E020070B5074CC7
:10D570002368002B07D1A020400008F063FF0500BE
:10D58000FFF756FF2560206870BDC0465425002077
:10D5900070B50C220D000021040008F0A2FF00234A
:10D5A0002361024B25602000E36070BDA94F02009B
:10D5B00070B500250400254B85800360244BC560B1
:10D5C0008360244B85614361234B45620362234B97
:10D5D0000563C362224BC563836329004430FFF7B0
:10D5E000D7FF200029005830FFF7D2FF2000290084
:10D5F0006C30FFF7CDFF1B4B2200236023008032ED
:10D60000F83320C29342FCD126001D00E936FF36D4
:10D61000280008220021083508F063FFAE42F7D148
:10D620008E2300229B00E11804C6B142FCD18E2358
:10D6300000219B00E2540C4B0C4AE318A2181980FD
:10D6400002339A42FBD1200070BDC046886C0200B4
:10D65000386C0200486C0200586C0200686C0200D2
:10D66000786C0200846D02003A0200006202000041
:10D6700070B500200D00FFF779FF03685B6A9847DB
:10D680002B780400142B1ED003D8132B0CD00020B1
:10D6900070BD152B1FD0222BF9D16B681888236918
:10D6A000002BF4D09847F2E76B68012518889B7827
:10D6B000646819005A08DB0629402A405B0F002CD9
:10D6C000E5D0A047E3E76B6818889978A368002B3A
:10D6D000DDD09847DBE76868827813091207120FDC
:10D6E000012A03D0022A0BD0002106E0013BDBB265
:10D6F0000021022B01D8064AD15C0088E368E6E7E6
:10D700000421012BF9D00131022BF6D0ECE7C04601
:10D7100012770200014B18787047C046332800206A
:10D72000F0B51D000023304F87B000923A78060014
:10D730000C009A4204D102F0F3F8002803D00B2326
:10D74000180007B0F0BD002D0ED003A922200395CC
:10D7500007F059FE002807D006230828F0D011381A
:10D76000434243410433EBE7002302AA1000137045
:10D7700001F09EF80028E2D101251C4902220B7815
:10D780002E40AB433343072693430193009B2C4029
:10D7900033409340AC409C46019B02AA1C431C238F
:10D7A0009C4363461C430E239B181880104B0C703F
:10D7B0000393022303AC2371093002AB0522C01886
:10D7C00008F073FE21000B4801F0DCF8002807D0B8
:10D7D00033000428B4D0013B0828B1D00533AFE7AB
:10D7E0003D700300ACE7C0463328002081200020B4
:10D7F00071D601003428002010B5074801F09AF9CD
:10D800000023984206D00733042803D0013B0828A0
:10D8100000D00533180010BD34280020002373B554
:10D8200001930F4B01AD1B780E0029002B7001F006
:10D8300045FC041E05D00423052800D0073318003A
:10D8400076BD3100280001F0D7F823000028F6D07B
:10D8500007230428F3D0013B0828F0D00533EEE776
:10D860003428002073B5114C0E000500052221005C
:10D87000684608F01AFE012E03D0022E10D00223B3
:10D880000CE002222378B3439343694628002370B7
:10D8900007F0B7FD0023984200D00B33180076BD87
:10D8A000012322781343B343EFE7C04681200020D1
:10D8B000094B10B51A7801000923002A09D007483E
:10D8C00001F0D2F80023984203D003330E2800D091
:10D8D0000333180010BDC046332800203428002030
:10D8E00010B5040001F0E8FF034B1B68002B01D0CA
:10D8F0002000984710BDC0465C250020F0B58BB0D5
:10D90000050001F01BFA0020FFF730FE0368070056
:10D910001B6998473B6804009B69380098473B683F
:10D9200006005B6A380098470300288810380B28E7
:10D9300062D803F0BFF8063E6161615B61616167B7
:10D940006179AF882000390008F0F3F822006B7B82
:10D95000583201931378A8799C46022361460B4301
:10D96000137004AB1F80012304AA9370D0701300BE
:10D970006A461279E91D9A722B000622163305A811
:10D98000099308F092FD29000B2004AB06220E310A
:10D99000C01808F08AFD94346368A360A06800286A
:10D9A0002AD0C36804A99847A368002BF4D01B6948
:10D9B000F3E720002F49AF8808F0BBF822000220CF
:10D9C00058321378A9798343137004AB1F80997080
:10D9D000A0346368A360A06800280DD0C36804A9C0
:10D9E0009847A368002BF4D01B69F3E75B69A8880C
:10D9F000A91D002B00D098472900300007F0FFFD3B
:10DA00000BB0F0BD636E002BF6D0AF79A366A06EAD
:10DA10000028F1D0C36839009847A36E002B01D1CC
:10DA2000636EF3E71B69F1E7012269460D27AB7BC3
:10DA3000EF571A4001925A07920FDB080A720B73D4
:10DA40000622E91D04A808F030FD6A46127904ABED
:10DA5000DA716A46127A9F711A726A46127B200046
:10DA60005A722B000F3307938C348030236804A93B
:10DA70009847C1E7FFFF00000723D72802D9024BD0
:10DA8000186000231800704758250020014B1860CB
:10DA90007047C0465C2500201FB58022A323D20515
:10DAA000DB00D3580820DB0700D405301C4B48228C
:10DAB0001C4902F055F900280AD080B2002807D18D
:10DAC000BFF34F8F184B194ADA60BFF34F8FFEE751
:10DAD000002302A8029301330370154B1B684360B7
